:100000000C94AF020C94F6020C94F6020C94F602D7
:100010000C94F6020C94F6020C94F6020C94F60280
:100020000C94F6020C94F6020C940D280C94E12822
:100030000C94341F0C94F6020C94F6020C94F60205
:100040000C94F6020C94F6020C94F6020C94F60250
:100050000C94F6020C947F1F0C94F6020C94F6029A
:100060000C94F6020C94F6020C94F6020C94F60230
:100070000C94F6020C94F6020C94F6020C94F60220
:100080000C94F6020C94F6020C94F6020C94F60210
:100090000C94F6020C94F6020C94F6020C94F60200
:1000A0000C94F6020C94F6020C94F602165C1E00F8
:1000B0001F0020002100220023002400250026002C
:1000C00027002D002E0000002A002B000000140045
:1000D0001A000800150017001C0018000C00120080
:1000E00013002F003000310039000000040016001A
:1000F000070009000A000B000D000E000F0033007E
:10010000340028000000E10000001D001B00060074
:1001100019000500110010003600370038000000FB
:10012000E5000000E000E3000000E2002C00000019
:100130002C0000002C000000E6000000000001512F
:10014000E40035003A003B003C003D003E003F002B
:1001500040004100420043004400450001004C00C3
:1001600001000000C35CC45CC65CC75CC85CC95CC1
:10017000CA5CCB5C0100010001000100005C0100D1
:100180000000010001000100010001000100010068
:100190000100010001000100010000000100010058
:1001A00001000100BE5CC05CBF5CC15C01000100DD
:1001B0000100010000000100010001000100000039
:1001C000010001000000010000000100000001002A
:1001D000010001000100010032190A00047F3F1FE5
:1001E000643214643214783C1E1E140A052223253E
:1001F0002628292A2C2D2F3032333536383A3B3DEC
:100200003E4042434547494A4C4E50515355575939
:100210005A5C5E6062646668696B6D6F7173757756
:10022000797B7D7F81838587898A8C8E9092949655
:10023000989A9C9E9FA1A3A5A7A8AAACAEAFB1B364
:10024000B4B6B8B9BBBCBEBFC1C2C3C5C6C7C9CAB4
:10025000CBCCCDCED0D1D2D2D3D4D5D6D7D7D8D976
:10026000D9DADADBDBDBDCDCDCDCDCDDDDDDDDDCD4
:10027000DCDCDCDCDBDBDBDADAD9D9D8D7D7D6D5E6
:10028000D4D3D2D2D1D0CECDCCCBCAC9C7C6C5C3A8
:10029000C2C1BFBEBCBBB9B8B6B4B3B1AFAEACAAF5
:1002A000A8A7A5A3A19F9E9C9A98969492908E8CA5
:1002B0008A89878583817F7D7B79777573716F6D7F
:1002C0006B6968666462605E5C5A59575553515059
:1002D0004E4C4A4947454342403E3D3B3A3836350D
:1002E0003332302F2D2C2A292826252322FFAA7FBE
:1002F0005540000101010101010101010202020258
:1003000002020202020303030303030303040404BF
:100310000404040405050505050606060606070788
:1003200007070708080808090909090A0A0A0B0B40
:100330000B0C0C0C0D0D0D0E0E0E0F0F0F101011DF
:100340001111121213131414151516161717181865
:1003500019191A1A1B1B1C1D1D1E1E1F20202122CD
:1003600022232424252626272829292A2B2C2D2D13
:100370002E2F30313232333435363738393A3B3C30
:100380003D3E3F404142434445464748494A4C4D23
:100390004E4F50515354555658595A5B5D5E5F61EC
:1003A0006264656668696B6C6D6F7072737577787F
:1003B0007A7B7D7E8082838587888A8C8E8F9193DD
:1003C0009596989A9C9EA0A2A3A5A7A9ABADAFB104
:1003D000B3B5B7BABCBEC0C2C4C6C9CBCDCFD1D4E9
:1003E000D6D8DBDDDFE2E4E7E9EBEEF0F3F5F8FA8F
:1003F000FDFF0A0344005A003600300000001003DD
:100400004B0042004400460061006E007300000093
:100410000403090409023B00020100A0FA090400D8
:100420000001030101000921110100012240000720
:1004300005810308000A0904010001030000000906
:10044000211101000122BC000705820320000A12CD
:10045000011001000000085A44602201000102005E
:100460000105010902A10185020901A1000509197F
:100470000129051500250195057501810295017574
:100480000381010501093009311581257F95027528
:1004900008810609381581257F95017508810605B3
:1004A0000C0A38021581257F950175088106C0C0A8
:1004B00005010980A101850319012AB7001501264C
:1004C000B700950175108100C0050C0901A10185D7
:1004D0000419012AA002150126A0029501751081B8
:1004E00000C005010906A1018505050719E029E7F6
:1004F000150025019508750181020507190029EFEE
:100500001500250195F075018102050819012905DD
:10051000950575019102950175039101C0050109C9
:1005200006A101050719E029E715002501950875C1
:100530000181029501750881010507190029FF1540
:100540000026FF0095067508810005081901290598
:10055000950575019102950175039101C000112463
:100560001FBECFEFDAE0DEBFCDBF04B603FE27C06B
:1005700080916A0390916B03A0916C03B0916D031D
:100580008730904BA740B04BD1F410926A03109281
:100590006B0310926C0310926D0314BE84B7877FB7
:1005A00084BF0FB6F894A89580916000886180930D
:1005B0006000109260000FBEE0E0F8E3099511E0E2
:1005C000A0E0B1E0ECE7F8E502C005900D92AE3C8A
:1005D000B107D9F723E0AEECB1E001C01D92AA3615
:1005E000B207E1F70E944F250C94002C0C940000F8
:1005F00081E0089581E008950C94FA0208950C9426
:10060000FE021F93CF93DF9300D000D00F92CDB79F
:10061000DEB749835A836B833091440289819A8182
:1006200031111DC06623B9F02223A9F00E94191CC4
:10063000182F682F89819A810E94C51B69817A8150
:10064000812F0F900F900F900F900F90DF91CF910F
:100650001F910C94CF030E94F11B182FEFCF0E9423
:10066000191C69817A81EDCFFC01262F40815181CF
:100670006281738184810C940103CF93DF93EC0139
:1006800060E00E943403BE01DF91CF910C94FF0221
:100690000E945D1D811102C00E94141E0E94C003B1
:1006A0000E9402100C94DB050C94DE0508950E9454
:1006B0002F170E9456032FEF84E39CE021508040C7
:1006C0009040E1F700C000000C94A31F0F931F930C
:1006D000CF93DF93EC0161E00E9434038C01BE01F3
:1006E0000E94FC02882389F1BE01C8010E946E0F9E
:1006F000882359F1BE01C8010E94AA10882329F15C
:10070000BE01C8010E94FC108823F9F0BE01C80197
:100710000E941F128823C9F0BE01C8010E94350E35
:10072000882399F08A81882339F001158CE5180710
:1007300051F00F3D1C4579F0CE01DF91CF911F9113
:100740000F910C94F8020E94570380E0DF91CF9143
:100750001F910F9108950E94141EF7CF08950C94D5
:10076000AE0381E00895CF93C82F0E94B103882380
:1007700019F0C1FD03C02A9ACF9108952A98FCCFA1
:10078000229A2A9A0895CF93C82F0E94AF038C2FE4
:10079000CF910C94B30390E080E008950895972FD3
:1007A00070E02FE0929F600D711D1124FB019BE40E
:1007B000899FE00DF11D1124EE0FFF1FE455FF4F3F
:1007C000859194910895FC01EE0FFF1FE852FE4FB2
:1007D000859194910895CF93DF930E94CF030E9457
:1007E0000005EC01811520E5920708F042C0811553
:1007F00030E4930708F0BDC0883E910528F5803E9F
:10080000910508F09DC0883A910588F4853A9105D4
:1008100008F08FC08130910509F492C0009709F467
:100820008FC0049708F08CC0D0E0C0E089C08F3B37
:10083000910508F489C0805C9109C03CD105A0F302
:100840000E94E303EC017CC08115904250F4C11575
:1008500081E0D80708F074C0C03FD10528F3D06507
:100860006FC0C11590E3D90708F079C0CE019F7021
:10087000E7CF811525E5920758F5811534E59307F3
:1008800008F0A6C0811542E5940750F4C11581E532
:10089000D80708F471C0DC2FCC27C16FD06A50C0D4
:1008A000982F969596959E0123703327C115D345B1
:1008B00008F07FC0C1E0D0E002C0CC0FDD1F2A9558
:1008C000E2F720E2929FC0011124C82BD92B6FC000
:1008D000C11589E5D807A8F4C11598E5D90708F02E
:1008E0007CC0C11526E5D20708F09ECF8C2F0E9450
:1008F0009705C82FD0E0DC2FCC27CC27DF71D06242
:100900001FC0C1153AE5D30708F46CC0CE0190565C
:100910008115904208F088CF8D2F8F710E94970526
:1009200090E0982F882788279F719C012C2BE90144
:10093000E6CFC55AD0E0C65ADE4FC881D0E0D064B9
:10094000CE01DF91CF910895C85AD0E0CC0FDD1FC2
:10095000C45DDE4F0990D881C02DD464F1CFCE01A3
:100960009927D3FF03C0EC01D86CEACFEC01D06C1F
:10097000E7CFDF70D06AE4CFCE01E4E096958795AB
:10098000EA95E1F783702C2F26952695237090E247
:10099000299F90011124382B8C2F8370C1E0D0E067
:1009A00002C0CC0FDD1F8A95E2F7C22BD32BDC6887
:1009B000C7CFC1E0D0E002C0CC0FDD1F2A95E2F71F
:1009C00030E2939FC0011124C82BD92BDA68B8CF2D
:1009D000D82FCC27C46FD06AB3CFDC2FCC27C06F01
:1009E000D06AAECF8C2F8F700E94970534E0D695D9
:1009F000C7953A95E1F7CF709C2FEC01D069A0CF55
:100A000082389105B1F1B0F48133910509F475C0D4
:100A100048F48932910509F469C08A32910509F4D4
:100A200073C008958533910509F459C08933910540
:100A300001F10895833E9105A9F138F4803E9105B6
:100A4000F9F0823E910549F10895863E9105A9F19C
:100A5000873E9105C9F1843E910519F520915C030B
:100A600021FF1FC080915B0384FD14C087EE90E0DE
:100A7000089520915B032370A1F080EE90E008952B
:100A800020915B0320FD47C030915C0330FF09C01B
:100A900024FF44C090E080E004C020915B0322FD6D
:100AA000F7CF089520915B0322FD3BC030915C039A
:100AB00030FDE3CF24FFF5CFEDCF20915B0323FF83
:100AC000F0CF24FDE7CFD2CF20915B0323FD2CC0D4
:100AD00030915C0331FFEECF84EE90E008952091D9
:100AE0005B0325FFDECF89E290E0089520915B0350
:100AF00025FFD7CF85E390E0089520915B0326FF83
:100B0000D0CF8AE290E0089520915B0326FFC9CF01
:100B100081E390E0089589E390E0089583EE90E00A
:100B2000089582EE90E0089586EE90E00895909109
:100B30005B0392FF06C0282F28712830F9F4877FC5
:100B4000846093FF06C0282F28712831F1F4877E36
:100B5000846120915C0320FF06C0382F3871383043
:100B6000D9F4877F816021FF06C0282F28712831A2
:100B7000D1F4877E816194FD877E0895282F2471AA
:100B80002430F9F68B7F8860DCCF282F2471243144
:100B900001F78B7E8861DDCF382F3171313019F745
:100BA0008E7F8860E0CF282F2171213121F78E7E42
:100BB0008861E1CF08950C94DA0508950C94DD0561
:100BC000E82FF0E0EE0FFF1FE95EFC4F808191817E
:100BD0000895089580EA8A95F1F70895F894E82F2A
:100BE000E295EF70F0E031A1282F2F7081E090E0C6
:100BF00001C0880F2A95EAF7982F9095932391A327
:100C000092A1892B82A3789408950F931F93CF9379
:100C1000DF9380E90E94EE0581E90E94EE0582E9FA
:100C20000E94EE0583E90E94EE0585E90E94EE052B
:100C3000CDE5D1E00CE611E089910E94EE050C179C
:100C40001D07D1F710920E0310920D031092180396
:100C5000109217031092100310920F0310921A03B0
:100C600010921903109212031092110310921C0398
:100C700010921B03109214031092130310921E0380
:100C800010921D0310921603109215031092200368
:100C900010921F0385E00E94D106DF91CF911F9132
:100CA0000F910C944803AF92BF92DF92EF92FF92A4
:100CB0000F931F93CF93DF93CCE6D1E00DE013E0C9
:100CC000D12CEE24E394F12C8991F894E82FE2954D
:100CD000EF70F0E021A18F70A70102C0440F551FF3
:100CE0008A95E2F7CA01922F982B91A392A1809541
:100CF000892382A378940E94EA05EDE5F1E030E0D3
:100D000020E0B12CA12C4191A42FA295AF70B0E0AE
:100D100090968C9190E04F7002C0959587954A957A
:100D2000E2F780FD39C0C701022E02C0880F991F6B
:100D30000A94E2F7A82AB92A2F5F3F4F2F303105D6
:100D400011F7FE01319780810E94EE05F801808144
:100D50009181A816B90619F1B182A08281E0D82A42
:100D60000E5F1F4FF1E0C137DF0709F0ADCF2D2D2A
:100D700045E067E173E08DE093E00E94D2060E94B7
:100D800054038D2DDF91CF911F910F91FF90EF9024
:100D9000DF90BF90AF90089590E080E0CBCF80E0EF
:100DA000DECF0895FF920F931F93CF93DF93F82E1A
:100DB000092F162FD72FC42F222349F081E08093CB
:100DC000D0010E94641F9093CF018093CE01809147
:100DD000D0018823A1F08091CE019091CF010E9493
:100DE000701F069760F0EF2DF02FA12FBD2F90E020
:100DF00080E0D0E08C179D0744F01092D001DF9185
:100E0000CF911F910F91FF900895219131912D93D2
:100E10003D930196EFCFEF92FF920F931F93CF93E5
:100E2000DF93EB01E82FD11110C0442321F0F0E053
:100E3000EE50FD4FE4916E2F7E2F8E2FDF91CF91DC
:100E40001F910F91FF90EF9008950D2F10E0282F24
:100E500030E0442329F02E503D4FF901249130E039
:100E6000F6E0CF9FC0011124EFEFF0E0BF010E9438
:100E7000AF2AAB018C2F90E0880F991FA5E5A49FA6
:100E8000B001A59F700D1124861B970B982F990F09
:100E9000980FBF01601B710B629FD001639FB00D63
:100EA000729FB00D11248B2F9D9FB0011124672FCD
:100EB0007727EF01C61BD70BBE01629FE001639F3E
:100EC000D00D729FD00D11247F01E91AF108E09E28
:100ED000B001E19E700DF09E700D1124672F7727F1
:100EE000E61BF70BE29F8001E39F100DF29F100DB0
:100EF0001124E12F722F4230510599F048F4411529
:100F0000510569F04130510581F0EB2F8D2F07C05D
:100F10004430510569F080F046305105B1F76E2F2D
:100F20008DCFE22F7B2F812FFACFE22F7D2FF7CFAE
:100F3000EB2F822F712FF3CF7B2F822FED2FEFCF4F
:100F400041E00C940B0708950C94A007CF93DF9316
:100F5000762FE901682F842F0E94A4077983688384
:100F60008A83DF91CF91089580912103982F9E7FEE
:100F700029F4817082608093210308958635E8F317
:100F800081708465F8CF88E090E00C94A12BCF921B
:100F9000DF92EF92FF926B017C010E94B407B701D0
:100FA000A60188E090E0FF90EF90DF90CF900C9446
:100FB000BF2BE1E2F3E083E0808311828FEF828335
:100FC0008383148260817181828193810C94C7072D
:100FD0008091210380FF02C08695089580E00895E6
:100FE00090912503933018F49F5F909325038823F5
:100FF00051F060912103709122038091230390911D
:1010000024030C94C707089581E00C94F007909195
:101010002503992319F0915090932503882351F0CB
:101020006091210370912203809123039091240306
:101030000C94C707089581E00C94070870E00C94A5
:101040001210609108018091210380FF0AC08091F5
:10105000070123E0829FC00111248A5D9C4F0C94FC
:101060001E088091090190910A0123E0829FF001FE
:101070001124EA5DFC4F891750F711821082128209
:101080008F5F3396F8CF9091210390FF14C0909119
:10109000090120910A0133E0939FF0011124EA5DD8
:1010A000FC4F921710F00C942108818360834283D7
:1010B0009F5F3396F6CF0895CF93DF9300D00F92C2
:1010C000CDB7DEB79091210390FF0AC09E012F5F3C
:1010D0003F4F0E94A6074B8169818A810E94430885
:1010E0000F900F900F90DF91CF910895CF93DF93E2
:1010F000EC01EC81F0E0E351FE4F4491E1E2F3E0DA
:10110000628181810E945C088C818F5F8C83DF917A
:10111000CF910895CF93DF93EC01E1E2F3E04381B7
:1011200062818C810E945C088C818F5F8C83DF914F
:10113000CF9108950F931F93CF93DF9300D00F9219
:10114000CDB7DEB78C018091D10181110AC09E011B
:101150002F5F3F4F4FEF6FEF0E94A6078A8180936A
:10116000D101F8016481613069F08091D10140E0E2
:10117000662361F040E0623011F44091D10180E0DB
:1011800060E004C06091D10140E080E00E9443082B
:10119000F801848190E0019663E070E00E94C32A28
:1011A00084830F900F900F90DF91CF911F910F913B
:1011B0000895AF92BF92CF92DF92EF92FF920F937A
:1011C0001F93CF93DF9300D00F92CDB7DEB7182FC8
:1011D000F62E042FE22E9091210390FF29C0E92FD3
:1011E000E695AE2FB0E0AF58BE4F8C9180932D02A4
:1011F0009E7F923059F59E012F5F3F4F812F0E94B5
:10120000A6074B8169818A810E94430810932203BB
:10121000F092230300932403EE2051F06091210308
:101220007091220380912303909124030E94C707A9
:101230000F900F900F90DF91CF911F910F91FF9022
:10124000EF90DF90CF90BF90AF900895823019F467
:1012500000912403DBCF863019F410912203D6CFFE
:101260008930D9F3893191F6E9518E2F8170D82ECA
:10127000E695F0E0E351FD4FA590B490C12CBB245E
:1012800060910B01C61618F00E942108BFCF2C2DCB
:1012900030E0A29EC001A39E900DB29E900D11243D
:1012A00070E00E94AF2A812FD11013C0860F4091A9
:1012B0000901420F532F511D9A01220F331F240F92
:1012C000351F2A5D3C4F402F6F2D0E94A607C39407
:1012D000D7CF861BECCFE1E2F3E09181282F438149
:1012E000628188E0890F0C94D90881E00C946B0925
:1012F000E1E2F3E09181282F4381628188EF890F39
:101300000C94D90881E00C947809E1E2F3E0628161
:1013100028E0620F08F46FEF282F438181810C943D
:10132000D90881E00C948509E1E2F3E0628128E0CC
:10133000621B08F460E0282F438181810C94D90856
:1013400081E00C949409E1E2F3E0438128E0420F4C
:1013500008F44FEF282F628181810C94D90881E035
:101360000C94A309E1E2F3E0438128E0421B08F476
:1013700040E0282F628181810C94D90881E00C948F
:10138000B20920E00C94D908EF92FF921F93CF93FB
:10139000DF93EC0110E0EE24EA94F12C60910B0154
:1013A000161770F00E9421089A818C8190FF27C047
:1013B0008F5F8C83DF91CF911F91FF90EF90089505
:1013C00020910901422F410F5527551FCA019A014B
:1013D000220F331F280F391F2A5D3C4F70E0C701D1
:1013E0000E94C32A962F8C8140912403609123038D
:1013F000199F800D11240E94A6071F5FCFCF815037
:10140000D8CFBF92CF92DF92EF92FF920F931F93AC
:10141000CF93DF93FC0182810FEF80FF01E010E0AA
:1014200080910B011817C0F00E9421088091D30110
:10143000013009F051C0811102C080910B0181502F
:101440008093D301DF91CF911F910F91FF90EF9087
:10145000DF90CF90BF900895C0910901C12ED12C8B
:10146000CC0DDD2DD11DCE01880F991FC80FD91FBE
:10147000CA5DDC4F198218821A8234E0E32EF12C07
:10148000B12C8091D3018B0D813104F18F70082E26
:10149000000C990BC816D90691F4809124038E9DF7
:1014A000A0018F9D500D1124559547955595479551
:1014B0009E0160912303809122030E94A607B00E33
:1014C000F1E0EF1AF108E9F61F5FAACF87FFDFCF3F
:1014D00090910B01890FDBCF90E0019660910B0199
:1014E00070E00E94C32AACCF0F931F93CF93DF937A
:1014F0008091090190910A0123E0829FF00111245B
:10150000EA5DFC4F891740F1C0E0D3E060910B0128
:10151000C61740F10E942108209105018091D20157
:10152000820F8093D20190910601920F9093060151
:10153000191654F4082E000C990B40910B014150E0
:10154000550B841795071CF0219520930501DF9119
:10155000CF911F910F9108951182108212828F5F97
:101560003396D0CF0C2F10E070E0C8010E94C32A40
:1015700020910901820F482F50E02091D201022EC4
:10158000000C330B02171307BCF020910601022E4A
:10159000000C330B201731077CF08D9F9001112434
:1015A0002A5D3C4F409124036091230380912203E4
:1015B0000E94A607CF5FAACFFA01EE0FFF1FE40F2C
:1015C000F51FEA5DFC4F118210821282F3CF8F92D9
:1015D0009F92AF92BF92CF92DF92EF92FF920F93C2
:1015E0001F93CF93DF93EC014C81042F10E09801FF
:1015F000D8010E94072B9B01AC010E941D2B4B01BF
:101600005C01E0E2F0E0E01BF10BA5E5B0E0AC012D
:101610009B010E941D2B6B017C019F01DF010E9439
:10162000FF2A9B01AC010E94282B9B01AC01280DD5
:10163000391D4A1D5B1DC701B6010E94D72AF22E33
:10164000822F90E039E23F1560F143E0249F900142
:10165000112435952795122F109500E085E5E82E89
:10166000EF1880910B01081758F10E9421089C8106
:1016700081E0992319F0903219F48FEF80930401DF
:1016800080910401890F8C83DF91CF911F910F917D
:10169000FF90EF90DF90CF90BF90AF909F908F9092
:1016A000089525E530E0B901681B790B9B01220FF5
:1016B000331F260F371F37FFCCCF2F5F3F4FC9CFC8
:1016C0008E2D01FD8F2D20910901622F600F77274C
:1016D000771F9B01220F331F260F371F2A5D3C4FB8
:1016E000412F609123030E94A6070F5FBACF0F938B
:1016F0001F93CF93DF93EC0110E000E090910B017A
:101700009017110609F06CF40E9421088C8190E07A
:101710000196817099278C83DF91CF911F910F9152
:10172000089520910901A801420F511D9A01220F2D
:10173000331F240F351F2A5D3C4F4C8160912303DA
:101740008091220396959017110651F04CF0442396
:1017500049F0409124030E94A6070F5F1F4FCECF90
:101760004423B9F340E0F7CF8F929F92AF92BF929C
:10177000CF92DF92EF92FF920F931F93CF93DF935D
:10178000FC01B280948081E0848300E015E05BE49A
:10179000A52E88248394EE24EA94F12C7BE4C72EB2
:1017A000D12C80910B01081770F0DF91CF911F9120
:1017B0000F91FF90EF90DF90CF90BF90AF909F90F0
:1017C0008F900C942108C02FD0E01C9FF0011D9F2A
:1017D000F00D1124EC52FE4F91101CC013821282A6
:1017E00020910901CE01820F911D9C01220F331F10
:1017F000280F391F2A5D3C4F1C9FF0011D9FF00DE3
:101800001124EC52FE4F4281618180810E94A60723
:101810000F5FC7CF2381222379F1215023833481A5
:101820008A2D821B311101C0822F1C9FF0011D9F48
:10183000F00D1124EC52FE4F90912403899FC001BA
:101840001124B6010E94AF2A6283211104C0332300
:1018500011F01482A38222E02B1510F21C9FF001DC
:101860001D9FF00D1124EC52FE4F809122038083C6
:10187000809123038183B4CF0E947C2B82309140DE
:101880000CF0AECF82E08B1530F50E947C2BB701B7
:101890000E94C32A1C9FF0011D9FF00D1124EC52E1
:1018A000FE4F808322E02B15C8F40E947C2B2091F0
:1018B00023032695622F70E00E94C32A280F1C9FE5
:1018C000F0011D9FF00D1124EC52FE4F2183128276
:1018D000A382848285CF80912203DCCF20912303D1
:1018E000EECFE1E2F3E080818E7F808360817181C1
:1018F000828193810E94C70710922E022FEF80E70A
:1019000092E0215080409040E1F700C000000C942C
:101910002108E1E2F3E080818E7F808310922E0225
:101920002FEF80E792E0215080409040E1F700C027
:1019300000000C94210810922E0280912B0281113C
:101940000AC081E080932B028091210381708093F3
:101950002A020C94890C089560912103669570E029
:101960004BE050E08CE091E00E948C2B892B19F425
:1019700081E080932E020E94641F90932502809341
:10198000240208959091210390FF35C09170811138
:1019900028C0926090932103662351F06091210347
:1019A0007091220380912303909124030E94C70722
:1019B00060912103669570E04BE050E08CE091E08F
:1019C0000E948C2B892BA1F010922E0281E0809333
:1019D00027024091240360912303809122030C94F9
:1019E000C1098B3210F09465D5CF880F982BD2CFD8
:1019F0000E94AC0CEBCF0895682F9091210396952F
:101A000081E0890F8B3208F081E00C94C20C81E0F8
:101A10000C94FC0C682F9091210396958FEF890F01
:101A200009F48AE20C94C20C81E00C940A0D61E086
:101A30000C94C20CE1E2F3E08081816080838695A2
:101A40000C94170D8091210380FD0C94710C0C9463
:101A50001A0D60E00C94C20C80912C0281112EC0F2
:101A60000E945D1D811104C00E94141E0E94D907AE
:101A70000E94C30760932103709322038093230382
:101A8000909324036E7F61F40E94D9070E94C307DC
:101A90006093210370932203809323039093240384
:101AA0000E94B40710922E028091210380FF03C090
:101AB00086950E94290D81E080932C020895E1E231
:101AC000F3E080818160808386950C94290D1092CB
:101AD0002B0280912A0281110E945F0D0C94AC0CA4
:101AE0000F931F93CF93DF9380912E02882309F4E5
:101AF0009DC080912D02E0912103E695E81BE093C3
:101B000026028230C9F5F0E0E751FE4FE491CE2F76
:101B1000D0E006E718E080912702882389F0109230
:101B200027020E94641F9E0120953095820F931F0B
:101B30009093250280932402109229021092280289
:101B400080912402909125020E94701F8C179D079E
:101B500008F46CC0E0912402F0912502CE0FDF1F43
:101B6000D0932502C093240284E292E0F801DF9131
:101B7000CF911F910F910994863049F4F0E0EA511A
:101B8000FE4FE491CE2FD0E00AE818E0C4CF8930B0
:101B900051F4E695F0E0ED51FE4FE491CE2FD0E008
:101BA00004EC19E0B8CF8F3051F4E695F0E0E05244
:101BB000FE4FE491CE2FD0E001E01AE0ACCF8531AA
:101BC00049F4F0E0E352FE4FE491CE2FD0E004E779
:101BD0001AE0A1CFC8E2D0E007EE1AE0883109F49C
:101BE0009ACF833239F4EBEDF1E0C591D4910AE953
:101BF00018E091CFC4EFD1E007E71BE0843209F48D
:101C00008ACFC0EDD7E003EA17E0853209F083CF31
:101C10008E2F63E00E94A32AE92FF0E0E852FE4FE6
:101C2000E491CE2FD0E004EB1BE075CFDF91CF9194
:101C30001F910F910895FA01811101C0FB010994D0
:101C4000CF93DF93C82FD62F0E94E8078C1740F060
:101C50000E94E8078D1720F4DF91CF910C94070DB7
:101C60008C2FDF91CF910C94170D0F931F93CF936F
:101C70008C01FB01C281CC2309F465C00E94AE1C1B
:101C80008272F801E35CFC45E431F10538F4EE5F63
:101C9000F34D0C94F92A0E94220DC0E08C2FCF91B5
:101CA0001F910F91089544E15DE067E07DE00E949F
:101CB0001B0EF3CF47E05DE064E17DE0F8CF42E842
:101CC00059E065E779E0F3CF45E759E062E879E06C
:101CD000EECF40EA59E061E979E0E9CF41E959E026
:101CE00060EA79E0E4CF4EEB59E06FEA79E0DFCFCC
:101CF0004FEA59E06EEB79E0DACF4BE158E064E06F
:101D000078E0D5CF44E058E06BE178E0D0CF81E0D7
:101D10000E94170DC2CF65E082E00E94200EBDCF69
:101D200068E086E0FACF6EE089E0F7CF64E18FE00B
:101D3000F4CF67E185E1F1CF88E1EACF62E289E1A2
:101D4000ECCF83E2E5CFC1E0A9CF0E945D1D8111F8
:101D500002C00E94141E0E94951D8093560380337A
:101D600020F0877088628093560390915603892FE4
:101D7000817090FF04C0892F8695869586950C9476
:101D8000A30F80915603982F96959695969595302A
:101D900040F49F5F990F990F990F8770892B80935B
:101DA0005603809156038160809356030E94991DCB
:101DB000809156038695869586950C94A30F809105
:101DC0005603982F987F79F0885080935603887F28
:101DD00091E009F490E08091560390FB80F98093A4
:101DE00056030E94991D8091560386958695869587
:101DF0000C94A30F8091560380FD13C081608093E3
:101E00005603813019F489E080935603809156037C
:101E10000E94991D809156038695869586950C940F
:101E2000A30F08958091560380FF08C08E7F809392
:101E300056030E94991D80E00C94A30F0895809191
:101E4000560380FD0C94120F0C94FA0E90915603D9
:101E5000892F8695869586958F5F8F7197708630CE
:101E6000D8F4880F880F880F892B809356038091B0
:101E70005603887F91E009F490E08091560390FB2F
:101E800080F9809356030E94991D80915603869590
:101E9000869586950C94A30F90935603E8CF8630D1
:101EA00008F085E0909156039770282F220F220F9B
:101EB000220F922B90935603987F21E009F420E0A3
:101EC0009091560320FB90F9909356030C94A30F26
:101ED0000E944F0F809156030C94991D9C01FB01A9
:101EE0008281882349F12E3BFCE53F07C9F040F48D
:101EF0002C3BECE53E0769F02D3B3C4579F008951D
:101F0000203C9CE5390791F070F0213C3C4589F07C
:101F1000089585E00E94680F80E0089580E0FACF80
:101F20000E94DF0EF9CF0E94C10EF6CF0E941F0F54
:101F3000F3CF0E94260FF0CF81E00895269A2E98C5
:101F400008952E980895CF92DF92EF92FF92CF934B
:101F5000C82F863040F5811127C0809180008F7D89
:101F6000809380000E94A10F2C2F30E0AFEFBFEFD5
:101F70000E94072B25E030E040E050E00E94D72A85
:101F8000C9012C3764E13607A8F469E070E00E94CB
:101F9000AF2A70938B0060938A00CF91FF90EF90EF
:101FA000DF90CF900895C5E080918000806280939B
:101FB0008000DACF2A50374D4F4F5F4F942F832F39
:101FC000722F662725EF38E241E050E00E94D72AC1
:101FD00069017A01CA01B9010E94932A9B01AC01EF
:101FE000C701B6010E94932A672F782F892F99275E
:101FF0006115710521E08207910559F66FEF7FEFBA
:10200000C8CF08950E949E0F82E28093800089E1EC
:10201000809381008FEF9FEF9093870080938600DD
:102020000C94A50E6A9A4EB14B7F5EB15460EFB727
:10203000F8949B01220F331F260F371F280F391FDB
:102040002817390741F4EFBF8FE594E00197F1F7C6
:1020500000C000000895DC016D91CD0178E05EB90B
:10206000000000C067FF4EB9660F000000C000C04E
:1020700000C04EB900C07A9591F7E2CF0F931F933D
:10208000CF93DF93C42FD22FFC0182818823C9F024
:10209000409331020E94641F9093300280932F027C
:1020A00080E28C0F883008F050C0C77081E001C01A
:1020B000880FCA95EAF7DF91CF911F910F910C9489
:1020C000B31410913102141335C080912F029091F6
:1020D00030020E94701F883C910560F5C0E2CD0F70
:1020E0001D17B9F080E2810F883040F4177081E04D
:1020F00001C0880F1A95EAF70E94BA14C83048F454
:1021000081E09D2F977001C0880F9A95EAF70E9491
:10211000B314802F0E94A014C830B8F4D77081E0A7
:1021200001C0880FDA95EAF7DF91CF911F910F91E7
:102130000C94BA1480E28C0F883038F4C77081E0B8
:1021400001C0880FCA95EAF7EFCFDF91CF911F91B9
:102150000F9108950F939C01CB01243F4CE5340768
:1021600059F1A8F4293DFCE53F0701F12A3D4CE572
:102170003407D1F1283D3C4591F406E221EE41EED1
:1021800068ED7CE50E943E1080E00F910895263FA7
:10219000FCE53F07E9F0B0F0273F3C45F9F0FC01D2
:1021A0008281882339F110923102EFCF07E225EEC8
:1021B00045EE69ED7CE5E6CF06E221EE40EE64EF08
:1021C0007CE5E0CF07E225EE44EE65EF7CE5DACF73
:1021D00006E221EE42EE66EF7CE5D4CF07E225EE83
:1021E00046EE67EF7CE5CECF08E221E045EE6AEDF2
:1021F0007CE5C8CF81E0C9CFCF93DF93EC01FB0131
:102200008281882309F419C1C230FCE5DF07C0F1DF
:10221000C6319CE5D90730F09E012B5F3C45293043
:10222000310570F50E947A1D90935C0380935B03E7
:10223000C031ECE5DE0709F4CFC008F05BC0C83060
:102240008CE5D80709F4B6C088F5C430ECE5DE07A4
:1022500009F4A8C0C0F4C2308CE5D80709F49CC0CA
:1022600080915B038260C330DC4509F498C08091A3
:102270005B0390915C030E94881D0E942F1780E0F1
:10228000DF91CF91089580915B038061C630ECE5CA
:10229000DE0709F484C080915B038860C730DC45A9
:1022A00008F47DC080915B03806279C0CC308CE5FE
:1022B000D80709F489C070F480915B038C60CA3040
:1022C000ECE5DE0709F46BC008F478C080915B038D
:1022D0008E7F65C0CE308CE5D80709F479C0809137
:1022E0005B038B7FCF30DC4508F459C080915B03E2
:1022F0008F7E55C0CC3FECE5DE0709F457C030F5C2
:10230000C3318CE5D80709F46FC078F4C131ECE52E
:10231000DE0709F465C0C231DC4509F0A8CF0E9490
:102320002F1780915B038F773AC0C5318CE5D807B2
:1023300009F462C008F476C080915C038160CB3FF1
:10234000DC4509F094CF80935C0391CFC115FDE586
:10235000DF0709F44DC088F480915C038D7FCE3F88
:102360009CE5D90781F380915C038E7FCF3FDC45EC
:1023700050F380915C038360E6CFC230FDE5DF0758
:1023800009F459C008F444C080E0C330DD4509F0C9
:102390006ECF0E94161E6BCF80915B03816080938D
:1023A0005B0365CF80915B038460F9CF80915C0310
:1023B0008260C9CF80915B038064F1CF0E942F17A8
:1023C00080915B038068EBCF80915B038D7FE7CFCB
:1023D00080915B03877FE3CF80915B038F7DDFCFAD
:1023E00080915B038F7BDBCF80915B03837FD7CFB3
:1023F00080915C038C7FA7CF80915B0382FB992740
:1024000090F921E0922790FB82F990FB83F9C7CFE6
:1024100080915C03982F909591708E7F892B90FB13
:1024200081F991CF0E942F1790915B03892F97FB21
:1024300087F98058B4CF81E0ACCF81E021CFCF9332
:10244000DF93EB0186319C4511F50E94AE1C9A8109
:10245000992399F08A7A91E009F490E090933202FE
:10246000811109C089E20E94891C0E94FA1C80E047
:10247000DF91CF91089585E3F6CF809132028111EB
:1024800004C089E20E94901CF0CF85E3FBCF81E07D
:10249000EFCF90933802809337020895E09137028E
:1024A000F0913802309721F00190F081E02D0994ED
:1024B00080E00895E0913702F0913802309799F06A
:1024C00020912B01222359F020915B0327FF07C0A5
:1024D000DC012C9111962C93119725E02C9302800E
:1024E000F381E02D09940895E0913702F0913802CC
:1024F000309739F022E0DC012C930480F581E02D47
:102500000994089520913502309136022817390731
:1025100071F09093360280933502E0913702F0918A
:102520003802309721F00680F781E02D0994089554
:1025300020913302309134022817390771F09093BB
:10254000340280933302E0913702F09138023097E1
:1025500021F00084F185E02D0994089585B7806805
:1025600085BF85B7806885BF0895089508950C9448
:10257000B51208950C94B9120E94AE120E94B612C0
:102580000C94B71281E008950C94C2120895089536
:102590000E945B1F0E9405060E9412200E94A50E49
:1025A0000E942C0D0C94BA129F92AF92BF92CF92C0
:1025B000DF92EF92FF920F931F93CF93DF93CDB7EC
:1025C000DEB72A970FB6F894DEBF0FBECDBF0E94CC
:1025D000C6120E94C7120E9453060E94C41288238A
:1025E00009F474C05AE3A52E52E0B52E10E000E0C5
:1025F000902E802F0E94E0056C01F501E190F19092
:102600005F01E816F90609F45BC08091DC0281FDE8
:102610000E94E90597012C253D2580E0EE24E394F6
:10262000F12CA9014E215F21452B09F443C08E8373
:102630009F82CE20DF2081E0CD2809F480E08887CA
:102640000E94641F8160782F9A8789874E815F81FD
:1026500068858A850E948913000F111FF801E65CC6
:10266000FD4F80819181E826F926F182E0820E9467
:10267000700D0E9401100E94C0220E944E12909183
:1026800039028917A1F10E944E12809339022A96CD
:102690000FB6F894DEBF0FBECDBFDF91CF911F9173
:1026A0000F91FF90EF90DF90CF90BF90AF909F90F1
:1026B0000C94C3038F5FEE0CFF1C8F3009F0B1CF79
:1026C0000F5F1F4F0530110509F092CF8FEF8983FF
:1026D0008A831B820E94641F8160782F9D838C8374
:1026E00049815A816B818D810E948913C0CF2A96BE
:1026F0000FB6F894DEBF0FBECDBFDF91CF911F9113
:102700000F91FF90EF90DF90CF90BF90AF909F9090
:102710000895CF93DF93CDB7DEB72B970FB6F8941C
:10272000DEBF0FBECDBF4F83588769877A878B87FF
:102730001E821D8285E0FE013796DE011196019012
:102740000D928A95E1F749815A816B817C818D8157
:102750009E812B960FB6F894DEBF0FBECDBFDF91E2
:10276000CF910C94A519FC01808191810C945B1C84
:10277000CF93C82F882309F48BC08238C1F40E94FC
:102780004E1281FD85C089E30E94891C0E94FA1CBB
:102790002FEF81EE94E0215080409040E1F700C09F
:1027A000000089E30E94901CCF910C94FA1C83389E
:1027B000A1F40E944E1280FD6BC083E50E94891C2B
:1027C0000E94FA1C2FEF81EE94E02150804090404F
:1027D000E1F700C0000083E5E5CF8438A1F40E9452
:1027E0004E1282FD55C087E40E94891C0E94FA1C8B
:1027F0002FEF81EE94E0215080409040E1F700C03F
:10280000000087E4CFCF8CEF8C0F813A90F46C2FCF
:1028100080911701909118010E942F1E882329F0A2
:102820008C2F0E94901C0E94FA1C8C2F0E94891CE5
:10283000BBCF80E28C0F883048F4C77081E001C0C4
:10284000880FCA95EAF70E94B11CAECFEBE5EC0FFA
:10285000E33040F4F0E0E653FE4F808190E0CF910A
:102860000C948212E8E5EC0FE73150F4F0E0EE0F43
:10287000FF1FE456FE4F80819181CF910C949812F6
:10288000C03F30F08C2F0E94BA21CF910C94A5222A
:10289000CF910895882309F452C0823871F40E94C0
:1028A0004E1281FF4CC089E30E94891C0E94FA1CD1
:1028B00089E30E94901C0C94FA1C833859F40E94FE
:1028C0004E1280FF3CC083E50E94891C0E94FA1CC6
:1028D00083E5EFCF843859F40E944E1282FF2FC057
:1028E00087E40E94891C0E94FA1C87E4E2CF9CEFD7
:1028F000980F913AF0F290E2980F983050F4877068
:1029000091E001C0990F8A95EAF7892F0E94B71CC0
:10291000D2CF9BE5980F933020F490E080E00C94A8
:10292000821298E5980F973120F490E080E00C94A3
:102930009812803F20F00E9422220C94A522089534
:10294000CF93C82F0E94B813C93349F42FEF87EEF5
:1029500093E0215080409040E1F700C000008C2FB0
:10296000CF910C944A14882321F00E94B11C0C943E
:10297000FA1C0895882321F00E94B71C0C94FA1CBD
:102980000895BF92CF92DF92EF92FF920F931F9321
:10299000CF93DF936C01D62FC72FFC0105810295E1
:1029A0000F70128111110E94CE1C0E94A71CE82EEC
:1029B000882391F01123D1F08C2F807F803421F077
:1029C00080E28D0F883090F082E00E94451D0E94C9
:1029D000A71C91E0E82EE926BC2EB2949FE0B92214
:1029E000EB2DF0E0EA5EF34D0C94F92AE12CF4CFE4
:1029F0000C2F0F70C07F11F00295007F1123A9F0FA
:102A0000002359F080E28D0F883010F0D11109C0F9
:102A1000802F0E94B11C0E94FA1C8D2F0E94B813B7
:102A200014C0802F0E94C11CF6CF8D2F0E944A1423
:102A3000002359F080E28D0F883010F0D1112CC0A6
:102A4000802F0E94B71C0E94FA1C2B2D2850330B9C
:102A50002430310520F40E944E120E94C303EE2060
:102A600009F49EC10E94A31C80FD9AC1F601128246
:102A70000E949D1C0E94291BC6010E94F1160E9403
:102A80009D1CDF91CF911F910F91FF90EF90DF90F0
:102A9000CF90BF900C944A1B802F0E94C71CD3CFAD
:102AA000FC2FFF70FF2EC07FC03219F0F29480EF30
:102AB000F822DD2369F0D13049F1112391F100238F
:102AC00051F1F601858180FFA8CF8F70858323C0E7
:102AD000112381F0011106C00E94E11C8F290E9480
:102AE000B314B3CF0130C1F70E94E11C8F290E94BB
:102AF000E71CABCF011106C00E94F01C8F2D0E9475
:102B0000BA14A3CF013009F4A0CFF6CF112329F0D6
:102B1000063008F09ACF8F2DE2CF053008F095CF20
:102B2000EDCF002359F3D93349F4FFEF27EE33E01B
:102B3000F15020403040E1F700C000008D2F0E948E
:102B40004A1483CF8C2F86958695837069F08130E7
:102B500009F07BCF8D2F9C2F9370111102C090E054
:102B600080E00E94981271CF8D2F9C2F93701111CD
:102B700002C090E080E00E94821267CF8D2F112367
:102B800029F00E94BA210E94A5225FCF0E94222232
:102B9000FACF8C2F837009F041C0111156CF4D2F01
:102BA000429546954770440F440F0D2F0F7010E06B
:102BB00030E020E0042E04C0000F111F221F331F3D
:102BC0000A94D2F760E070E0CB01D4FF0FC06FE051
:102BD00070E080E090E004C0660F771F881F991FA7
:102BE0004A95D2F76095709580959095C695C69553
:102BF000C370602B712B822B932BC23049F058F499
:102C0000C13019F00E94DB1A20CF0E94C91A1DCFD3
:102C10000E94ED1A1ACF0E94C71A17CF869511236A
:102C200011F08C2F8170882309F40FCF4D2F42951E
:102C300046954770440F440F0D2F0F7010E030E0A1
:102C400020E0042E04C0000F111F221F331F0A941E
:102C5000D2F760E070E0CB01D4FF0FC06FE070E00E
:102C600080E090E004C0660F771F881F991F4A9587
:102C7000D2F76095709580959095C695C695C3706E
:102C8000602B712B822B932BC23049F058F4C1304A
:102C900019F00E94A01BD9CE0E948E1BD6CE0E9496
:102CA000B21BD3CE0E94031BD0CECF70112329F0CC
:102CB0008C2F0E94291B8D2F12CF8D2F0E94BA14AA
:102CC0008C2F0E944A1BC1CED23F89F160F4D03FC5
:102CD000C9F0D13F29F1112309F442C001119DCE61
:102CE0008C2F8F7121C0D33F39F1D43FA1F711232D
:102CF00069F1CF718C2F0E94291B63E08C2F0E94F9
:102D0000301DA3CE112341F0053008F09ECE8C2F4C
:102D10008F710E946D1B99CE063008F096CEF7CFCA
:102D20008C2F8F71112369F20E94291B8ECE8C2F5C
:102D30008F711123C9F3C5CF112329F08C2F8F7107
:102D40000E94141B82CE0E940F1B7FCE81E00E9446
:102D5000451D023008F479CE82E00E94451D75CEF3
:102D6000002359F0D93309F0E9CE8FEF97EEE3E075
:102D700081509040E040E1F7DFCE8C2F8F71A1CFE2
:102D80004C2F4F706D2FC6010E94CB030E943F1A3B
:102D90005CCE4C2F4F706D2FC6010E94CE0355CED6
:102DA000DF91CF911F910F91FF90EF90DF90CF9027
:102DB000BF9008950F931F93CF93DF93EC01688129
:102DC00079818A810E94651C8C010E94C41B0E942B
:102DD000C61AB801CE01DF91CF911F910F910C94CB
:102DE000C114CF93DF93EC018B819C81892B29F057
:102DF0008881998189238F3F59F4DF91CF9108957C
:102E0000CE010E94DA16CE01DF91CF910C943D03E2
:102E1000CE010E9466038111F3CF0E94A71C882374
:102E200061F38A81882349F382E0DF91CF910C948A
:102E3000451D0E94CE1C0E94DE1C0E94FA1C0E94AE
:102E4000CC230E94A52290E080E00E94821290E0B4
:102E500080E00C9498120E94971C0C9419170E9401
:102E6000BE1C0C942B17E92FE295EF70E250EE3068
:102E700070F4F0E0EA5DF34D0C94F92A803F19F00C
:102E800020F4883E20F481E00895843FE1F380E05F
:102E90000895883EC0F3813FD1F7F5CF93FB882793
:102EA00080F908950E945B1C0C943317CF93DF9335
:102EB00000D000D00F92CDB7DEB70F900F900F90DB
:102EC0000F900F90DF91CF910895CF93DF9300D0B3
:102ED00000D000D0CDB7DEB726960FB6F894DEBF8F
:102EE0000FBECDBFDF91CF9108951F93CF93DF9396
:102EF000C091450216E0809146028C1304C0DF9118
:102F0000CF911F910895D0E01C9FF0011D9FF00DFF
:102F10001124E95BFD4F408151816281738184817D
:102F200095810E9465172196C770E5CF4091770281
:102F3000509178026091790270917A0280917B02BF
:102F400090917C020C9465171F93CF93DF9380912F
:102F50007C02807FA9F480917902882389F0809196
:102F60004502C09146026091770270917802A0916B
:102F70007A02B0917B02D62FD72316E0C81304C083
:102F8000DF91CF911F91089590E0109711F0DF3FEE
:102F900019F401968770F2CF189F9001199F300D98
:102FA0001124F901E95BFD4F41814713F2CF4081C4
:102FB0004613EFCF42814111ECCF438154814A1B2C
:102FC0005B0B483C510528F780917C028F70806133
:102FD00080937C02F901E45BFD4F80818F708061FA
:102FE000808387E792E00E94F116DF91CF911F91D5
:102FF0000C947517AF92BF92CF92DF92EF92FF922F
:103000000F931F93CF93DF93CDB7DEB761970FB6C2
:10301000F894DEBF0FBECDBF8C0185E0F801DE0164
:103020001D9601900D928A95E1F7F801408151813A
:10303000E28087E7C82E82E0D82E60917A027091F4
:103040007B026115710509F461C1909177022091AD
:103050007802892F82238F3F09F458C1A380B4805E
:10306000F0907902F501E61BF70BFF2009F4FCC094
:1030700080917C02382F307FE83CF10508F0B2C027
:10308000311179C0FE2C251323C0941321C0E11007
:103090001FC08F70806180937C020E949617C601CA
:1030A0000E94F11680917C02F80185838F2D619634
:1030B0000FB6F894DEBF0FBECDBFDF91CF911F9149
:1030C0000F91FF90EF90DF90CF90BF90AF90089559
:1030D000AB2829F0842F85238F3F09F033C180E08E
:1030E000F82FF170DF2E80FF3CC0809145022091C7
:1030F000460236E0821315C04D875E878D859E851A
:103100000E945B1C292F22952F702230F0F0243072
:1031100018F59F70F1F0F8019581907FD1F4D12CD2
:103120001EC090E0389FF001399FF00D1124E95B3B
:10313000FD4F6181651306C06081641303C0628125
:103140006E110FC001968770D5CF9F7011F0882344
:1031500031F3805E883018F3C8010E94F116FD2C0F
:10316000A5CFEE2009F4A2CF80917C0281608093EC
:103170007C02F12C9BCF251306C0941304C0F801E8
:10318000EE2009F48DC04D875E878D859E850E9457
:103190005217882319F1EE2009F180917C028032C8
:1031A00070F0209177023091780238872F8319864A
:1031B000BB86AA868C87CE0107960E94F11686E010
:1031C000F801A7E7B2E001900D928A95E1F70E941D
:1031D000A4170E949617FF24F39468CFC8010E9499
:1031E000F116F9CF311113C07A2DB98AA88A6E2D44
:1031F00089890E94561787E792E00E94F11686E0BF
:10320000F60111928A95E9F70E949617B2CF25131D
:103210000FC094130DC0E1100BC0F8018583C801E5
:103220000E94F11686E0F60111928A95E9F73ECFE9
:103230004D875E878D859E850E945217882371F287
:10324000EE2061F280917C02803208F4B8CF2091A8
:103250007702309178023A8329831B82BD82AC8247
:103260008E83CE010196A9CFE83CF10508F041C05C
:10327000FE2CEE2009F4B2CF25132AC0941328C0E7
:1032800080917C0280FD1BC0982F907FC1F0F801D7
:103290008583903F31F0982F907F905F8F70892BBE
:1032A0008583C8010E94F11686E0F801A7E7B2E025
:1032B00001900D928A95E1F70E949617F7CE86E06D
:1032C000F801A7E7B2E001900D928A95E1F7EECE02
:1032D0004D875E878D859E850E94521781116FCF25
:1032E00080917C02816080937C02C8010E94F1166B
:1032F000DDCE7A2DB98AA88A6E2D89890E9456174B
:1033000086E0F60111928A95E9F7D6CFEE2009F40E
:1033100065CF4D875E878D859E850E945217F82E5A
:10332000882309F45BCF86E0F801A7E7B2E00190BB
:103330000D928A95E1F787E792E00E94B3130E940D
:10334000A417BACF81E08E25CBCE1F93CF93DF9306
:10335000CDB7DEB72C970FB6F894DEBF0FBECDBF4A
:103360004F83588769877A878B879C87CE0107961A
:103370000E94FA17882369F08A859B85892B39F08A
:103380004F815885842F85238F3F09F071C016E047
:103390005FC086E0FE013796DE01119601900D9226
:1033A0008A95E1F78A859B85892B89F38F8198859A
:1033B00089238F3F61F32091460230E0C9010196D5
:1033C00087709927409145024817190671F40E94A9
:1033D0002F17109246021092450286E0E7E7F2E0CE
:1033E000DF011D928A95E9F7D2CF96E0929FD00136
:1033F000939FB00D1124A95BBD4FFE013196019042
:103400000D929A95E1F7809346020E947517BFCFFF
:10341000819FC0011124895B9D4F0E94FA17882368
:10342000E9F0E09145021E9FF0011124E95BFD4F98
:103430004081518162817381848195810E946517E9
:103440008091450290E0019687709927809345020C
:1034500080914502909146028913DACF2C960FB6DF
:10346000F894DEBF0FBECDBFDF91CF911F910895BD
:1034700069857A858B859C850E94651788CFEF9238
:10348000FF920F931F93CF93DF938C01892B81F0D1
:10349000F12CEE24E394E8012196F801849184371D
:1034A00070F4843008F05FC08130B1F08230A1F157
:1034B000DF91CF911F910F91FF90EF900895853785
:1034C00009F44CC008F43DC09CE7980F903780F792
:1034D0008F770E944A1449C00E5F1F4FFE018491EE
:1034E00090E2980F983060F48770FE2D01C0FF0FB6
:1034F0008A95EAF78F2F0E94D11C0E94FA1C02C005
:103500000E94B8138F2D815030F2EFE9FFE0319720
:10351000F1F700C00000F7CF0E5F1F4FFE0184914E
:1035200090E2980F983050F48770FE2D01C0FF0F85
:103530008A95EAF78F2F0E94D71CDFCF0E944A148A
:10354000E1CF0E5F1F4FFE01C491C150D8F28FE949
:103550009FE00197F1F700C00000F7CF0E5F1F4F0B
:10356000FE01F490CFCF0E94B8138E01CBCF089507
:103570000C94B71A0E94B81A6093B3027093B40205
:103580008093B5029093B6020C94191708950C9489
:10359000BA1A0F931F930091B3021091B4022091B5
:1035A000B5023091B602602B712B822B932B1F91A9
:1035B0000F910C94BA1A0F931F930091B3021091BC
:1035C000B4022091B5023091B602602371238223A8
:1035D00093231F910F910C94BA1A0F931F9300918C
:1035E000B3021091B4022091B5023091B602602767
:1035F0007127822793271F910F910C94BA1A0C946C
:10360000B71A0C94FF1A0E94011B6093AF027093CB
:10361000B0028093B1029093B2020C94191760E04B
:1036200070E0CB010C94031B0F931F9341E050E01B
:1036300060E070E08A019B0104C0000F111F221F8F
:10364000331F8A95D2F7C901B8011F910F910C94CD
:10365000031B0F931F9341E050E060E070E004C053
:10366000440F551F661F771F8A95D2F78091AF02CE
:103670009091B002A091B102B091B2028A019B0177
:10368000082B192B2A2B3B2BC901B8011F910F9135
:103690000C94031B0F931F9341E050E060E070E037
:1036A00004C0440F551F661F771F8A95D2F7CB01C0
:1036B000BA0160957095809590950091AF02109138
:1036C000B0022091B1023091B202602371238223B3
:1036D00093231F910F910C94031B0F931F9341E0B1
:1036E00050E060E070E004C0440F551F661F771F74
:1036F0008A95D2F78091AF029091B002A091B10269
:10370000B091B2028A019B01082719272A273B277B
:10371000C901B8011F910F910C94031B0F931F93C4
:103720000091AF021091B0022091B1023091B2022B
:10373000602B712B822B932B1F910F910C94031BE9
:103740000F931F930091AF021091B0022091B1022C
:103750003091B20260237123822393231F910F9132
:103760000C94031B0F931F930091AF021091B002B2
:103770002091B1023091B2026027712782279327EE
:103780001F910F910C94031B08952FE0929F800DC1
:103790001124982F977041E001C0440F9A95EAF7E1
:1037A00086958695869595E0899FF0011124E358CA
:1037B000FD4F90E080E070E05191DF0111979B0197
:1037C000082E02C0369527950A94E2F721702195BC
:1037D0002527242325272C9301968530910561F711
:1037E00008952FE0929F800D1124982F9770869551
:1037F0008695869525E0829FF0011124E358FD4FC0
:1038000050E040E080E0219130E0092E02C0369582
:1038100027950A94E2F721703327042E01C0220F66
:103820000A94EAF7822B4F5F5F4F4530510559F7F5
:103830000895BF92CF92DF92EF92FF920F931F9362
:10384000CF93DF938C01C090AF02D090B002E09094
:10385000B102F090B2028091B3029091B402A091B3
:10386000B502B091B602C82AD92AEA2AFB2ACFE1CA
:10387000D0E0BC2ED701C6010C2E04C0B695A7958A
:10388000979587950A94D2F780FD0EC0219788F707
:10389000B12C8B2DDF91CF911F910F91FF90EF9065
:1038A000DF90CF90BF900895B8018C2F0E94EB035A
:1038B000019761F3EECFCF93DF93EC010E94191CC7
:1038C000BE01DF91CF910C94EB031F93CF93DF9355
:1038D000EB0190914402992331F0CB01DF91CF911C
:1038E0001F910C945B1C882379F0CB010E94191C5A
:1038F000182F682FCE010E94C51BBE01812FDF91BA
:10390000CF911F910C94EB03CB010E94F11B182F58
:10391000F4CF682F80911701909118010C94AF1E7D
:10392000682F80911701909118010C94BA1E809114
:103930001701909118010C94C51E8091B7028595CE
:103940008595859508958091B70287700895909127
:10395000B702977081E009F480E008958091DB025E
:1039600008959091DB02892B8093DB020895809566
:103970009091DB0298239093DB0208951092DB0272
:1039800008959091DA02892B8093DA020895809548
:103990009091DA0298239093DA0208951092DA0255
:1039A00008959091D902892B8093D902089580952A
:1039B0009091D90298239093D90208951092D90238
:1039C00008958091B802089508950C94E41C909194
:1039D000B802981721F08093B8020C94E51C089562
:1039E0008091B802882329F01092B80280E00C94EC
:1039F000E51C0895E0911701F09118018091DB0218
:103A00008083E0911701F091180180819091DA0292
:103A1000892B8083E0911701F091180180819091AA
:103A2000D902892B80839091B802992381F0E0918B
:103A30001701F09118018081892B808380911701F3
:103A4000909118010E941B1E81110E94F01C809110
:103A50001701909118010C945A1208950C942D1D81
:103A600098E0899F90011124622B6093B7020E9415
:103A7000291B8091B7028595859585950C942E1DFF
:103A80001092B70280E00C942E1D9091B7028095A1
:103A900089238093B702282F277071F4282F082ECE
:103AA000000C330B9217130639F085958595859593
:103AB0000E944A1B0C94401D089590E080E00E94F3
:103AC000A72B21E08C3E9E4F09F020E0822F089525
:103AD00082E090E00C94992B682F82E090E00C94A7
:103AE000AD2B83E090E00C94992B682F83E090E05D
:103AF0000C94AD2BCF9384E090E00E94992BC82FBB
:103B000081E290E00E94992B982F8C2FCF910895FD
:103B1000CF93C92F682F84E090E00E94AD2B6C2FCB
:103B200081E290E0CF910C94AD2B86E090E00C9474
:103B3000992B682F86E090E00C94AD2BAB01BC0173
:103B40008FE090E00C94BF2BAB01BC0183E190E0CF
:103B50000C94BF2B60E070E0CB010C94A41D60E0DE
:103B600070E0CB010E949E1D0C94AA1D6CEE7EEFAE
:103B700090E080E00E94CB2B60E082E090E00E9429
:103B8000AD2B60E083E090E00E94AD2B1092B30279
:103B90001092B4021092B5021092B60260E084E076
:103BA00090E00E94AD2B60E081E290E00E94AD2B9E
:103BB00060E085E090E00E94AD2B60E086E090E060
:103BC0000E94AD2B6FEF87E090E00E94AD2B40E0AC
:103BD00050E0BA0188E090E00E94BF2B60E08DE0E9
:103BE00090E00E94AD2B40E050E0BA0188E190E007
:103BF0000E94BF2B60E087E190E00E94AD2B40E087
:103C000050E0BA018CE190E00E94BF2B60E080E2BE
:103C100090E00E94AD2B40E050E0BA0188E190E0D6
:103C20000E94BF2B0C94AF1D0C94B61D682F8EE024
:103C300090E00C94AD2BFC01329680912B018823EF
:103C400021F080915B039EE187FF96E080E0915038
:103C500008F4089521912223D1F38F5FF8CF6623D2
:103C600001F120912B012223F1F020915B0327FF2A
:103C70001AC0462F4695469546954E3190F467708A
:103C800021E030E002C0220F331F6A95E2F7840F73
:103C9000911DFC01828190E02823392381E0232BB0
:103CA00069F480E00895FC01329608962191261768
:103CB00021F0E817F907D1F7F4CF81E008959C01CE
:103CC000FC0132969FEF80E04191461751F09F3FF3
:103CD00019F4411101C0982F8F5F8630A9F79F3FDB
:103CE00009F40895290F311D97FD3A95F901628372
:103CF0000895FC01329608962191261303C0DF0136
:103D000011971C92E817F907B9F70895E62FE69581
:103D1000E695E695EE3168F4E80FF92FF11D67702E
:103D200021E030E001C0220F6A95EAF78281822B00
:103D300082830895E62FE695E695E695EE3170F4D8
:103D4000E80FF92FF11D677021E030E001C0220F6C
:103D50006A95EAF72095828128232283089520918D
:103D60002B01222329F020915B0327FD0C94861E52
:103D70000C945F1E20912B01222329F020915B03DC
:103D800027FD0C949A1E0C94791EFC0132968091AA
:103D90002B01882351F080915B0387FF06C08EE1E1
:103DA000DF011D928A95E9F7089586E0F9CF08951D
:103DB00008950C94D81E80916103843009F42EC0BC
:103DC0000E94D91E80E00E94A30F80E00E94C303DE
:103DD0000E949B0C1092DD0288E190E020E40FB677
:103DE000F894A895809360000FBE2093600083B77D
:103DF000817F846083BF83B7816083BF7894889517
:103E000083B78E7F83BF0FB6F894A895809160002A
:103E1000886180936000109260000FBE089508953D
:103E2000CF930E94D71E0E9453060E940F1FC0E02E
:103E30008C2F0E94E005892B31F4CF5FC530C1F78C
:103E400080E0CF91089581E0FCCF08950C94251F68
:103E50000E942F170E94A50E0E944E120E94C303BB
:103E60000E94670D0C94261F1F921FB61F921124EB
:103E70008F939F93AF93BF938091DD02811113C005
:103E80008091570390915803A0915903B0915A0320
:103E90004196A11DB11D8093570390935803A093A1
:103EA0005903B0935A03BF91AF919F918F911F9087
:103EB0001FBE1F90189582E084BD93E095BD9AEFD8
:103EC00097BD80936E0008952FB7F89480915703A3
:103ED00090915803A0915903B0915A032FBF0895B0
:103EE0009C014FB7F8948091570390915803A0918B
:103EF0005903B0915A034FBF821B930B08957894D6
:103F00001F921FB61F9211248F939F93AF93BF935D
:103F10008091570390915803A0915903B0915A038F
:103F20000196A11DB11D8093570390935803A09350
:103F30005903B0935A03BF91AF919F918F911F90F6
:103F40001FBE1F90189581E08093E00080E280936F
:103F5000D8001092C9008FE19EE40197F1F700C0EC
:103F6000000087E090EBDC0180936A0390936B0381
:103F7000A0936C03B0936D0388E19CE00FB6F894B6
:103F8000A895809360000FBE90936000FFCFAF9222
:103F9000BF92CF92DF92EF92FF920F931F93CF9336
:103FA000C0E0CC24C394D12CE82EF12C8C2F0E949D
:103FB000E0055C0110E000E0C601002E02C0880FA1
:103FC000991F0A94E2F78A219B21892B99F40F5FAC
:103FD0001F4F0F30110581F7CF5FC53039F780E0F3
:103FE000CF911F910F91FF90EF90DF90CF90BF90F6
:103FF000AF900895602F7C2F80E00E94CF03E816D9
:10400000F90629F781E0ECCFCF93C82F8CE20E940C
:10401000C71F882321F08C2FCF910C94C71F80E0FD
:10402000CF910895CF930E945D1D811102C00E941F
:10403000141EC5E608C00E9453068FE39CE9019751
:10404000F1F700C00000C150B1F789E20E940420DE
:1040500081110BC18AE20E94042081110E94141E6A
:1040600085E00E94042081110E94A31F0E94681D08
:104070008093DC0287E00E940420882371F08BE1AA
:104080000E940420882309F4CDC09091DC02892F7E
:104090008D7F91FF82608093DC028091DC020E9420
:1040A0006C1D0E947A1D90935C0380935B0380EEED
:1040B0000E940420882341F090915B03892F8E7F1A
:1040C00090FF816080935B0389E30E940420882332
:1040D00041F090915B03892F8D7F91FF82608093E7
:1040E0005B0382EE0E940420882341F090915B03E1
:1040F000892F8B7F92FF846080935B0386EE0E9402
:104100000420882341F090915B03892F877F93FFE0
:10411000886080935B0383EE0E940420882341F033
:1041200090915B03892F8F7E94FF806180935B0366
:1041300085E30E940420882341F090915B03892F3E
:104140008F7D95FF806280935B0381E30E94042052
:10415000882341F090915B03892F8F7B96FF8064C9
:1041600080935B0381E10E940420882341F09091B9
:104170005B03892F97FB87F9805880935B038091BD
:104180005B0390915C030E94881D87E20E940420DB
:10419000C82F8EE10E9404208111C2608FE10E942D
:1041A00004208111C46080E20E9404208111C86053
:1041B00081E20E9404208111C06182E20E940420F9
:1041C0008111C06283E20E9404208111C06484E2F4
:1041D0000E940420882309F442C0C0688C2F0E94EA
:1041E000751D6C2F70E090E080E00E94C71A60910E
:1041F000AF027091B0028091B1029091B2020E9420
:10420000011B8FE00E940420882319F081E00E94A6
:10421000161E85E10E940420882339F180E0CF91A9
:104220000C94161E8EE00E940420882339F0909191
:10423000DC02892F8B7F92FF84602DCF80E10E946A
:1042400004209091DC02882329F0892F877F93FF37
:10425000886021CF892F8E7F90FF81601CCFC11194
:10426000BDCF0E94711D682FBDCFCF910895809161
:10427000E40280FF12C060911E0185E0689FB001DA
:104280001124759567957595679560387105A8F542
:1042900061157105A1F1862F089581FF09C0609114
:1042A0001E0185E0689FB001112475956795EDCFDB
:1042B00060911E0182FD0AC08091E3028823D1F043
:1042C00090911D0160911E01891728F085E0689F7B
:1042D000B0011124DACF869FB001112485E0869FBA
:1042E0009001879F300D1124692F70E0C9010E9451
:1042F000C32ACBCF65E070E0CECF8FE7089581E091
:1043000008958091E40280FF0CC060911A0170E072
:1043100075956795759567956115710549F1862FB6
:10432000089581FF06C060911A0170E07595679548
:10433000F3CF60911A0182FD0BC09091E2029923A4
:10434000A1F06091190180911A01961738F0682F39
:1043500070E06038710500F38FE70895899FC00110
:10436000112470E00E94C32AF4CF61E070E0D7CF3F
:1043700081E00895803F31F40E9437218195809338
:10438000E8020895813F19F40E943721F8CF823F57
:1043900031F40E94372181958093E7020895833F8D
:1043A00019F40E943721F8CF893F29F40E94812116
:1043B0008093E90208958A3F21F40E94812181952A
:1043C000F7CF8B3F31F40E94812181958093EA02DF
:1043D00008958C3F19F40E948121F8CF843F31F475
:1043E0008091E60281608093E6020895853F21F482
:1043F0008091E6028260F7CF863F21F48091E60249
:104400008460F1CF873F21F48091E6028860EBCF92
:10441000883F21F48091E6028061E5CF8D3F31F441
:104420008091E40281608093E40208958E3F21F43C
:104430008091E4028260F7CF8F3FB9F78091E40268
:104440008460F1CF9091E702803F59F48091E802B7
:1044500087FF0DC01092E80291110BC01092E30289
:1044600008C0813F81F48091E80218169CF39923DB
:1044700081F08091E9029091EA02892B09F064C0F1
:104480001092E2020895823F49F497FFF0CF109214
:10449000E7028091E8028111ECCFE0CF833F19F46D
:1044A0001916ACF3E4CF2091E902893F29F41216E2
:1044B000F4F61092E902DBCF8A3F19F427FFD7CF39
:1044C000F8CF2091EA028B3F29F427FFD0CF10923A
:1044D000EA02CDCF8C3F19F41216CCF3C8CF843F3B
:1044E00031F48091E6028E7F8093E602C0CF853F53
:1044F00021F48091E6028D7FF7CF863F21F48091F1
:10450000E6028B7FF1CF873F21F48091E602877F1F
:10451000EBCF883F21F48091E6028F7EE5CF8D3F7F
:1045200031F48091E4028E7F8093E402A0CF8E3F2D
:1045300021F48091E4028D7FF7CF8F3F09F097CF70
:104540008091E4028B7FF0CF08950E94641F9C014C
:104550009091E7028091E802982B21F03093E102DC
:104560002093E0029091E9028091EA02982B21F0D9
:104570003093DF022093DE0285EE92E00C947412F9
:10458000EF92FF920F931F93CF93DF9300D000D051
:1045900000D0CDB7DEB786E0E5EEF2E0DE011196A1
:1045A00001900D928A95E1F7E090E702F090E80221
:1045B0000091E9021091EA021092E7021092E802DB
:1045C0001092E9021092EA028E2D8F2991F08091CB
:1045D000E0029091E1020E94701FAC019091E30211
:1045E000992309F43FC080911F018417150608F430
:1045F00047C0802F812B91F08091DE029091DF02E5
:104600000E94701FAC019091E202992309F477C0D7
:1046100080911B018417150608F47FC08091E70282
:104620009091E802892B9091E902892B9091EA02FE
:10463000892B11F00E94A52286E0FE013196A5EE9D
:10464000B2E001900D928A95E1F726960FB6F894A4
:10465000DEBF0FBECDBFDF91CF911F910F91FF90B5
:10466000EF900895209120018AE0289F9001112465
:104670002417350708F0BDCF9F5F9093E30202C077
:104680009F3FD1F7EE2059F00E9437219FEF1E1473
:104690000CF491E0899F802D11248093E702FF2084
:1046A00059F00E9437219FEF1F140CF491E0899F6D
:1046B000802D11248093E8023091E702332309F41E
:1046C00098CF2091E802222309F493CF45EB3403DD
:1046D000C0011124992359F09093E70245EB24037C
:1046E00090011124332339F03093E80282CF81E026
:1046F0008093E702F3CF81E08093E8027ACF2091A4
:104700001C018AE0289F900111242417350708F026
:1047100085CF9F5F9093E20202C09F3FD1F70023B5
:1047200059F00E9481219FEF10160CF491E0899FAF
:10473000802D11248093E902112359F00E948121D8
:104740009FEF11160CF491E0899F802D1124809326
:10475000EA023091E902332309F460CF2091EA02A2
:10476000222309F45BCF45EB3403C00111249923C4
:1047700059F09093E90245EB24039001112433236F
:1047800039F03093EA024ACF81E08093E902F3CF17
:1047900081E08093EA0242CF86E0E5EEF2E0DF01BD
:1047A0001D928A95E9F71092E3021092E2021092AC
:1047B000E402089580910B030895CF93DF9300D016
:1047C0000F92CDB7DEB790916103943019F58983CC
:1047D0007B836A8382E08093E9008FEF9091E80009
:1047E000815095FD06C095ED9A95F1F70000811175
:1047F000F5CF8091E80085FF0DC050E040E063E018
:1048000070E0CE0101960E9402268091E8008E772A
:104810008093E8000F900F900F90DF91CF91089553
:10482000BC0184E00C94DD23BC0183E00C94DD2307
:104830009C0182E08093E9009FEF8091E800915015
:1048400085FD06C085ED8A95F1F700009111F5CF41
:104850008091E80085FF0CC050E040E066E070E029
:10486000C9010E9402268091E8008E778093E800BB
:104870000895CF93DF93EC0180912B018823B1F150
:1048800080915B0387FF32C060E282E08093E900A1
:104890008FEF9091E800815095FD06C095ED9A95B7
:1048A000F1F700008111F5CF8091E80085FF1BC072
:1048B00080912B0170E050E040E0811104C050E095
:1048C00040E068E070E0CE010E9402268091E8009E
:1048D0008E778093E80080E2FE01ABEEB2E00190BB
:1048E0000D928A95E1F7DF91CF91089568E081E01C
:1048F000CDCF80916003811109C00E9492270E9450
:10490000EF278091E20084608093E2000895109286
:1049100060030895089508950C94281F42E061EC07
:1049200081E00E940E2742E261EC82E00C940E27A7
:1049300080916303833009F45FC030F48130C1F1AA
:10494000823009F49BC008958A3009F487C08B3007
:1049500009F46DC0893009F04EC080916203813244
:1049600009F049C08091660390916703029708F0AF
:1049700042C08091E800877F8093E8008091E80042
:1049800082FF35C09091F3008091F200029729F4E4
:104990008091F1008B7F813021F48091F100809330
:1049A0000B038091E8008B778093E8000C944227FA
:1049B00080916203813AF9F48091E800877F8093C7
:1049C000E8008091660390916703892B61F460E2AF
:1049D0008BEE92E070E00E9451268091E8008B7788
:1049E0008093E800089560E090E080E0F3CF80914C
:1049F00061038111C3CF089580916203813AD9F791
:104A00008091660390916703892BA9F78091E80054
:104A1000877F8093E8008091E80080FFFCCF809141
:104A20002B018093F1008091E8008E77BDCF8091BB
:104A30006203813201F78091660390916703892BAD
:104A4000D1F68091E800877F8093E8000E9442279A
:104A50008091640380932B010C942F178091620343
:104A6000813249F68091E800877F8093E8000E94B8
:104A700042278091650380930C030895809162031F
:104A8000813A09F0B8CF8091E800877F8093E800F1
:104A90008091E80080FFFCCF80910C03C2CF84B7E7
:104AA000877F84BF0FB6F894A895809160008861D5
:104AB00080936000109260000FBE80E890E00FB617
:104AC000F89480936100909361000FBE0E94BC1225
:104AD0000E9492270E94EF278091E20084608093D9
:104AE000E20078940E94782A0E94C81281E291E044
:104AF0000E94491280916103853039F00E94D412DE
:104B00000E94C6120E94C712F5CF0E94DB1E809140
:104B10005F03882379F30E94101F882359F30E94B2
:104B2000EC25E8CF0C949425292F33272330310529
:104B300019F168F42130310509F444C022303105FF
:104B400009F445C090E080E030E020E025C021324B
:104B5000310549F122323105A9F780E490E02DE1D9
:104B600035E061157105C1F08CEB90E021E634E091
:104B70006130710589F0E6CF99278130910581F088
:104B8000009729F00297F1F6E2EFF3E002C0E0E1CE
:104B9000F4E0849190E09F01FA013183208308952D
:104BA000EEEFF3E0F6CF89E090E026E234E0611525
:104BB000710591F389E090E02FE334E061307105F5
:104BC00059F3C0CF82E190E02FE434E0E5CF8BE3EE
:104BD00090E024E134E0E0CF80E189BD82E189BD4D
:104BE00009B400FEFDCF8091D8008F7D8093D8005E
:104BF0008091E00082608093E0008091E00081FD80
:104C0000FCCF0895AF92BF92CF92DF92FF920F93A5
:104C10001F93CF93DF936C01EB018A010E94612700
:104C2000F82E811123C00115110539F0F80180819A
:104C30009181C81BD90BC80ED91EB12CA12C20976D
:104C4000A9F08091E80085FD22C08091E8008E7770
:104C50008093E80001151105A1F0F8018081918190
:104C6000A80EB91EB182A08285E0F82E8F2DDF91AB
:104C7000CF911F910F91FF90DF90CF90BF90AF9099
:104C800008950E9461278823D1F2F82EEFCFF60114
:104C900081916F018093F1002197FFEFAF1ABF0A56
:104CA000CECFFC0180916803909169038617970726
:104CB000A0F06115710529F49091E8009E7790931A
:104CC000E80090E06115710551F4911108C08091E0
:104CD000E80082FF34C080E00895BC01F2CF8091EB
:104CE00061038823C1F18530C1F18091E80083FD23
:104CF00030C08091E80082FDEACF8091E80080FF1B
:104D0000E1CF8091F3002091F200382F61157105F9
:104D100019F02830310558F091E02830310509F0BC
:104D200090E02091E8002E772093E800CBCF81918E
:104D30008093F100615071092F5F3F4FE7CF809161
:104D40006103882341F0853041F08091E80083FFC2
:104D5000BECF81E0089582E0089583E00895FC01CC
:104D6000809168039091690386179707A0F06115F9
:104D7000710529F48091E8008E778093E80090E037
:104D80006115710551F4911108C08091E80082FF0E
:104D900035C080E00895BC01F2CF80916103882383
:104DA000C9F18530C9F18091E80083FD31C080915F
:104DB000E80082FDEACF8091E80080FFE1CF80919A
:104DC000F3002091F200382F6115710519F0283099
:104DD000310558F091E02830310509F090E08091DC
:104DE000E8008E778093E800CBCF84918093F10028
:104DF0003196615071092F5F3F4FE6CF809161037B
:104E0000882341F0853041F08091E80083FFBDCFD9
:104E100081E0089582E0089583E00895982F973007
:104E200028F08F708093E90081E008959093E90065
:104E3000242F762F50E0981731F07091EC002091DC
:104E4000ED005091F00021FD02C09F5FE8CF30914E
:104E5000EB003E7F3093EB003091ED003D7F3093CF
:104E6000ED003091EB0031603093EB007093EC007B
:104E70002093ED005093F0002091EE0027FDE5CF48
:104E800080E008958091620387FF13C08091E8005D
:104E900082FF06C08091E8008B778093E80004C011
:104EA000809161038111F2CF08958091610388237D
:104EB000D9F38091E80080FFF8CF8091E8008E77E9
:104EC000ECCF2091E4003091E50095E6A901209116
:104ED000EC00822F817020FF06C08091E80080FFE7
:104EE00006C080E008952091E80022FD1AC080915C
:104EF0006103882389F0853089F08091EB0085FD7E
:104F00000FC02091E4003091E50042175307F9F2F9
:104F10009150E1F684E0089582E0089583E00895D9
:104F200081E008950E9400280E940828E0EEF0E049
:104F3000808181608083E8EDF0E080818F778083DD
:104F400019BCA7EDB0E08C918E7F8C9380818F7E11
:104F500080831092600308950F931F93CF93DF9384
:104F60000E9400280E940828C8EDD0E088818F7731
:104F7000888388818068888388818F7D888319BC35
:104F80001092610310925D0310925F0310925E0312
:104F900000EE10E0F80180818B7F80838881816042
:104FA000888342E060E080E00E940E27E1EEF0E0BE
:104FB00080818E7F8083E2EEF0E08081816080835B
:104FC000808188608083F80180818E7F80838881E2
:104FD00080618883DF91CF911F910F910895E8ED53
:104FE000F0E080818F7E8083E7EDF0E0808181605A
:104FF000808384E082BF81E0809360030C94AC27BF
:10500000E8EDF0E080818E7F80831092E2000895C9
:105010001092DA001092E10008951F920F920FB6DD
:105020000F9211242F933F934F935F936F937F932E
:105030008F939F93AF93BF93EF93FF938091E10082
:1050400082FF0BC08091E20082FF07C08091E100E7
:105050008B7F8093E1000E94772A8091DA0080FFA5
:1050600019C08091D80080FF15C08091DA008E7F32
:105070008093DA008091D90080FF96C080E189BDDD
:1050800082E189BD09B400FEFDCF81E08093610318
:105090000E9479248091E10080FF19C08091E20094
:1050A00080FF15C08091E2008E7F8093E2008091A6
:1050B000E20080618093E2008091D800806280935A
:1050C000D80019BC85E0809361030E948B248091F5
:1050D000E10084FF2BC08091E20084FF27C080E1C3
:1050E00089BD82E189BD89B5982F917080FFFBCF82
:1050F0008091D8008F7D8093D8008091E1008F7ED1
:105100008093E1008091E2008F7E8093E2008091A5
:10511000E20081608093E20080915D03882309F4BE
:1051200049C084E0809361030E948C248091E10057
:1051300083FF29C08091E20083FF25C08091E100B8
:10514000877F8093E10082E08093610310925D038A
:105150008091E1008E7F8093E1008091E2008E7F5C
:105160008093E2008091E20080618093E20042E05F
:1051700060E080E00E940E278091F00088608093BC
:10518000F0000E948A24FF91EF91BF91AF919F910F
:105190008F917F916F915F914F913F912F910F90E0
:1051A0000FBE0F901F90189519BC109261030E94BA
:1051B000872470CF8091E30087FD93E09093610393
:1051C000B3CF1F920F920FB60F9211242F933F93DC
:1051D0004F935F936F937F938F939F93AF93BF93FF
:1051E000CF93DF93EF93FF93D091E900DF7080912D
:1051F000EC00C82FC17080FDC0E81092E9008091DA
:10520000F000877F8093F00078940E942529109207
:10521000E9008091F00088608093F000CD2BCF7082
:10522000C093E900FF91EF91DF91CF91BF91AF91D2
:105230009F918F917F916F915F914F913F912F91AE
:105240000F900FBE0F901F9018951F93CF93DF9371
:10525000CDB7DEB7AA970FB6F894DEBF0FBECDBFAD
:1052600082E693E02091F100FC012193CF01F3E06D
:105270008A369F07B9F70E9498248091E80083FF3F
:105280001EC180916203909163039A3008F017C1A8
:10529000E92FF0E0EC5CF34D0C94F92A803899F09A
:1052A000823809F00CC1809166038F70873008F056
:1052B00006C18093E9008091EB0085FB882780F987
:1052C0001092E90006C080915E0390915F039111F6
:1052D00082609091E800977F9093E8008093F100BE
:1052E0001092F1008091E8008E77E5C0882309F4E0
:1052F000D3C0823009F0E3C0809164038111D6C02D
:10530000809166038F702FEF280F263008F0D7C0EA
:105310008093E9002091EB0020FFC8C0933031F466
:105320008091EB0080628093EB00C0C09091EB0015
:1053300090619093EB0021E030E001C0220F8A954C
:10534000EAF72093EA001092EA008091EB0088606F
:10535000EACF8111B4C0109164031F778091E300FC
:105360008078812B8093E3008091E800877F809391
:10537000E8000E9442278091E80080FFFCCF8091E6
:10538000E30080688093E30082E0111183E0809362
:10539000610395C08058823008F091C08091640309
:1053A000909165038C3D23E09207A1F583E08A8309
:1053B0008AE289834FB7F894DE01139620E03EE03D
:1053C00051E2E32FF0E050935700E49120FF03C037
:1053D000E295EF703F5FEF708E2F90E0EA30C0F003
:1053E000C7968D939D932F5F243159F74FBF8091BE
:1053F000E800877F8093E8006AE270E0CE010196C2
:105400000E9451268091E8008B778093E80057C076
:10541000C096E7CF6091660370916703AE014F5F5E
:105420005F4F0E949225BC01892B09F448C09091DE
:10543000E800977F9093E80089819A810E94AF26C7
:10544000E1CF8038E1F58091E800877F8093E80024
:1054500080915D038093F10045CF811130C0909120
:105460006403923060F58091E800877F8093E800C4
:1054700090935D030E94422780915D03882311F081
:1054800084E005C08091E30087FDFACF81E080933E
:1054900061030E948E2413C080916403813079F4EB
:1054A00081E0933009F080E080935F031092E9007F
:1054B0008091E800877F8093E8000E9442278091D6
:1054C000E80083FF0AC08091E800877F8093E800AE
:1054D0008091EB0080628093EB00AA960FB6F8945F
:1054E000DEBF0FBECDBFDF91CF911F91089508950C
:1054F000CF93809161038823A1F0C091E900CF7020
:105500009091EC00892F817090FD80E8C82B10925B
:10551000E9008091E80083FD0E942529CF70C093A7
:10552000E900CF910895DB018F939F930E941D2B7B
:10553000BF91AF91A29F800D911DA39F900DB29F2F
:10554000900D11240895991B79E004C0991F9617B6
:1055500008F0961B881F7A95C9F780950895AA1BB5
:10556000BB1B51E107C0AA1FBB1FA617B70710F04E
:10557000A61BB70B881F991F5A95A9F78095909580
:10558000BC01CD01089597FB072E16F4009407D0B7
:1055900077FD09D00E94AF2A07FC05D03EF4909514
:1055A00081959F4F0895709561957F4F0895A1E271
:1055B0001A2EAA1BBB1BFD010DC0AA1FBB1FEE1F8D
:1055C000FF1FA217B307E407F50720F0A21BB30BD8
:1055D000E40BF50B661F771F881F991F1A9469F754
:1055E00060957095809590959B01AC01BD01CF01B0
:1055F0000895EE0FFF1F0590F491E02D09940E948D
:10560000072B332312F48A1B9B0B0C94182BA29F9D
:10561000B001B39FC001A39F700D811D1124911D86
:10562000B29F700D811D1124911D08950E94072BBA
:10563000B7FF0895821B930B08950E94072BA59F27
:10564000900DB49F900DA49F800D911D112408957D
:10565000B7FF0C941D2B0E941D2B821B930B0895EA
:105660008F929F92AF92BF92CF92DF92EF92FF9272
:10567000CF93DF93EC01688179818A819B816115E9
:1056800071058105910521F464E279ED8BE597E0E0
:105690002DE133EF41E050E00E94E12B49015A0136
:1056A0009B01AC01A7EAB1E40E941D2B6B017C01B8
:1056B000ACEEB4EFA50194010E942B2BDC01CB01D1
:1056C0008C0D9D1DAE1DBF1DB7FF03C00197A10925
:1056D000B04888839983AA83BB839F77DF91CF915A
:1056E000FF90EF90DF90CF90BF90AF909F908F9002
:1056F00008950E94302B089580E091E00E94302BA5
:105700000895B0E0A0E08093000190930101A09380
:105710000201B09303010895FC014150504030F064
:1057200001900616D1F73197CF0108958827992760
:105730000895F999FECF92BD81BDF89A992780B559
:105740000895A6E1B0E044E050E00C94D32BA8E12A
:10575000B0E042E050E00C94D32B262FF999FECF15
:1057600092BD81BDF89A019700B4021639F01FBAB4
:1057700020BD0FB6F894FA9AF99A0FBE08950396D1
:10578000272F0E94AE2B0E94AD2B252F0E94AE2BFF
:10579000242F0C94AE2B0196272F0E94AE2B0C9435
:1057A000AD2BDC01CB01FC01F999FECF06C0F2BDA7
:1057B000E1BDF89A319600B40D9241505040B8F7CF
:1057C0000895052E97FB1EF400940E94F82B57FDB8
:1057D00007D00E94D72A07FC03D04EF40C94F82B74
:1057E00050954095309521953F4F4F4F5F4F08950D
:1057F00090958095709561957F4F8F4F9F4F08953D
:10580000F894FFCF4B0E530E5A0E5F0E640E690EC6
:105810006E0E730E780E7D0E820E870E8B0E900E1E
:10582000930E960E990E9C0E9E0EA10EF814F8146F
:1058300050155015A215BE1525152515C915551657
:1058400064166416C01625152515C9163E173E1791
:105850004717471749174717471747173E173E1768
:105860004E17471747174E174E2976295F2A762974
:0C5870005F2AA929CA295F2A212A2D2AB3
:10587C0001000000010102001000101001191A1B98
:10588C001C1D1E1F202122B9022808641E140A3276
:10589C001EDA23392418241424102401E200E90010
:1058AC00EA00B500B600B700CD008301CC008A0138
:1058BC0092019401210223022402250226022702CE
:1058CC002A02B300B4006F007000818283F0F1C62D
:1058DC006766379431303534979633F490919293C0
:1058EC0095000102020202060606090909090909C6
:1058FC000F0F0F0F0F0F1515151819191919191955
:10590C00191919192324252525252525E200E90037
:10591C00EA00B500B600B700CD008301CC008A01C7
:10592C00920194012102230224022502260227025D
:0E593C002A02B300B4006F0070008182830065
:00000001FF
