:100000000C94AC050C94C12F0C94F3050C94F305DF
:100010000C94F3050C94F3050C94F3050C94F30580
:100020000C94F3050C94F3050C9498280C94542824
:100030000C94E62E0C94F3050C94F3050C94F30544
:100040000C94F3050C94F3050C94F3050C94F30550
:100050000C94F3050C94C22E0C94F3050C94F30548
:100060000C94F3050C94F3050C94F3050C94F30530
:100070000C94F3050C94F3050C94F3050C94F30520
:100080000C94F3050C94F3050C94F3050C94F30510
:100090000C94F3050C94F3050C94F3050C94F30500
:1000A0000C94F3050C94F3050C94F305160033003F
:1000B0000000180033000000040033000000063187
:1000C000FF0974A1010975150026FF009520750828
:1000D00081020976150026FF00952075089102C05F
:1000E00005010980A101850319012AB70015012620
:1000F000B700950175108100C0050C0901A10185AB
:100100000419012AA002150126A00295017510818B
:1001100000C005010906A101050719E029E715003E
:100120002501950875018102950175088101050772
:10013000190029FF150026FF0095067508810005A6
:10014000081901290595057501910295017503911D
:1001500001C07267626C6967687420646973616268
:100160006C65205B4E4F454550524F4D5D3A2072B5
:1001700067626C696768745F636F6E6669672E6536
:100180006E61626C65203D2025750A000001010149
:100190000101010101010202020202020202020344
:1001A0000303030303030304040404040404050514
:1001B00005050506060606060707070707080808D7
:1001C00008090909090A0A0A0B0B0B0C0C0C0D0D86
:1001D0000D0E0E0E0F0F0F1010111111121213131E
:1001E0001414151516161717181819191A1A1B1B97
:1001F0001C1D1D1E1E1F20202122222324242526F3
:1002000026272829292A2B2C2D2D2E2F303132322A
:10021000333435363738393A3B3C3D3E3F40414236
:10022000434445464748494A4C4D4E4F505153541C
:10023000555658595A5B5D5E5F61626465666869D0
:100240006B6C6D6F7072737577787A7B7D7E808250
:10025000838587888A8C8E8F91939596989A9C9E99
:10026000A0A2A3A5A7A9ABADAFB1B3B5B7BABCBEA9
:10027000C0C2C4C6C9CBCDCFD1D4D6D8DBDDDFE276
:10028000E4E7E9EBEEF0F3F5F8FAFDFF7267626C74
:1002900069676874206D6F6465205B4E4F454550FB
:1002A000524F4D5D3A2025750A007267626C69678E
:1002B0006874206D6F6465205B454550524F4D5DFD
:1002C0003A2025750A007267626C69676874206558
:1002D0006E61626C65205B454550524F4D5D3A2022
:1002E0007267626C696768745F636F6E6669672EB8
:1002F000656E61626C65203D2025750A007267623B
:100300006C696768742073657420687376205B4E2F
:100310004F454550524F4D5D3A2025752C25752C83
:1003200025750A007267626C69676874207365746A
:1003300020687376205B454550524F4D5D3A20252D
:10034000752C25752C25750A007267626C696768C3
:1003500074207261696E626F7720736574206873B0
:10036000763A2025642C25642C25642C25750A00FA
:10037000FFAA7F55400102030C0D0E0F0007060572
:10038000040B0A09087267626C69676874207469F3
:100390006D657220656E61626C65642E0A0072671D
:1003A000626C696768742074696D65722064697332
:1003B00061626C652E0A002223252628292A2C2D0D
:1003C0002F3032333536383A3B3D3E404243454785
:1003D000494A4C4E5051535557595A5C5E606264BD
:1003E0006668696B6D6F71737577797B7D7F8183CB
:1003F0008587898A8C8E90929496989A9C9E9FA1CC
:10040000A3A5A7A8AAACAEAFB1B3B4B6B8B9BBBCEC
:10041000BEBFC1C2C3C5C6C7C9CACBCCCDCED0D161
:10042000D2D2D3D4D5D6D7D7D8D9D9DADADBDBDB59
:10043000DCDCDCDCDCDDDDDDDDDCDCDCDCDCDBDBFA
:10044000DBDADAD9D9D8D7D7D6D5D4D3D2D2D1D04E
:10045000CECDCCCBCAC9C7C6C5C3C2C1BFBEBCBB4B
:10046000B9B8B6B4B3B1AFAEACAAA8A7A5A3A19FC3
:100470009E9C9A98969492908E8C8A898785838187
:100480007F7D7B79777573716F6D6B696866646268
:10049000605E5C5A5957555351504E4C4A49474536
:1004A0004342403E3D3B3A3836353332302F2D2CD7
:1004B0002A2928262523226261636B6C6967687488
:1004C00020656E61626C650A006261636B6C6967CE
:1004D00068742064656372656173653A2025750AE6
:1004E000006261636B6C6967687420696E63726532
:1004F0006173653A2025750A006261636B6C6967F8
:1005000068742064697361626C650A006261636B80
:100510006C6967687420746F67676C653A2025752D
:100520000A006261636B6C6967687420737465703C
:100530003A2025750A007267626C696768742064E6
:10054000697361626C65205B454550524F4D5D3A61
:10055000207267626C696768745F636F6E66696753
:100560002E656E61626C65203D2025750A007267FC
:10057000626C6967687420746F67676C65205B459F
:100580004550524F4D5D3A207267626C69676874DE
:100590005F636F6E6669672E656E61626C65203D94
:1005A0002025750A0044454255473A206469736125
:1005B000626C65642E0A0044454255473A20656ED8
:1005C00061626C65642E0A003A003B0000571E0011
:1005D0001F0020002100220023003C003D002B00D2
:1005E0000E001800330037001D0000003E003F00E1
:1005F000E1000B000C0008000400120000004000A5
:100600004100E000010019001B001F023600380005
:1006100042004300E300E2000601190100002A4302
:100620000000240025002600270001000100010031
:100630002A00490014000A0006000F000D00010006
:10064000010000004C000700170015001100160003
:100650000900010028000151050013001A001000D4
:100660001C000000E100520001002A432C43190144
:100670000100E4000000500051004F0001000100A3
:10068000165C3A003B003C003D003E003F0001008C
:100690000100C35CC45C01005200010001000000C5
:1006A00001000100010001000100500051004F0055
:1006B0000000010001000100010001000100010033
:1006C00001000100010001003502010001000100EC
:1006D00000000100000040004100420043004400CF
:1006E000450001002A00005C01000100010001003A
:1006F00001000100010000000100010001000100F3
:10070000CE5CCF5CD05CD15CD25C0100010001000A
:1007100001000100010000000100010001000100D2
:1007200001000100010001000000C65CC85CCA5C59
:1007300000000000000000000000000000000000B9
:1007400000000000000000000000000000000000A9
:100750000000000000000000000000000000000099
:100760000000000000000000000000000000000089
:100770000000000000000000000000000000000079
:100780000000000000000000000000000000000069
:100790000000000000000000000000000000000059
:1007A0000000000000000000000000000000000049
:1007B0000000000000000000000000000000000039
:1007C0000000000000000000000000000000000029
:1007D0000000000000000000000000000000000019
:1007E0000000000001000100010001000100010003
:1007F0000100010001000100010001003502380282
:1008000025142614350000000100010001002D14FC
:10081000240224142714300200000100010001000A
:10082000460232002102641430142E02010001003D
:1008300001000100010001000000010000000100B2
:1008400001000100010001000100010001000100A0
:100850001E02640064022702230201002402000039
:1008600001002D022502260238003702141401006F
:1008700001000100300022021F0232023602000095
:100880000100A900010001000100010001000100B8
:100890000000AC00AE00AB000A002530325820004A
:1008A0006B6579626F6172645F7265706F72743AC2
:1008B00020007267626C696768745F636F6E666957
:1008C000672E7370656564203D2025640A00726799
:1008D000626C696768745F636F6E6669672E7661C4
:1008E0006C203D2025640A007267626C6967687439
:1008F0005F636F6E6669672E736174203D202564A7
:100900000A007267626C696768745F636F6E66691C
:10091000672E687565203D2025640A007267686C43
:10092000696768745F636F6E6669672E6D6F646573
:10093000203D2025640A007267626C696768745FF5
:10094000636F6E6669672E656E61626C65203D201F
:1009500025640A007267626C696768745F636F6E12
:1009600066696720454550524F4D3A0A00726762EA
:100970006C696768745F696E6974207267626C691C
:100980006768745F636F6E6669672E6D6F6465205C
:100990003D20302E2057726974652064656661754C
:1009A0006C742076616C75657320746F20454550BA
:1009B000524F4D2E0A007267626C696768745F69F6
:1009C0006E6974206565636F6E6669672069732060
:1009D0006E6F7420656E61626C65642E0A007267CA
:1009E000626C696768745F696E69742073746172A0
:1009F00074210A007267626C696768745F696E6966
:100A0000742063616C6C65642E0A000A0025303125
:100A10003662003A200025303258000A722F6320D7
:100A20003031323334353637383941424344454624
:100A30000A007267626C6967687420616E696D6133
:100A400074696F6E207469636B207265706F727465
:100A500020746F20736C6176650A0032190A0004F5
:100A60007F3F1F643214643214783C1E1E140A0542
:100A70000A0025303258006B6579626F6172645FDD
:100A80007365745F6C65643A20005B735D004B6551
:100A900079626F6172642073746172742E0A005BF4
:100AA000435D005B445D005B535D005B575D005B35
:100AB000525D0009025B00030100A0FA0904000076
:100AC0000103010100092111010001224000070575
:100AD000810308000A090401000103000000092144
:100AE000110100012232000705820320000A0904D7
:100AF000020002030000000921110100012222006E
:100B000007058303200001070503032000011201EC
:100B100010010000000810CB572200020102000162
:100B200022035100750065006600720065006E00CA
:100B30006300790020005200650076002E0020003E
:100B4000320000000E034B00650065006200690082
:100B50006F0000000403090411241FBECFEFDAE088
:100B6000DEBFCDBF04B603FE27C08091C1039091C4
:100B7000C203A091C303B091C4038730904BA74038
:100B8000B04BD1F41092C1031092C2031092C30370
:100B90001092C40314BE84B7877F84BF0FB6F89445
:100BA000A895809160008861809360001092600039
:100BB0000FBEE0E0F8E3099523E0A8EFB1E001C043
:100BC0001D92A13CB207E1F711E0A0E0B1E0EAEE2E
:100BD000F4E602C005900D92A83FB107D9F70E9434
:100BE000CD290C943B320C940000FF93EF93E091DD
:100BF000F801F091F901309709F00995EF91FF9113
:100C00000895FC018591803011F0EFDFFBCF08954E
:100C1000FF27E0E230E247FF0CC0419597FF09C093
:100C2000EDE26095709580959095611D711D811D17
:100C3000911D27FF02C0219530E350E2AA27660FDD
:100C4000771F881F991FAA1FA41710F0A41B639574
:100C50005A95A9F7AA3008F0A95FA05DAF93F39564
:100C6000611571058105910541F7ED3211F4EF939E
:100C7000F395F21718F43F93F395FBCF8F91B5DFFF
:100C8000FA95E1F70895E991F9918591803021F085
:100C9000853219F0AADFF9CF089520E0E894559144
:100CA0005532C1F3503311F4689455915A3348F4D6
:100CB000505390F3220F022E220F220F200D250FEA
:100CC000F4CF0EF4219589919991533619F3533746
:100CD00029F1533559F1BC0188279927E8945C36EE
:100CE00021F48991999168945591543639F446EFDD
:100CF0007EF077FF0DC08FEF9FEF0AC055374AE0B7
:100D000039F0583540E121F0523642E009F00895BB
:100D1000FF93EF937DDFEF91FF91B7CFFF93EF93B9
:100D2000FC0181918030B9F360DFFBCFFF93EF933B
:100D300068DFF1CFDF93CF93CDB7DEB72596A3DF82
:100D4000CF91DF910895E8EDF0E080818E7F808380
:100D50001092E2001092DA001092E100A0EEB0E0F2
:100D60008C9181608C9380818F77808319BCA7EDF3
:100D7000B0E08C918E7F8C9380818F7E80831092E7
:100D8000A40308952091E4003091E50095E6A901BF
:100D90002091EC00822F817020FF06C08091E80036
:100DA00080FF06C080E008952091E80022FD1AC06F
:100DB0008091B103882389F0853089F08091EB0020
:100DC00085FD0FC02091E4003091E50042175307E4
:100DD000F9F29150E1F684E0089582E0089583E00D
:100DE000089581E00895EF92FF920F931F93CF93A0
:100DF0007C018B010E94C206C82F811117C080910F
:100E0000E80085FD0BC08091E8008E778093E800B4
:100E10000E94C206882399F3C82F08C0F701819168
:100E20007F018093F1000150110949F78C2FCF9178
:100E30001F910F91FF90EF9008958091B30387FF6A
:100E400013C08091E80082FF06C08091E8008B7794
:100E50008093E80004C08091B1038111F2CF08951E
:100E60008091B1038823D9F38091E80080FFF8CF07
:100E70008091E8008E77ECCF982F9093E900242F93
:100E8000762F50E0891731F07091EC002091ED0041
:100E90005091F00021FD07C09F5F973071F780935C
:100EA000E90081E008953091EB003E7F3093EB0044
:100EB0003091ED003D7F3093ED003091EB003160DB
:100EC0003093EB007093EC002093ED005093F00012
:100ED0002091EE0027FDE0CF80E00895CF92DF92D1
:100EE000EF92FF920F931F93CF93DF93C8EDD0E063
:100EF00088818F7E8883E7EDF0E080818160808348
:100F000084E082BF81E08093A40388818E7F888300
:100F100002EE10E0F80110821092DA0081EEC82E85
:100F2000D12CF601108288818F7788838881806830
:100F3000888388818F7D888319BC1092B1031092B9
:100F4000B2031092B0031092AF0390EEE92EF12C91
:100F5000F70180818B7F808388818160888342E074
:100F600060E080E00E943C07F60180818E7F8083F4
:100F7000F801808181608083808188608083F701AF
:100F800080818E7F8083888180618883DF91CF918B
:100F90001F910F91FF90EF90DF90CF900895FC018B
:100FA0008091B9039091BA0386179707A0F0611555
:100FB000710529F49091E8009E779093E80090E005
:100FC0006115710551F4911108C08091E80082FF0C
:100FD00034C080E00895BC01F2CF8091B103882332
:100FE000C1F18530C1F18091E80083FD30C080916E
:100FF000E80082FDEACF8091E80080FFE1CF809198
:10100000F3002091F200382F6115710519F0283096
:10101000310558F091E02830310509F090E0209139
:10102000E8002E772093E800CBCF81918093F100E8
:10103000615071092F5F3F4FE7CF8091B103882343
:1010400041F0853041F08091E80083FFBECF81E020
:10105000089582E0089583E00895089508958091A9
:10106000A60308959C014FB7F89480913C0390919A
:101070003D03A0913E03B0913F034FBF821B930BF2
:1010800008952FB7F89480913C0390913D03A0916F
:101090003E03B0913F032FBF089580913703811124
:1010A000109237030895809590913603982390937A
:1010B00036030895ECEFF1E09191891303C0DF014D
:1010C00011971C9292E0E230F907B1F70895ACEF66
:1010D000B1E0EFEF90E02D91821751F0EF3F19F45E
:1010E000211101C0E92F9F5F9630A9F7EF3F09F466
:1010F00008950E2E000CFF0BE650FE4F82830895DC
:1011000029E0929F800D1124982F977086958695DF
:10111000869525E0829FF0011124E950FD4F50E0B3
:1011200040E080E0219130E0092E02C036952795FD
:101130000A94E2F721703327042E01C0220F0A948B
:10114000EAF7822B4F5F5F4F4530510559F70895FD
:1011500029E0929F800D1124982F977041E001C0E3
:10116000440F9A95EAF786958695869595E0899F2E
:10117000F0011124E950FD4F90E080E070E05191C2
:10118000DF0111979B01082E02C0369527950A941E
:10119000E2F7217021952527242325272C930196FA
:1011A0008530910561F708958091F6029091C5020E
:1011B000981301C008958F5F8770FACF2091A20223
:1011C0003091A3022817390771F09093A3028093FE
:1011D000A202E0915F03F0916003309721F0008458
:1011E000F185E02D099408952091A0023091A1028B
:1011F0002817390771F09093A1028093A002E09123
:101200005F03F0916003309721F00680F781E02DB5
:1012100009940895E0915F03F0916003309721F005
:101220000190F081E02D099480E00895CF92DF9243
:10123000EF92FF92843030F5811125C090918000AB
:101240009F77909380002D98282F30E0AFEFBFEF6D
:101250000E942C3223E030E040E050E00E940A324D
:10126000C9012C3764E13607A0F469E070E00E9400
:10127000EA307093890060938800FF90EF90DF90D0
:10128000CF90089583E090918000906890938000C3
:10129000DBCF2A50374D4F4F5F4F942F832F722F44
:1012A000662725EF38E241E050E00E940A326901EA
:1012B0007A01CA01B9010E94CE309B01AC01C7017D
:1012C000B6010E94CE30672F782F892F992761159C
:1012D000710521E08207910561F66FEF7FEFC9CFBD
:1012E000FA01811101C0FB01099480917F03982FBD
:1012F0009E7F29F48170826080937F0308958635F4
:10130000E8F381708465F8CFAF92BF92DF92EF92DD
:10131000FF920F931F93CF93DF93082F162FE901AE
:10132000E42FF0E0E457FE4F611110C0E4915E2F0E
:101330004E2F4983E8835A83DF91CF911F910F91FC
:10134000FF90EF90DF90BF90AF900895E62EF12CC4
:101350004491D42EE42FF0E026E0829FC0011124B6
:101360002FEF30E0B9010E94EA30802F90E0880F23
:10137000991F55E5569FD001579FB00D11248A1B28
:101380009B0B982F990F890F5901AE18BF08AE9E7D
:10139000D001AF9EB00DBE9EB00D11245B2F189FE3
:1013A00080011124012F11275901A01AB10AAE9E04
:1013B0008001AF9E100DBE9E100D11245901A81A78
:1013C000B108AE9CC001AF9C900DBE9C900D112445
:1013D000892F9927281B390B2E9FC0012F9F900D15
:1013E0003E9F900D1124E92F62307105A1F050F459
:1013F0006115710509F49DCF6130710581F0EB2F06
:10140000512F97CF6430710569F080F06630710517
:1014100009F48FCFF4CFE42F4B2F592F8ACFE42F2D
:10142000412F87CFEB2F542F492F83CF4B2F5D2D8B
:10143000E12F7FCFF894E82FE295EF70F0E031A133
:10144000282F2F7081E090E001C0880F2A95EAF7DD
:10145000982F9095932391A392A1892B82A378949E
:10146000089590915B0392FF06C0282F28712830C1
:10147000F9F4877F846093FF06C0282F28712831F4
:10148000F1F4877E846120915C0320FF06C0382F31
:1014900038713830D9F4877F816021FF06C0282F4A
:1014A00028712831D1F4877E816194FD877E08956B
:1014B000282F24712430F9F68B7F8860DCCF282F09
:1014C0002471243101F78B7E8861DDCF382F317193
:1014D000313019F78E7F8860E0CF282F21712131BC
:1014E00021F78E7E8861E1CFCF93DF93972F70E055
:1014F00029E0929F600D711D1124FB013AE5839F45
:10150000E00DF11D1124EE0FFF1FE853FA4FC591B6
:10151000D491CE01C238D105C9F108F03EC0C13323
:10152000D10509F49AC058F5C932D10509F48EC025
:10153000CA32D10509F498C0C11540E5D40708F0B6
:10154000C1C0C11520E4D20708F02FC1C03ED105AB
:1015500008F09EC0C03CD10508F017C1C83AD105BB
:1015600008F089C0C53AD10508F007C1C130D105DE
:1015700011F1209709F443C02497E8F440C0C53323
:10158000D10509F45CC0C933D105B1F620915B03E4
:10159000237089F080EE90E00EC0C33ED10591F13A
:1015A00068F4C03ED105F9F0C23ED10529F620917C
:1015B0005B0322FD20C0DF91CF910895C63ED10587
:1015C00061F1C73ED10581F1C43ED10509F0B4CF28
:1015D00020915C0321FFEFCF80915B0384FD0FC05E
:1015E00087EE90E0E8CF20915B0320FD24C130918D
:1015F0005C0330FFE0CF83EE90E024FFDCCF90E08F
:1016000080E0D9CF20915B0322FD18C130915C03AB
:1016100030FDC0CF24FFCFCFF2CF20915B0323FF5B
:10162000CACF24FDECCFDCCF20915B0323FD09C1A1
:1016300030915C0331FFEECF84EE90E0BCCF20917F
:101640005B0325FFB8CF89E290E0B5CF20915B0323
:1016500025FFB1CF85E390E0AECF20915B0326FF5D
:10166000AACF8AE290E0A7CF20915B0326FFA3CF09
:1016700081E390E0A0CFCF3BD10508F6C85AD0E077
:10168000CC0FDD1FC655DE4F88819981946493CFBE
:10169000C11530E2D30750F4C11541E0D40708F07A
:1016A0008ACFC83ED10508F486CFA9CFC11580E303
:1016B000D80708F072C0FE01FF70EE0FFF1FEE5A50
:1016C000FE4F68C0C11595E5D90748F5C11524E559
:1016D000D20708F099C0C11532E5D30750F4C115FF
:1016E00041E5D40708F465C09C2F8827816F906A74
:1016F00062CF9C2F96959695AE0143705527C115E4
:10170000D34508F072C021E030E002C0220F331F41
:101710004A95E2F740E2949FC001112462C0C115CE
:1017200099E5D907A0F4C11528E5D20708F071C0E2
:10173000C11536E5D30708F062CF8C2F0E94310A1D
:1017400090E0982F882788279F71906234CFC11529
:101750004AE5D40708F462C0CE0190568115904244
:1017600008F04DCF8D2F8F710E94310A90E0982F95
:10177000882788279F718C2BE8CFC55AD0E0C955A0
:10178000DE4F888190E0906416CFFE01EE0FFF1FC0
:10179000EE52F040859194910ECFCE019927D3FF60
:1017A00002C0986C08CF906C06CFCE019F70906AF3
:1017B00002CF9E01E4E036952795EA95E1F7237084
:1017C0008C2F86958695837030E2839FC00111240B
:1017D000922BC37021E030E002C0220F331FCA9564
:1017E000E2F7822B932B9C68E6CE21E030E002C02A
:1017F000220F331F4A95E2F740E2949FC001112463
:10180000822B932B9A68D7CE9C2F8827846F906A5F
:10181000D2CE9C2F8827806F906ACDCE8C2F8F7070
:101820000E94310A34E0D695C7953A95E1F7CF701A
:101830009C2F9069C0CE89E390E0BDCE82EE90E00F
:10184000BACE86EE90E0B7CEBF92CF92DF92EF9203
:10185000FF920F931F93CF93DF938C01C090570398
:10186000D0905803E0905903F0905A0380913803C8
:1018700090913903A0913A03B0913B03C82AD92A29
:10188000EA2AFB2ACFE1D0E0BC2ED701C6010C2EFC
:1018900004C0B695A795979587950A94D2F780FDD1
:1018A0000EC0219788F7B12C8B2DDF91CF911F911E
:1018B0000F91FF90EF90DF90CF90BF900895B80107
:1018C0008C2F0E94740A019761F3EECFCF93DF93C0
:1018D000EC010E94240CBE01DF91CF910C94740A9C
:1018E0000E94660C292F2F7092959F7092509E3007
:1018F00078F4E92FF0E0E35CFD4C0C941231803F6A
:1019000019F020F4883E20F481E00895843FE1F34B
:1019100080E00895883EC0F3813FD1F7F5CF822F54
:10192000869586958695089590916501992329F06D
:1019300081FD02C02E9A08952E980895829590E018
:101940009C01220F331F220F331F2C7C9595879506
:10195000959587958373282B30E0C901880F991FCF
:101960008A7A359527952575822B0895CF93DF9335
:101970009C013A9521153F4168F5EC01CC27D170C7
:10198000DC01AA27B270AC01442754709C012227C5
:10199000387094FF11C080E1CD2B09F480E0AB2BAF
:1019A00009F08062452B09F08064232B09F08068E0
:1019B000FB01DF91CF91099481E0CD2B09F480E008
:1019C000AB2B09F08260452B09F08460232B81F357
:1019D0008860EECFDF91CF910895EF92FF920F9341
:1019E0001F93CF93DF938091360390913503892B1A
:1019F00090913403892B8093FA01909137039923B6
:101A000091F0892B8093FA0120E08CEF91E0FC01AA
:101A10003191CF0131112F5FF2E082309F07B9F78A
:101A200021110E944D08E0915F03F091600330970F
:101A3000C9F10280F381E02D8AEF91E00995809150
:101A40008D0382FF2FC080FF04C080EA98E00E94CF
:101A50000106CAEFD1E082E0E82E82E0F82E0AE922
:101A600018E080918D0380FF0BC088811F928F93B7
:101A70001F930F930E949A060F900F900F900F9054
:101A80002196EC16FD0669F780918D0380FF0AC050
:101A900088E998E0DF91CF911F910F91FF90EF902F
:101AA0000C940106DF91CF911F910F91FF90EF9061
:101AB000089510923503109234030E94ED0C90E0CB
:101AC00080E00E94F40890E080E00C94DE086093CF
:101AD0005703709358038093590390935A030C94BF
:101AE000590D0F931F9341E050E060E070E004C097
:101AF000440F551F661F771F8A95D2F7CB01BA0195
:101B000060957095809590950091570310915803BA
:101B10002091590330915A03602371238223932328
:101B20001F910F910C94670D909133038095892339
:101B300080933303282F277071F4282F082E000C70
:101B4000330B9217130639F08595859585950E947C
:101B5000710D1092330308950F931F9341E050E0ED
:101B600060E070E004C0440F551F661F771F8A9520
:101B7000D2F78091570390915803A0915903B091E7
:101B80005A038A019B01082B192B2A2B3B2BC901D5
:101B9000B8011F910F910C94670D609338037093F7
:101BA000390380933A0390933B030C94590D882397
:101BB00041F08095909135038923809335030C94EF
:101BC000ED0C0895882339F090913503982B90936C
:101BD00035030C94ED0C0895882321F00E945308DE
:101BE0000C94ED0C0895882339F090913603982BCE
:101BF000909336030C94ED0C0895882309F44BC0A0
:101C0000823871F40E940A0981FF45C089E30E946D
:101C100067080E94ED0C89E30E945A080C94ED0CB1
:101C2000833859F40E940A0980FF35C083E50E9479
:101C300067080E94ED0C83E5EFCF843859F40E94C9
:101C40000A0982FF28C087E40E9467080E94ED0C01
:101C500087E4E2CF9CEF980F913AF0F290E2980F70
:101C6000983050F4877091E001C0990F8A95EAF797
:101C7000892F0E945308D2CF9BE5980F933020F410
:101C800090E080E00C94F408885A873120F490E0CA
:101C900080E00C94DE080895CF93DF93EC010E945E
:101CA000FD0DCE01805E9109089720F067ED7DE083
:101CB000209711F46CEE7DE0CE01DF91CF910C9472
:101CC000B60CFC018081813029F4FB018081918177
:101CD0000C944C0E823021F4FB0182819381F8CF69
:101CE0000895CF93DF93EC0181E0898B80913603D7
:101CF0009F81892B80933603809135039885892BAA
:101D0000809335030E94ED0CEA81FB81309739F016
:101D10006C897D89CE010696DF91CF910994DF9180
:101D2000CF910895EF92FF920F931F93CF93DF937C
:101D3000EC018A85811139C0EB80FC8087E5F81AB7
:101D400026E12E9DC0012F9D900D1124DC01AA5E7D
:101D5000BE4F1496ED91FC911597309731F0549643
:101D60006D917C91845E9E4F099586E18E9D8001E8
:101D70008F9D100D11240A5E1E4FF80187810E946D
:101D80005308F8018085982F909580913503892319
:101D9000809335030E94ED0C188219861B861E82E3
:101DA0001D821092A6021092A502DF91CF911F9181
:101DB0000F91FF90EF900895109285038091860314
:101DC00084608093860380918D0380FF08C08EE934
:101DD00093E09F938F930E949A060F900F9008951F
:101DE000CF9384E090E00E949031C82F81E290E090
:101DF0000E949031982F8C2FCF9108959FB7F8941F
:101E00001092A2039FBF9091B103943009F048C093
:101E10002091E9002F703091EC00932F917030FDEC
:101E200090E8922B23E02093E9002091EB0020FF23
:101E300034C02091EE0027FF30C0209140032223C0
:101E400021F02091E80025FF28C01092400326E0F1
:101E50003091E80035FF14C08093F1008091E800D4
:101E600085FD27C08091E80080FFFCCF8091E800CD
:101E70008E778093E8009F709093E90080E008954A
:101E80003091B103343049F43091EB0035FD05C099
:101E9000215041F481E0809340039F709093E900CA
:101EA0008FEF0895EFE9FFE03197F1F700C00000F0
:101EB000CFCF8FB7F89421E02093A2038FBFDBCF61
:101EC000CF93DF9300D00F92CDB7DEB79091B103DF
:101ED000943019F589837B836A8382E08093E900DB
:101EE0008FEF9091E800815095FD06C095ED9A9591
:101EF000F1F700008111F5CF8091E80085FF0DC05A
:101F000050E040E063E070E0CE0101960E94F306ED
:101F10008091E8008E778093E8000F900F900F90EB
:101F2000DF91CF910895BC0184E00C94600FBC0157
:101F300083E00C94600FCF93DF93EC0181E08093FA
:101F4000E9008FEF9091E800815095FD06C095ED76
:101F50009A95F1F700008111F5CF8091E80085FF97
:101F600014C050E040E068E070E0CE010E94F3064B
:101F70008091E8008E778093E80088E0FE01A7EA70
:101F8000B3E001900D928A95E1F7DF91CF9108952A
:101F9000CF93C82F882309F488C08238C1F40E94E7
:101FA0000A0981FD82C089E30E9467080E94ED0C46
:101FB0002FEF81EE94E0215080409040E1F700C087
:101FC000000089E30E945A08CF910C94ED0C8338ED
:101FD000A1F40E940A0980FD68C083E50E94670899
:101FE0000E94ED0C2FEF81EE94E021508040904054
:101FF000E1F700C0000083E5E5CF8438A1F40E943A
:102000000A0982FD52C087E40E9467080E94ED0C15
:102010002FEF81EE94E0215080409040E1F700C026
:10202000000087E4CFCF8CEF8C0F813A68F4ECEF9F
:10203000F1E08191C81799F122E0E230F207C9F787
:102040008C2F0E946708C0CF80E28C0F883068F424
:10205000C77021E030E001C0220FCA95EAF78091F5
:102060003603822B80933603AFCFEBE5EC0FE330E2
:1020700040F4F0E0E955FE4F808190E0CF910C9460
:10208000F408C85AC73188F4EC2FF0E0EE0FFF1FB8
:10209000E655FE4F80819181CF910C94DE088C2F04
:1020A0000E945A080E94ED0CCBCFCF910895CF9398
:1020B000C82F0E94C80F8FE19EE40197F1F700C07E
:1020C00000008C2FCF910C94FD0D0F931F93CF9395
:1020D000DF93C62FD42F022FFC0182818823A1F029
:1020E0006093BD030E9441089093BC038093BB039F
:1020F000C77081E001C0880FCA95EAF7DF91CF91E0
:102100001F910F910C94F30D8091BD03681335C09E
:102110008091BB039091BC030E943208883C9105DA
:1021200060F510E21D0FCD17B9F080E28C0F8830FA
:1021300040F4C77081E001C0880FCA95EAF70E9499
:10214000EC0D183048F481E09D2F977001C0880F86
:102150009A95EAF70E94F30D802F0E9457101830CD
:1021600098F4D77081E001C0880FDA95EAF7DF9123
:10217000CF911F910F910C94EC0DC77081E001C0BD
:10218000880FCA95EAF7F3CFDF91CF911F910F9196
:102190000895813031F48EE4611101C08BE40C9418
:1021A0005710811105C08AEA6111F9CF89EAF7CF8A
:1021B0000895CF93DF93EC01805E9109089720F09A
:1021C00062EE7DE0209711F463EF7DE0CE010E9486
:1021D000B60C8C2FDF91CF910C94C80FFC0180813D
:1021E000813029F4FB01808191810C94D9108230D7
:1021F00021F4FB0182819381F8CF0895CF93DF937F
:10220000EC018881823039F4FB01828193810E9444
:10221000D91081E08B87DF91CF910895CF93909172
:10222000B702992321F0811116C01092B702CF9105
:102230000895EC2FF0E0EE0FFF1FE955FD4F808170
:1022400091810E94D9100E94ED0CCF5F8091B7025E
:10225000C81778F3EACFC0E0F9CFCF92DF92EF92C0
:102260000F931F93CF93DF93CDB7DEB7E0970FB6F1
:10227000F894DEBF0FBECDBF60913E0180917F0319
:1022800080FF4BC0E5E7F3E09E012F5F3F4F8E01DB
:102290000F5C1F4FC901A4914A2F50E0DA01AA0F29
:1022A000BB1FA40FB51FA05EBD4FCD90DD90EC907D
:1022B000D901CD92DD92ED929D013196A017B10723
:1022C00051F720913D0143E0249F800D911D112481
:1022D0006E9A2EB12F7B3EB130645FB7F894FC014B
:1022E000649FE00DF11D1124BF018617970741F58A
:1022F0005FBFEFE5F4E03197F1F700C00000E09632
:102300000FB6F894DEBF0FBECDBFDF91CF911F9106
:102310000F91EF90DF90CF90089580913F019091C1
:10232000400123E0829FF0011124E05EFD4F8917F8
:1023300008F0A8CF1182108212828F5F3396F7CFF8
:10234000DC014D91CD01E8E03EB9000000C047FF3F
:102350002EB9440F000000C000C000C02EB900C05C
:10236000EA9591F7C2CF8F929F92AF92BF92CF9290
:10237000DF92EF92FF920F931F93CF93DF93FC01B5
:10238000B280948081E0848300E015E05BE4A52EB8
:1023900088248394EE24EA94F12C7BE4C72ED12C7C
:1023A00080914101081770F0DF91CF911F910F913B
:1023B000FF90EF90DF90CF90BF90AF909F908F9065
:1023C0000C942D11C02FD0E01C9FF0011D9FF00D2B
:1023D0001124E05BFD4F91101CC0138212822091EA
:1023E0003F01CE01820F911D9C01220F331F280F48
:1023F000391F205E3D4F1C9FF0011D9FF00D1124E1
:10240000E05BFD4F4281618180810E9484090F5F02
:10241000C7CF2381222379F12150238334818A2D50
:10242000821B311101C0822F1C9FF0011D9FF00DF6
:102430001124E05BFD4F90918203899FC00111241C
:10244000B6010E94EA306283211104C0332311F0E7
:102450001482A38222E02B1510F21C9FF0011D9F15
:10246000F00D1124E05BFD4F80918003808380910B
:1024700081038183B4CF0E947331823091400CF08C
:10248000AECF82E08B1530F50E947331B7010E9408
:10249000FE301C9FF0011D9FF00D1124E05BFD4FED
:1024A000808322E02B15C8F40E94733120918103B0
:1024B0002695622F70E00E94FE30280F1C9FF001CD
:1024C0001D9FF00D1124E05BFD4F21831282A3823A
:1024D000848285CF80918003DCCF20918103EECF71
:1024E000EF92FF921F93CF93DF93EC0110E0EE2465
:1024F000EA94F12C60914101161770F00E942D11A1
:102500009A818C8190FF27C08F5F8C83DF91CF9160
:102510001F91FF90EF90089520913F01422F410FAE
:102520005527551FCA019A01220F331F280F391F43
:10253000205E3D4F70E0C7010E94FE30962F8C81D7
:102540004091820360918103199F800D11240E94A4
:1025500084091F5FCFCF8150D8CF9F92AF92BF9297
:10256000CF92DF92EF92FF920F931F93CF93DF935F
:10257000EC018A81BB24BA9480FD02C0BB24B394D1
:10258000A09041018C81811109C081E0B81225C061
:102590008FEF8A0D80931D0281E08C83F12CE12C5A
:1025A000EA14F0F00E942D1180911D0291E0B91201
:1025B0005BC0811154C080914101815080931D0204
:1025C0001C82DF91CF911F910F91FF90EF90DF90D0
:1025D000CF90BF90AF909F90089510921D02DCCFD6
:1025E00000913F010E0D1F2D111DC801880F991F6D
:1025F000080F191F005E1D4FF80111821082128210
:1026000034E0C32ED12C912C80911D02890D813193
:1026100014F18F70082E000C990B8E159F0591F404
:10262000809182038C9DA0018D9D500D11245595A4
:102630004795559547959801609181038091800356
:102640000E9484099B0CF1E0CF1AD108E9F68FEFC4
:10265000E81AF80AA5CF87FFDDCF8A0DDBCF8150BE
:1026600080931D02BC82ADCF90E001966091410144
:1026700070E00E94FE3080931D028C83A2CFEF9207
:10268000FF920F931F93CF93DF93EC018C81811105
:1026900009C081E08C8310921E0292E09093140195
:1026A0008093130180913F019091400123E0829F2C
:1026B000F0011124E05EFD4F891768F110E003E09E
:1026C00060914101161768F10E942D11809113014C
:1026D00020911E02280F20931E0290911401980F42
:1026E00090931401191654F4022E000C330B4091F0
:1026F00041014150550B2417350734F081958093E3
:102700001301813009F41C82DF91CF911F910F9149
:10271000FF90EF9008951182108212828F5F33969E
:10272000CBCFE12EF12C70E0C7010E94FE3020914A
:102730003F01820F482F50E020911E02022E000C14
:10274000330BE216F306BCF020911401022E000CAC
:10275000330B2E153F057CF0809F90011124205EE5
:102760003D4F4091820360918103809180030E94DC
:1027700084091F5FA5CFFA01EE0FFF1FE40FF51FBD
:10278000E05EFD4F118210821282F3CF8F929F92F2
:10279000AF92BF92CF92DF92EF92FF920F931F936F
:1027A000CF93DF93EC014C81042F10E09801D80106
:1027B0000E942C329B01AC010E94F7314B015C015D
:1027C000E0E2F0E0E01BF10BA5E5B0E0AC019B011D
:1027D0000E94F7316B017C019F01DF010E941831DB
:1027E0009B01AC010E9402329B01AC01280D391DF6
:1027F0004A1D5B1DC701B6010E940A32F22E822FCC
:1028000090E039E23F1560F143E0249F90011124EC
:1028100035952795122F109500E085E5E82EEF18E5
:1028200080914101081758F10E942D119C8181E08F
:10283000992319F0903219F48FEF8093150180914C
:102840001501890F8C83DF91CF911F910F91FF901C
:10285000EF90DF90CF90BF90AF909F908F900895B2
:1028600025E530E0B901681B790B9B01220F331F6E
:10287000260F371F37FFCCCF2F5F3F4FC9CF8E2D8D
:1028800001FD8F2D20913F01622F600F7727771F69
:102890009B01220F331F260F371F205E3D4F412F14
:1028A000609181030E9484090F5FBACF0F931F9339
:1028B000CF93DF93EC0110E000E09091410190177D
:1028C000110609F06CF40E942D118C8190E00196A4
:1028D000817099278C83DF91CF911F910F9108957B
:1028E00020913F01A801420F511D9A01220F331F71
:1028F000240F351F205E3D4F4C81609181038091F4
:10290000800396959017110651F04CF0442349F03E
:10291000409182030E9484090F5F1F4FCECF442352
:10292000B9F340E0F7CF90917F0390FF14C09091EE
:102930003F012091400133E0939FF0011124E05EBC
:10294000FD4F921710F00C942D1181836083428308
:102950009F5F3396F6CF08950F931F93CF93DF9326
:1029600000D00F92CDB7DEB78C0180911F0281118C
:102970000AC09E012F5F3F4F4FEF6FEF0E94840907
:102980008A8180931F02F8016481613069F080912F
:102990001F0240E0662361F040E0623011F4409194
:1029A0001F0280E060E004C060911F0240E080E010
:1029B0000E949314F801848190E0019663E070E036
:1029C0000E94FE3084830F900F900F90DF91CF9183
:1029D0001F910F910895CF93DF9300D00F92CDB741
:1029E000DEB790917F0390FF0AC09E012F5F3F4F9B
:1029F0000E9484094B8169818A810E9493140F90FF
:102A00000F900F90DF91CF910895CF93DF93EC015A
:102A1000EC81F0E0E954FC4F4491EFE7F3E0628190
:102A200081810E94EB148C818F5F8C83DF91CF9129
:102A30000895CF93DF93EC01EFE7F3E043816281E8
:102A40008C810E94EB148C818F5F8C83DF91CF91FE
:102A5000089580911C02811111C08091D80080617D
:102A60008093D8008AE18A95F1F700C09091D9004F
:102A7000892F817090FF82E080931C0281E0909109
:102A80001C02913009F080E0089590E080E00E94FF
:102A90009E3121E08C3E9E4F09F020E0822F089568
:102AA000CF92DF92EF92FF926B017C010E94750939
:102AB000B701A60188E090E0FF90EF90DF90CF9003
:102AC0000C94B6314F925F926F927F928F929F9249
:102AD000AF92BF92CF92DF92EF92FF920F931F932C
:102AE000CF93DF9300D00F92CDB7DEB7182FF62E1D
:102AF000042F722E90917F0390FF57C0E92FE69527
:102B0000AE2FB0E0A458BE4F8C91809384039E7F7B
:102B1000923009F05EC09E012F5F3F4F812F0E94CF
:102B200084094B8169818A810E949314809180037A
:102B3000811308C0809181038F1104C080918203AA
:102B4000801729F08091860382608093860310931A
:102B50008003F092810300938203772009F49CC0E4
:102B600060917F0370918003809181039091820333
:102B70000E94501580918D0380FF17C080918203C1
:102B80001F928F93809181031F928F938091800376
:102B90001F928F9384E293E09F938F930E949A06F3
:102BA0000FB6F894DEBF0FBECDBF0F900F900F9001
:102BB000DF91CF911F910F91FF90EF90DF90CF9019
:102BC000BF90AF909F908F907F906F905F904F904D
:102BD0000895823019F400918203A8CF863019F449
:102BE00010918003A3CF8930D9F3893109F09ECFAA
:102BF000E9518E2F8170682E8E2F80958170E82E7E
:102C0000E695F0E0E059FC4FC590D490412CDD24CE
:102C100099E4A92E93E0B92E60914101461618F06F
:102C20000E942D1183CF842C912C8C9CC0018D9CF3
:102C3000900D9C9C900D112470E00E94EA30512E62
:102C4000611028C0560E80918D0380FF11C0DF9265
:102C5000CF921F92EF921F925F921F924F92BF925C
:102C6000AF920E949A060FB6F894DEBF0FBECDBF9A
:102C700020913F01820E911C9401220F331F280DD9
:102C8000391D205E3D4F402F6F2D852D0E948409F8
:102C90004394C2CF561AD7CF80918D0380FF85CF42
:102CA0001F920F931F92FF921F921F938DEF92E03E
:102CB00073CFEFE7F3E0438121E1421B08F440E0EA
:102CC00021E0628181810C946215EFE7F3E043819A
:102CD00021E1420F08F44FEF21E0628181810C94E1
:102CE0006215EFE7F3E0628121E1621B08F460E026
:102CF00021E0438181810C946215EFE7F3E062816A
:102D000021E1620F08F46FEF21E0438181810C948F
:102D10006215EFE7F3E0818121E043816281885011
:102D20000C946215EFE7F3E0818121E04381628139
:102D3000885F0C94621580918303882319F0815079
:102D40008093830360917F0370918003809181035E
:102D5000909182030C94501580918303833018F472
:102D60008F5F8093830360917F03709180038091D4
:102D70008103909182030C945015EFE7F3E083E018
:102D8000808311828FEF828383831482A4E8B3E06F
:102D900012968C911297836012968C936081718148
:102DA000828193810C945015282F220F220F220F1D
:102DB0009091A4029770922B9093A402987F21E0A7
:102DC00009F420E09091A40220FB90F99093A402D2
:102DD0000E9416096091A40286E090E00C94A43150
:102DE0008091A40280FD21C081608093A402813083
:102DF00019F489E08093A4026091A40286E090E037
:102E00000E94A43180918D0380FF08C087EB94E07D
:102E10009F938F930E949A060F900F908091A40227
:102E20008695869586950C9416090895109236031A
:102E3000ECEFF1E086E0DF011D928A95E9F70C9452
:102E4000590D1F93CF93DF93CDB7DEB7AA970FB677
:102E5000F894DEBF0FBECDBF83EB93E02091F1006D
:102E6000DC012D93CD01B3E08B3B9B07B9F780913B
:102E7000B403833009F46FC0B8F4813009F446C05C
:102E8000823009F4B0C08091E80083FF38C180919E
:102E9000B3039091B4039A3008F031C1E92FF0E008
:102EA000E55BFD4C0C9412318A3009F48BC08B30F9
:102EB00009F46EC0893039F78091B303813219F774
:102EC0008091B7039091B8030297E8F68091E800EB
:102ED000877F8093E8008091E80082FF37C090915F
:102EE000F3008091F200029729F48091F1008B7F2A
:102EF000813021F48091F1008093A6038091E80055
:102F00008B778093E8000E941D07BDCF8091B303AB
:102F1000813A09F0B8CF8091E800877F8093E8007C
:102F20008091B7039091B803892B61F468E087EA38
:102F300093E070E00E94CF078091E8008B77809348
:102F4000E800A1CF60E090E080E0F3CF8091B10392
:102F50008111C1CF98CF8091B303813A09F093CF0B
:102F60008091B7039091B803892B09F08CCF8091A1
:102F7000E800877F8093E8008091E80080FFFCCF25
:102F8000809172018093F1008091E8008E77B9CF33
:102F90008091B303813209F076CF8091B70390918D
:102FA000B803892B09F06FCF8091E800877F809369
:102FB000E8000E941D078091B503809372010E9472
:102FC000161761CF8091B303813209F05CCF8091F5
:102FD000E800877F8093E8000E941D078091B60378
:102FE0008093A50350CF8091B303813A09F04BCF72
:102FF0008091E800877F8093E8008091E80080FF5F
:10300000FCCF8091A503BECF803899F0823809F0BB
:1030100076C08091B7038F70873008F070C08093BE
:10302000E9008091EB0085FB882780F91092E90088
:1030300006C08091AF039091B0039111826090918E
:10304000E800977F9093E8008093F1001092F100E0
:103050008091E8008E77B0C1882309F49DC1823049
:1030600009F04DC08091B5038111A1C18091B703D2
:103070008F702FEF280F263008F041C08093E900B1
:103080002091EB0020FF93C1933031F48091EB004D
:1030900080628093EB008BC19091EB0090619093E4
:1030A000EB0021E030E001C0220F8A95EAF720937F
:1030B000EA001092EA008091EB008860EACF81116B
:1030C0001EC01091B5031F778091E3008078812B9B
:1030D0008093E3008091E800877F8093E8000E945E
:1030E0001D078091E80080FFFCCF8091E30080689D
:1030F0008093E30082E0111183E08093B10380911B
:10310000E80083FF0AC08091E800877F8093E80091
:103110008091EB0080628093EB00AA960FB6F89442
:10312000DEBF0FBECDBFDF91CF911F9108958058B4
:10313000823028F72091B5033091B6032C3DE3E0AF
:103140003E07A1F583E08A838AE289834FB7F8942A
:10315000DE01139620E03EE051E2E32FF0E05093D1
:103160005700E49120FF03C0E295EF703F5FEF70DE
:103170008E2F90E0EA30C0F0C7968D939D932F5F1D
:10318000243159F74FBF8091E800877F8093E80092
:103190006AE270E0CE0101960E94CF078091E800BC
:1031A0008B778093E800ABCFC096E7CF8091B703D1
:1031B0009091B803432F55274330510509F44AC075
:1031C00078F54130510509F47AC08BE590E0E3EBE6
:1031D000FAE04230510509F092CF2091E800277FB4
:1031E0002093E8002091B9033091BA038217930726
:1031F00008F49C0140E02115310509F065C041113A
:1032000063C08091E80082FDC9CF8091B10388231B
:1032100029F2853019F28091E80083FFF2CFBECF0A
:103220004132510509F43CC04232510509F067CFE3
:103230008330910508F063CFFC01EE0FFF1FE551CD
:10324000FE4F0190F081E02D88519E4FDC018C9162
:1032500090E01AC0332721303105D1F02115310516
:1032600061F02230310509F04ACFE0E2FBE0E49161
:103270008E2F90E0E0E2FBE007C0E4E5FBE0E491A4
:103280008E2F90E0E4E5FBE0009709F438CFA5CF5E
:10329000E4E4FBE0E4918E2F90E0E4E4FBE0F4CF83
:1032A0008330910508F02BCF880F991FFC01EF5058
:1032B000FE4F0190F081E02D89E090E08ECF82E119
:1032C00090E0EEE0FBE089CF8091B103882309F420
:1032D00065CF853009F462CF8091E80083FD5ECF31
:1032E0008091E80082FD8DCF8091E80080FF83CF40
:1032F0009091F3008091F2002115310519F088308A
:10330000910550F041E0089709F040E08091E80015
:103310008E778093E8006FCF44914093F10031960F
:10332000215031090196E8CF803809F0E8CE80912C
:10333000E800877F8093E8008091B2038093F100DA
:1033400087CE8111DCCE1091B503123008F0D7CEB4
:103350008091E800877F8093E8001093B2030E9479
:103360001D07112311F084E005C08091E30087FD63
:10337000FACF81E08093B10342E061EC81E00E94EA
:103380003C0742E261EC82E00E943C0742E261ECD1
:1033900083E00E943C07B3CE8091B503813009F0F1
:1033A000AECE81E0933009F080E08093B0031092BC
:1033B000E9008091E800877F8093E8000E941D0764
:1033C0009ECE60917F03669570E04BE050E088E010
:1033D00091E00E948331892B19F481E08093850369
:1033E0000E94410890937A03809379038091860329
:1033F00084608093860380918D0380FF08C085E8F8
:1034000093E09F938F930E949A060F900F900895D8
:1034100090917F0390FF5AC09170811141C09260DA
:1034200090937F0380918603816080938603662357
:10343000F1F160917F0370918003809181039091FD
:1034400082030E94501580918D0380FF0FC08091F0
:103450007F0386951F928F938AEA92E09F938F93C2
:103460000E949A060F900F900F900F9060917F032B
:10347000669570E04BE050E088E091E00E94833177
:10348000892B09F10E94DC0E81E080937C0320E00F
:103490004091820360918103809180030C946215B6
:1034A0008B3210F09465BCCF880F982BB9CF8091E8
:1034B0008D0380FFDBCF80917F0386951F928F93D2
:1034C0008CE892E0CBCF0E94E119DECF0895809185
:1034D0007F03816080937F0380918D0380FF0DC007
:1034E0001F9281E08F9386EC92E09F938F930E94CE
:1034F0009A060F900F900F900F9080917F0361E0DC
:1035000086950C94081A6CEE7EEF90E080E00E94A5
:10351000C23160E082E090E00E94A43160E083E08C
:1035200090E00E94A4311092380310923903109257
:103530003A0310923B0360E084E090E00E94A431E3
:1035400060E081E290E00E94A43160E085E090E0DC
:103550000E94A43160E086E090E00E94A4316FEF09
:1035600087E090E00E94A43140E050E0BA0188E09A
:1035700090E00E94B63160E08DE090E00E94A431BE
:1035800040E050E0BA0188E190E00E94B63160E08E
:1035900087E190E00E94A43140E050E0BA018CE164
:1035A00090E00E94B63160E080E290E00E94A43199
:1035B00040E050E0BA0188E190E00E94B6310E94FC
:1035C000F01683E00E94D4160E94671A21E04FEFA4
:1035D0006FEF80E00E94621561E08BE00E94081AA4
:1035E00040E050E0BA018FE090E00E94B63140E048
:1035F00050E0BA0183E190E00C94B6310E94451589
:10360000811102C00E94831A86E090E00E949031EE
:103610008093A402803220F0877088618093A40296
:103620009091A402892F817090FF04C0892F869504
:10363000869586950C94160980917F038695815016
:1036400009F48AE261E00C94081A80917F03869560
:103650008F5F8B3208F081E061E00C94081A909142
:103660007F0390FF07C09695981720F0961710F4E7
:103670000C94251B61E00C94081A3F924F925F92C4
:103680006F927F928F929F92AF92BF92CF92DF9272
:10369000EF92FF920F931F93CF93DF9300D000D050
:1036A0000F92CDB7DEB77C01DC0113968D919C9112
:1036B0001497892B41F01C911196DC90812F8D215C
:1036C0008F3F09F0C3C70F900F900F900F900F908E
:1036D000DF91CF911F910F91FF90EF90DF90CF90EE
:1036E000BF90AF909F908F907F906F905F904F9022
:1036F0003F9008950E94240C082F682F89819A8199
:103700000E94A808E12FF0E0B9E0DB9EE00DF11D7A
:1037100011242AE5029FE00DF11D1124EE0FFF1F79
:10372000E853FA4F05911491D70112968C918111AB
:10373000B4C0F70142814111EEC0C80197558F3FD7
:10374000910511F008F04BC020912C01022E000CC5
:10375000330B2817390714F480932C0126E1289F96
:103760005001299FB00C112495012A5E3E4F69013A
:10377000D90150964C935097F701928116968C91EF
:103780001697992309F4CAC11A961C930E93199798
:103790008F5F16968C930E944108D6011E969C93CB
:1037A0008E931D978091370317968C93179780916E
:1037B000350390913603892B18968C931897ED91C9
:1037C000FC911197309739F054966D917C91C50119
:1037D000845E9E4F09951093A6020093A502109255
:1037E000BD02083FFCE51F0709F0A6C1D7011296EC
:1037F0008C91882309F4C2C181E080932D01F701E7
:103800009281992309F44AC71092BD030230FCE566
:103810001F0708F49AC306312CE5120738F0980107
:103820002B5F3C452930310508F08FC30E94F00E14
:1038300090935C0380935B0300313CE5130709F42C
:1038400053C308F0E6C208305CE5150709F442C32B
:1038500008F0B5C204309CE5190709F433C308F039
:103860009BC20230BCE51B0709F426C380915B03B1
:10387000826003301C4509F422C360915B03109100
:103880005C0384E090E00E94A431612F81E290E02B
:103890000E94A4310E94161751C080912C018F3FC5
:1038A00009F447CFF6E1CF2EF1E0DF2EB12CA12CA9
:1038B0009924939480912C01082E000C990B8A1561
:1038C0009B050CF436CFD60116968C91169788235B
:1038D000D9F019968D919C918017910739F48091B8
:1038E000A5029091A6028017910771F0F6019786C4
:1038F000148703878189811103C0C6010E94710E5C
:10390000C60106960E94920EFFEFAF1ABF0A26E18B
:10391000C20ED11CCFCF0E3B3CE5130709F470C09B
:1039200088F50C3B8CE5180709F468C080E00D3B76
:103930009CE5190709F001CF0E94D416809133034A
:10394000877009F4C0CED70112968C91882309F4B0
:10395000BACE82E00F900F900F900F900F90DF91F2
:10396000CF911F910F91FF90EF90DF90CF90BF907C
:10397000AF909F908F907F906F905F904F903F900F
:103980000C94940D003CACE51A0709F491C008F4BE
:1039900068C0013CECE51E0709F0CFCE9091A4026F
:1039A000892F8695869586958F5F8F719770843065
:1039B00008F0B1C0880F880F880F892B8093A4026C
:1039C0008091A402887F91E009F490E06091A402C4
:1039D00090FB60F96093A40286E090E00E94A4311D
:1039E00080918D0380FF37C08091A40286958695D3
:1039F00086951F928F9382E295E025C083E09CCF4D
:103A00008091A402982F987F89F088508093A40217
:103A1000887F91E009F490E06091A40290FB60F946
:103A20006093A40286E090E00E94A43180918D030F
:103A300080FF11C08091A4028695869586951F927D
:103A40008F9389EC94E09F938F930E949A060F9036
:103A50000F900F900F908091A40286958695869581
:103A600057C08091A402982F96959695969593307D
:103A700040F49F5F990F990F990F8770892B80935E
:103A8000A4026091A40261606093A40286E090E0C9
:103A90000E94A43180918D0380FFDDCF8091A4022C
:103AA0008695869586951F928F9381EE94E0CBCF75
:103AB0001091A402117080918D0380FFEAC51F92BE
:103AC0001F938CE095E09F938F930E949A060F902E
:103AD0000F900F900F90112309F4DDC58091A4027F
:103AE00080FF2CCF6091A4026E7F6093A40286E0D9
:103AF00090E00E94A43180918D0380FF08C089EF7F
:103B000094E09F938F930E949A060F900F9080E00D
:103B10000E94160913CF9093A40252CF882309F470
:103B20005ECEF9018189882309F459CEC501845EEE
:103B30009E4F0E94920E53CE093FBCE51B0781F4B5
:103B4000F70182818823D1F01092B80210922D01E2
:103B50001092BA021092B90281E00E940E114FCE6B
:103B600080912D010A3FFCE51F0741F4D701129611
:103B70009C91992319F08111E7CF3ECED0902D0171
:103B8000DD2021F11092BC021092BB02C12C75E025
:103B9000572E88248394912C442443946090BB0234
:103BA0007090BC0283E06816710468F18091BD02D8
:103BB000882309F4ACC00E9441089093BA02809314
:103BC000B90280E00E940E11C110B8CE043FBCE5DE
:103BD0001B0709F4D2C008F04CC5093DFCE51F07DE
:103BE00009F4C7C00A3D2CE5120709F4D2C0083D0C
:103BF0003CE5130709F003CE26E241EE61EEC70172
:103C00000E9465109BCE569CF001579CF00D11242C
:103C1000E25DFE4F808191813FEF20E0E22FF0E0F6
:103C2000EE0FFF1FE80FF91F459154910417150778
:103C300009F4322F452B11F02F5FF0CF3F3FE9F40D
:103C4000312CC328DD2059F0569CF001579CF00D13
:103C50001124E25DFE4FDD24D39484818111D12CA7
:103C60005D2D5170D52E8091BB029091BC020196C2
:103C70009093BC028093BB0291CF3090B802F701C1
:103C80009281569CF001579CF00D1124E25DFE4F8D
:103C90008481540101C0AA0C3A95EAF79923B9F03E
:103CA000A82AA482332061F2C40102C0880F991FA0
:103CB0002A95E2F70197A816190619F682819381D1
:103CC000009711F00E94D9104092BD02BACFA40112
:103CD00002C0440F551F2A95E2F79A01215031097D
:103CE0008217130691F482819381009711F00E944C
:103CF0004C0E569CF001579CF00D1124E25DFE4FD6
:103D0000A0948481A822A4829CCF312CF2CFC11030
:103D10000EC081E00E940E11DD2009F457CF1092F1
:103D2000BA021092B90281E08093B8024FCFD70156
:103D300012968C91882309F401CE8091B8028823D1
:103D400009F4FCCD0E9441089093BA028093B90215
:103D5000E091B702E83008F0F1CD81E08E0F80935A
:103D6000B702F0E0EE0FFF1FE955FD4F118300830E
:103D7000E5CD27E245EE65EE42CF26E241EE60EE6C
:103D80003ECF27E245EE64EE3ACF26E241EE62EE08
:103D900036CF28E241E0EFCF80915B0380610630AF
:103DA000FCE51F0709F48BC080915B038860073036
:103DB0001C4508F484C080915B03806280C08091C0
:103DC0005B038D7F0C303CE5130709F478C070F479
:103DD00080915B038C600A305CE5150709F46FC0C5
:103DE00008F47CC080915B038E7F69C080915B0387
:103DF000877F0E309CE5190709F461C080915B0351
:103E00008B7F0F301C4508F45AC080915B038F7E76
:103E100056C00C3FBCE51B0709F458C030F5033110
:103E2000FCE51F0709F468C078F401313CE513078D
:103E300009F45EC002311C4509F01FCD0E9416171F
:103E400080915B038F773BC005315CE5150709F472
:103E50005BC008F46FC080915C0381600B3F1C4520
:103E600009F00BCD80935C0308CD0115ADE51A0771
:103E700009F446C088F480915C038D7F0E3FECE529
:103E80001E0781F380915C038E7F0F3F1C4550F32A
:103E900080915C038360E6CF02302DE5120709F4C0
:103EA00052C0F0F160E003301D4509F0E6CC8EE031
:103EB00090E00E94A431E1CC80915B03816080930B
:103EC0005B03DBCC80915B038460F9CF80915C0362
:103ED0008260C8CF80915B038064F1CF0E94161787
:103EE00080915B038068EBCF80915B038F7DE7CF90
:103EF00080915B038F7BE3CF80915B03837FDFCF78
:103F000080915C038C7FAECF80915B0382FB99270D
:103F100090F921E0922790FB82F990FB83F9CFCFB3
:103F200080915C03982F909591708E7F892B90FBE8
:103F300081F998CF0E94161790915B03892F97FB08
:103F400087F98058BCCF61E0B2CF06315CE5150738
:103F500009F0B1C3809136038A7A91E009F490E0C8
:103F60009093BE02811106C089E20E9467080E94F8
:103F7000ED0CE4CC85E3F9CF85E39AC380918D0302
:103F800080FF10C080917F03809581701F928F9376
:103F90008EE695E09F938F930E949A060F900F9064
:103FA0000F900F9080917F0380FF33C08E7F8093AE
:103FB0007F0360917F0370918003809181039091D2
:103FC00082030E94501580918D0380FF0FC0809165
:103FD0007F0381701F928F9386E395E09F938F9369
:103FE0000E949A060F900F900F900F900E94DC0E87
:103FF000809186038160809386038FEF90E7A2E033
:1040000081509040A040E1F700C000000E942D11B7
:1040100095CC0E94671A92CC4CE15BE165E27BE1B2
:104020000E9470098BCC45E25BE16CE17BE1F8CF4B
:1040300049E856E162E976E1F3CF42E956E169E801
:1040400076E1EECF41E756E16DE776E1E9CF4DE766
:1040500056E161E776E1E4CF49E556E165E676E1D0
:10406000DFCF45E656E169E576E1DACF4BE956E187
:104070006CEA76E1D5CF4CEA56E16BE976E1D0CF38
:1040800061E081E00E94081A59CC65E082E00E945C
:104090002F1B54CC68E086E0FACF6EE089E0F7CFC2
:1040A00064E18FE0F4CF67E185E1F1CF61E088E181
:1040B000E9CF62E289E1EBCF61E083E2E3CF909167
:1040C0008D03892F8E7F90FF816080938D0380FF09
:1040D00005C087EB95E00E94010630CC85EA95E0AB
:1040E000FACF0E94831A2ACCF7010081118199230B
:1040F00009F440C0C8010E94240CD82E682FC801C2
:104100000E94A808B8018D2D0E94740A8C01882E87
:10411000D7011596AC901597A2944FE0A422129661
:10412000DC90D1101092350380913303877099F0A1
:10413000DD2089F0812F807F803421F080E2800FA4
:10414000883048F082E00E94940D8091330387709C
:10415000CC24C3948111C12CB12EB2943FE0B32280
:10416000BBE0BB1508F43DC0EB2DF0E0EB5AFD4C75
:104170000C941231C8010E948008D82EC3CFE12FC1
:10418000EF70AE2E107F19F0A29420EFA222DD2056
:10419000C9F0AA2069F080E2800F883010F0811009
:1041A0000BC080913603A82AA09236030E94ED0C22
:1041B000802F0E94C80F15C080913503A82AA092B5
:1041C0003503F4CF802F0E94FD0DAA2051F0005E30
:1041D000083010F0811047C08A2D0E9453080E94B9
:1041E000ED0C2B2D2850330B2430310520F40E9488
:1041F0000A090E94940CCC20B1F08091330380FD19
:1042000012C0D70112961C928595859585950E94BE
:10421000AC0DC7010E943D1B8091330385958595A8
:1042200085950E94710D85E0F701DE0111960190E0
:104230000D928A95E1F789819A810E9480089A817E
:10424000E981F0E0B9E09B9FE00DF11D11242AE522
:10425000829FE00DF11D1124EE0FFF1FE853FA4F6E
:104260008591949130CAA09480913503A822A092A0
:104270003503B5CFF12FFF709F2E107F103219F04C
:10428000929490EF9922882089F021E0821679F1AA
:10429000DD20D1F1AA2089F1D70115968C911597CF
:1042A00080FF86CF8F7015968C9327C0DD2091F00C
:1042B00090913703892D892BA11003C00E94F30D23
:1042C00090CF31E0A312FACF981709F48ACF8093E8
:1042D000370387CFA11006C00E944D08892D0E9488
:1042E000EC0D7FCF41E0A41609F47BCFF5CFDD20A4
:1042F00031F055E05A1508F474CF892DDFCF84E0F2
:104300008A1508F46ECFEACFAA2041F3B9E38B12E5
:104310000DC0EFEFF7EE23E0E150F0402040E1F771
:1043200000C00000802F0E94FD0D5BCF8FE19EE456
:104330000197F1F7F5CF812F86958695837061F00F
:10434000813009F04ECFC8019370D11002C090E0C7
:1043500080E00E94DE0845CFC8019370D11002C0F2
:1043600090E080E00E94F4083CCF812F837009F038
:1043700066C0D11036CF802F829586958770880FC2
:10438000880F602F6F70462E512C712C612C082ED7
:1043900004C0440C551C661C771C0A94D2F740E0FC
:1043A00050E0BA0104FF0FC04FE050E060E070E061
:1043B00004C0440F551F661F771F8A95D2F740959A
:1043C000509560957095812F869586958370823083
:1043D00019F1D8F4009138031091390320913A0370
:1043E00030913B03813069F04429552966297729AA
:1043F000CB01BA0160237123822393230E94CD0D48
:10440000F0CE402A512A622A732ACB01BA016429CC
:10441000752986299729F2CF4429552966297729B4
:10442000009138031091390320913A0330913B03F6
:10443000CB01BA016027712782279327DFCF8695AA
:10444000DD2011F0812F8170882309F4CACE802FDE
:10445000829586958770880F880F602F6F70462E23
:10446000512C712C612C082E04C0440C551C661C68
:10447000771C0A94D2F740E050E0BA0104FF0FC065
:104480004FE050E060E070E004C0440F551F661F2D
:10449000771F8A95D2F74095509560957095812F3A
:1044A000869586958370823019F1D8F40091570370
:1044B000109158032091590330915A03813069F0CB
:1044C0004429552966297729CB01BA016023712334
:1044D000822393230E94670D84CE402A512A622AA8
:1044E000732ACB01BA016429752986299729F2CF4D
:1044F00044295529662977290091570310915803BB
:104500002091590330915A03CB01BA0160277127DA
:1045100082279327DFCF1F70DD2029F0812F0E9493
:10452000AC0D802FCBCE802F0E94EC0D812F0E94EE
:10453000710D57CE802F92EF891609F450C098154F
:1045400078F0A0EF8A1619F1B1EF8B1609F43FC08D
:10455000DD2009F467C0A1102BCE812F8F713CC0E4
:10456000E3EF8E1609F440C0F4EF8F12F1CFDD2097
:1045700009F44DC01F71812F0E94AC0D48E0149FBB
:10458000C0011124836080933303812F25C0DD2077
:10459000C9F024E02A1508F424CE1F7161E070E010
:1045A00080E090E004C0660F771F881F991F1A955E
:1045B000D2F700915703109158032091590330917D
:1045C0005A03A4CF35E03A1508F40BCEE6CF812F7D
:1045D0008F71DD2009F4ABCF0E94AC0D02CE812F8C
:1045E0008F71DD20C9F3A3CF60E070E0CB01DD2047
:1045F00009F470CF1F7161E070E080E090E004C0CA
:10460000660F771F881F991F1A95D2F763CF81E035
:104610000E94940D51E05A1508F0E3CD82E00E940B
:10462000940DDFCDAA2079F0893341F48FEF97EE16
:10463000A3E081509040A040E1F772CEEFE1FEE4AC
:104640003197F1F76DCE812F8F7171CF85E0F70132
:10465000DE01119601900D928A95E1F7D70112962D
:104660002C9189819A81211145C80E948008082FC8
:1046700049C8063F4CE5140709F487CB08F481CB01
:1046800027E245EE66EE073F8CE5180709F4B7CA46
:10469000B6C8111127CA0E94F01650C90631ACE500
:1046A0001A0709F045C08091BE02811165CC89E2EC
:1046B0000E945A085CCC0130BCE51B0709F4FFCC12
:1046C0000F3DECE51E0709F40CCD01151C4509F062
:1046D0000BCD0E941617BFEFE4E3FCE0B150E040C1
:1046E000F040E1F700C0000081E08093E00080E24C
:1046F0008093D8001092C9008FE19EE40197F1F7F2
:1047000000C0000087E090EBDC018093C103909330
:10471000C203A093C303B093C40388E19CE00FB627
:10472000F894A895809360000FBE90936000FFCF2F
:10473000809136038272F801E35CFC45E431F105B7
:1047400008F0D2CCEF59FD4C0C9412311F93CF934B
:10475000DF938091C402807FA9F48091C1028823F5
:1047600089F08091F602D091C5026091BF027091EC
:10477000C002A091C202B091C302C62FC72316E0A7
:10478000D81304C0DF91CF911F91089590E0109746
:1047900011F0CF3F19F401968770F2CF189F900166
:1047A000199F300D1124F901EA53FD4F4181471340
:1047B000F2CF40814613EFCF42814111ECCF4381CC
:1047C00054814A1B5B0B483C510528F78091C40279
:1047D0008F7080618093C402F901E553FD4F8081A1
:1047E0008F70806180838FEB92E00E943D1BDF9190
:1047F000CF911F910C94D408AF92BF92CF92DF92C9
:10480000EF92FF920F931F93CF93DF93CDB7DEB755
:1048100061970FB6F894DEBF0FBECDBF8C0185E067
:10482000F801DE011D9601900D928A95E1F7F801DD
:1048300080819181E2802FEBA22E22E0B22E609146
:10484000C2027091C3026115710509F43EC1309135
:10485000BF024091C002232F24232F3F09F435C10A
:10486000C380D480F090C102F601E61BF70BFF2055
:1048700009F4FBC02091C402522F507FE83CF1059F
:1048800008F0BBC0511178C0FE2C491321C0381369
:104890001FC0E1101DC02F7020612093C402C5010C
:1048A0000E943D1B8091C402F80185838F2D619683
:1048B0000FB6F894DEBF0FBECDBFDF91CF911F9131
:1048C0000F91FF90EF90DF90CF90BF90AF90089541
:1048D000CD2829F0282F29232F3F09F014C120E0EB
:1048E000F22FF170DF2E20FF3DC02091F6024091A3
:1048F000C50256E0241315C08D879E878D859E8541
:104900000E94660C292F22952F702230F8F0243057
:1049100020F59F70F9F0F8019581907FD9F4D12CA2
:104920001FC030E0529FF001539FF00D1124EA5355
:10493000FD4F6181961306C06081861303C06281BA
:10494000E61210C02F5F3F4F2770D4CF9F7011F039
:10495000882329F3805E883010F3C8010E943D1B34
:10496000FD2CA4CFEE2009F4A1CF8091C402816078
:104970008093C402F12C9ACF491312C0381310C08F
:10498000E1100EC0F8012583C8010E943D1B86E09E
:10499000F801AFEBB2E001900D928A95E1F786CF76
:1049A0008D879E878D859E850E94700C882309F1D6
:1049B000EE20F9F08091C402803270F02091BF02A5
:1049C0003091C00238872F831986DB86CA868C8790
:1049D000CE0107960E943D1B86E0F801AFEBB2E0E6
:1049E00001900D928A95E1F70E94A623FF24F3948B
:1049F0005DCFC8010E943D1BF9CF51110AC08FEB5A
:104A000092E00E943D1B86E0F50111928A95E9F73C
:104A1000B1CF49130FC038130DC0E1100BC0F8011E
:104A20002583C8010E943D1B86E0F50111928A95FD
:104A3000E9F73CCF8D879E878D859E850E94700CFF
:104A40008823B9F2EE20A9F28091C402803220F2CC
:104A50002091BF023091C0023A8329831B82DD82FC
:104A6000CC828E83CE010196B5CFE83CF105E0F60D
:104A7000FE2CEE2009F4BDCF491316C0381314C024
:104A80008091C40280FD83CF982F907F09F47FCF5F
:104A9000F8018583903F09F477CF982F907F905F3E
:104AA0008F70892B858370CF8D879E878D859E859E
:104AB0000E94700C811190CF8091C402816080931C
:104AC000C402C8010E943D1BF1CEEE2009F491CF33
:104AD0008D879E878D859E850E94700CF82E882379
:104AE00009F487CF86E0F801AFEBB2E001900D92B8
:104AF0008A95E1F78091BF029091C0020E94660CF6
:104B00000E94A623D3CE21E02E25EACE1F93CF9379
:104B1000DF93CDB7DEB767970FB6F894DEBF0FBE51
:104B2000CDBF4B8B5C8B6D8B7E8B8F8B1A8A198ADA
:104B300085E0FE017396DE011D9601900D928A9527
:104B4000E1F786E0FE013D96DE01179601900D9299
:104B50008A95E1F7CE0107960E94FC23882389F00D
:104B600016E08091F6029091C502891349C06796BC
:104B70000FB6F894DEBF0FBECDBFDF91CF911F916E
:104B8000089586E0FE013796DE01119601900D92A0
:104B90008A95E1F78A859B85892B11F38F8198850A
:104BA00089238F3FE9F22091C50230E0C9010196C7
:104BB000877099274091F6024817190671F40E94F0
:104BC00016171092C5021092F60286E0EFEBF2E0A3
:104BD000DF011D928A95E9F7C3CF96E0929FD0013D
:104BE000939FB00D1124AA53BD4FFE013196019041
:104BF0000D929A95E1F78093C5020E94D408B0CF38
:104C0000819FC00111248A539D4F0E94FC23882359
:104C100009F4ADCF8091F60290E001968770992754
:104C20008093F6029ECF8F929F92AF92BF92CF92C7
:104C3000DF92EF92FF920F931F93CF93DF935BE589
:104C4000E52E51E0F52E01E413E06801D0E0AA243E
:104C5000A394B12CD7018D917D01F894E82FE295B2
:104C6000EF70F0E021A18F70A50102C0440F551F25
:104C70008A95E2F7CA01922F982B91A392A1809571
:104C8000892382A3789450EA5A95F1F7E2E5F1E09E
:104C900030E020E0912C812C4191A42FA295AF709F
:104CA000B0E090968C9190E04F7002C095958795FA
:104CB0004A95E2F780FD4FC0C501022E02C0880F61
:104CC000991F0A94E2F7882A992A2F5F3F4F2930CB
:104CD000310511F7F701319780810E941A0AD60138
:104CE0008D919C91119788169906C1F18D929C9295
:104CF00081E0D82BB2E0CB0ED11CE0E6EE16E1E06D
:104D0000FE0609F0A7CFC0915603DD2349F181E0EB
:104D1000809305020E94410890930402809303024D
:104D200080910302909104020E9432080697E0F0FD
:104D3000EC2FF0E0EE0FFF1FEE59FC4FD8018D91E4
:104D40009D918D0181939193B3E00B341B07B1F7D3
:104D50001092050209C090E080E0B5CF80E0C9CF95
:104D6000809105028111DCCF0E942915882309F466
:104D700015C1C0915503809186038823E9F085E031
:104D8000EFE7F3E0A6E0B2E001900D928A95E1F73B
:104D90008091840390918503A091860380930B02F8
:104DA00090930C02A0930D0281E090E00E9450309D
:104DB000892B11F41092860390E080E00E9450301D
:104DC000009711F180911B028F5F80931B02863048
:104DD00008F063C080912C01C0E066E1F62E8F3FA1
:104DE00009F0B8C080912D018111C0C08D2FDF91D5
:104DF000CF911F910F91FF90EF90DF90CF90BF90D8
:104E0000AF909F908F900895EC2FF0E0EE0FFF1F72
:104E1000EE59FC4FDC01AA0FBB1FA05FBD4F2D91C7
:104E20003C912193319301968530910599F78091BA
:104E3000A40280FF1CC086958695869580930F02FC
:104E4000F0905E030F2D10E009571C4FC0911A021D
:104E5000F8018081C81BEC2E1E145CF08C2FC7FD5E
:104E600080E0C81BC1110FC010921B02B3CF80E0BD
:104E7000E5CFEA94D8018C918F5F8C9360E08F2D01
:104E80000E94C910E9CFCF5FF801808181508083F3
:104E900061E08F2D0E94C910E5CF8091550390E00D
:104EA000FC01EE0FFF1FEE59FC4F11821082FC0136
:104EB000EE0FFF1FEC59FC4F11821082FC01EE0F28
:104EC000FF1FEA59FC4F11821082FC01EE0FFF1FF9
:104ED000E859FC4F11821082880F991FFC01E65996
:104EE000FC4F1182108276CFF29EF001F39EF00DFE
:104EF0001124EA5EFE4FC288D388C114D10419F48C
:104F000078ECC72ED12CF29E8001F39E100D112457
:104F10000A5E1E4FD80116968C9116978823C9F009
:104F20001D968D919C910E943208C816D90688F46E
:104F3000CF9D60011124F8018189811105C0C6014E
:104F40008A5E9E4F0E94710EC601845E9E4F0E9433
:104F5000920ECF5F2C2F30E080912C01082E000C98
:104F6000990B821793070CF0BFCF3CCF8091B8020A
:104F7000882309F43BCF8091B9029091BA0200973F
:104F800009F434CF0E943208893C910508F42ECFF1
:104F90001092B80281E00E940E1128CFC0915603F2
:104FA00080910E028830A1F580910D0280FF0FC024
:104FB0009091060280917F0390FF4DC081608093A5
:104FC0007F038091060260E086950E94081A809116
:104FD0000D0281FF09C020E04091090260910802A2
:104FE000809107020E94621580910D0282FF07C026
:104FF00080910C02882309F454C00E94E119809129
:105000000D0283FF03C081E080937C0310920E02A7
:10501000EC2FF0E0EE0FFF1FEE59FC4F90E080E028
:1050200021913191DC01AA0FBB1FA05FBD4F1196EA
:105030003C932E9301968530910591F780910F0254
:105040000E941609E0918A03F0E0E957FC4F808145
:1050500080931A02CBCE8E7F80937F0380918D0345
:1050600080FF0CC01F921F9282E591E09F938F9367
:105070000E949A060F900F900F900F900E94DC0EE6
:1050800080918603816080938603FFEF20E742E0F2
:10509000F15020404040E1F700C000000E942D1177
:1050A00096CF0E94DC0EABCF1F920F920FB60F92DD
:1050B00011242F933F934F935F936F937F938F931D
:1050C0009F93AF93BF93CF93DF93EF93FF93D091D1
:1050D000E900DF708091EC00C82FC17080FDC0E84E
:1050E0001092E9008091F000877F8093F00078941F
:1050F0000E9421171092E9008091F000886080934F
:10510000F000CD2BCF70C093E900FF91EF91DF91BC
:10511000CF91BF91AF919F918F917F916F915F914F
:105120004F913F912F910F900FBE0F901F901895A8
:105130001F920F920FB60F9211242F933F934F930C
:105140005F936F937F938F939F93AF93BF93EF93EF
:10515000FF938091E10082FF15C08091E20082FF01
:1051600011C08091E1008B7F8093E1002091A30327
:105170002F5F822F62E30E94DE30992309F4C6C0BC
:105180002093A3038091DA0080FF28C08091D8008B
:1051900080FF24C08091DA008E7F8093DA008091B6
:1051A000D90080FFE9C080E189BD82E189BD09B4F1
:1051B00000FEFDCF81E08093B1038FE99AE00E9469
:1051C00001068091A403811109C00E94A3060E94D8
:1051D0006E078091E20084608093E2008091E1009C
:1051E00080FF1BC08091E20080FF17C08091E20029
:1051F0008E7F8093E2008091E20080618093E200E4
:105200008091D80080628093D80019BC85E080939B
:10521000B10387EA9AE00E9401068091E10084FFD1
:1052200035C08091E20084FF31C080E189BD82E118
:1052300089BD89B5982F917080FFFBCF8091D800F0
:105240008F7D8093D8008091E1008F7E8093E10074
:105250008091E2008F7E8093E2008091E200816085
:105260008093E2008091B203882309F48FC084E028
:105270008093B1038BEA9AE00E9401060E94161700
:105280000E94FE1A0E940A090E94940C8091E1007B
:1052900083FF2BC08091E20083FF27C08091E10053
:1052A000877F8093E10082E08093B1031092B20384
:1052B0008091E1008E7F8093E1008091E2008E7FFB
:1052C0008093E2008091E20080618093E20042E0FE
:1052D00060E080E00E943C078091F000886080934D
:1052E000F0008FEA9AE00E940106FF91EF91BF91D2
:1052F000AF919F918F917F916F915F914F913F916E
:105300002F910F900FBE0F901F9018951092A3032E
:105310008091A203882309F435CF8091B1038430B2
:10532000C1F49091E9009F702091EC00822F817070
:1053300020FD80E8892B93E09093E9009091EB00A9
:1053400090FF04C09091EE0097FD08C08F7080938D
:10535000E9001092A20316CF1092F1009091E8009C
:1053600095FDFACF9091E80090FFF0CF9091E80082
:105370009E779093E800EACF19BC1092B10383EABC
:105380009AE00E9401061092A40328CF8091E300C6
:1053900087FD93E09093B1036DCFCDB7DEB76497EF
:1053A0000FB6F894DEBF0FBECDBF84B7877F84BF32
:1053B0000FB6F894A8958091600088618093600092
:1053C000109260000FBE80E890E00FB6F8948093D2
:1053D0006100909361000FBE85B7806885BF85B777
:1053E000806885BF0E94A3060E946E078091E2003C
:1053F00084608093E2008EEF9EE09093F9018093A9
:10540000F80178948091B1038823A1F01091E9000C
:105410001F709091EC00892F817090FD80E8182B0F
:105420001092E9008091E80083FD0E9421171F700F
:105430001093E90082E084BD93E095BD9AEF97BD9B
:1054400080936E0087988F988FB1881F8827881F58
:105450008093650180916501882309F436C3109219
:105460003D0188E080933E010E942915882331F098
:1054700062E070E082E491E00E946E2F809165010D
:1054800081112EC0FE01359686E0DF011D928A95BE
:10549000E9F783E3898382E38A8386E38B8384E36A
:1054A0008C8387E98D833497ABE5B1E0CE010B9611
:1054B00021912D938E179F07D9F729E0E3E7F1E0BB
:1054C000DE011B9601900D922A95E1F7FC01A2E501
:1054D000B1E0CE01449621912D938E179F07D9F705
:1054E0008091650195E0811190E09093560385E0ED
:1054F000891B809355030BE511E050E6E52E51E042
:10550000F52EF80181918F010E941A0AE016F1062A
:10551000C1F702E511E04BE5E42E41E0F42ED8019D
:105520008D918D010E941A0AE016F106C1F7E1E49F
:10553000F3E085E593E0A2E6B3E0119211921D92AB
:105540001D928E179F07C9F70E944515811102C051
:105550000E94831A259A2D9882E88093800089E121
:10556000809381008FEF9FEF909387008093860058
:105570000E94FE1A269A0E942915811106C062E037
:1055800070E082E491E00E94772F0E94451581111E
:1055900002C00E94831A82E090E00E9490318093C2
:1055A0008D030E94F00E90935C0380935B0383E075
:1055B00090E00E949031682F70E090E080E00E94BF
:1055C000CD0D0E94FE1A80915D038111E7C080918C
:1055D0008D0380FF14C084EF99E09F938F930E9406
:1055E0009A0680918D030F900F9080FF08C08EED7A
:1055F00099E09F938F930E949A060F900F900E94BC
:105600004515811110C080918D0380FF08C086EB85
:1056100099E09F938F930E949A060F900F900E949B
:10562000831A0E94BD1688E090E00E949831609332
:105630007F03709380038093810390938203809112
:1056400086038360809386036E7FD1F480918D03FF
:1056500080FF08C08DE699E09F938F930E949A0681
:105660000F900F900E94BD1688E090E00E94983144
:1056700060937F03709380038093810390938203F0
:105680000E94750980918D0380FF76C084E599E0C2
:105690009F938F930E949A0680918D030F900F9095
:1056A00080FF6AC080917F0381701F928F9387E390
:1056B00099E09F938F930E949A0680918D030F909B
:1056C0000F900F900F9080FF57C080917F038695B9
:1056D0001F928F938CE199E09F938F930E949A067B
:1056E00080918D030F900F900F900F9080FF44C01A
:1056F000809180031F928F9382E099E09F938F9314
:105700000E949A0680918D030F900F900F900F903A
:1057100080FF32C0809181031F928F9388EE98E0C2
:105720009F938F930E949A0680918D030F900F9004
:105730000F900F9080FF20C0809182031F928F9363
:105740008EEC98E09F938F930E949A0680918D0330
:105750000F900F900F900F9080FF0EC080918303E9
:105760001F928F9382EB98E09F938F930E949A06EB
:105770000F900F900F900F901092850380918603E9
:1057800084608093860380917F0380FF04C060E083
:1057900086950E94081A81E080935D0380916501DF
:1057A000811106C086E98093670184E980936601D0
:1057B00020916701A22FA295AF70B0E091963C9125
:1057C00091972F7081E090E0BC01022E01C0660F1E
:1057D0000A94EAF7462F4095432391964C9391976C
:1057E00092963C919297362B92963C939297409149
:1057F0006601E42FE295EF70F0E031A14F70042EC6
:1058000001C0880F0A94EAF7982F9095932391A3EB
:1058100092A1892B82A390968C9190E002C09595DD
:1058200087952A95E2F7817020A130E002C0359576
:1058300027954A95E2F792E020FF90E0892B80932C
:105840008B039091650181E0982790938A03891BCF
:1058500080935E0388E691E09093600380935F03FA
:105860008EE89AE00E9401068091B103853009F428
:1058700030C10E9413260E942915811170C18FEF3B
:105880008B878C871D860E9441088160782F9F87B7
:105890008E874B855C856D858F850E9486258091DE
:1058A0008503882309F477C080918403E0917F0306
:1058B000E695E81BE0937B03823009F0E1C1F0E05C
:1058C000E459F54FE4910E2F10E0F5E0EF2EF5E1ED
:1058D000FF2E80917C03882389F010927C030E9424
:1058E0004108980120953095820F931F90937A0379
:1058F0008093790310927E0310927D038091790347
:1059000090917A030E9432088017910708F443C0EF
:1059100080917803882311F11092780380917603A7
:10592000909177030E94320880339547B8F00E9427
:105930004108909377038093760380918D0380FFD5
:1059400008C082E39AE09F938F930E949A060F907B
:105950000F9080918603886080938603C0907D03BA
:10596000D0907E03E0917903F0917A030E0F1F1F10
:1059700010937A030093790389E793E0F70109957F
:1059800080917D0390917E03892B29F4CD2819F015
:1059900081E08093780380918B03E82FEE0FEE0F68
:1059A00080916701A82FA295AF70B0E090962C91DE
:1059B00030E08F7002C0359527958A95E2F7217007
:1059C000332790916601A92FA295AF70B0E0909611
:1059D0004C9150E09F7002C0559547959A95E2F71B
:1059E000CA018170992740FF02C082E090E0822BBB
:1059F0008E2B80938B0310918A038F70E82FF0E039
:105A0000E852FE4F808190918903890F809389032A
:105A100084306CF0E12F012E000CFF0BE957FC4F96
:105A200080818F5F808360E0812F0E94C910809108
:105A300089038D3F6CF4E12F012E000CFF0BE95719
:105A4000FC4F80818150808361E0812F0E94C910CA
:105A500080918903082E000C990B64E070E00E948D
:105A6000FE30809389030E940A0990918C03891764
:105A700009F4FACE0E940A09182F80938C038091B2
:105A80008D0382FF1EC080FF1CC087E79AE00E9442
:105A9000010680918D0380FF14C01F921F9382E73F
:105AA0009AE09F938F930E949A0680918D030F90A6
:105AB0000F900F900F9080FF04C080E79AE00E9443
:105AC0000106812F0E94940CCFCE88E080933D0187
:105AD000C9CC8AE89AE00E9401068091B103843023
