:100000000C94EF040C94E21B0C9436050C9436050A
:100010000C9436050C9436050C9436050C94360574
:100020000C9436050C9436050C94082F0C94DC2F98
:100030000C948E290C9436050C9436050C943605D8
:100040000C9436050C9436050C9436050C94360544
:100050000C9436050C94D9290C9436050C9436056D
:100060000C9436050C9436050C9436050C94360524
:100070000C9436050C9436050C9436050C94360514
:100080000C9436050C9436050C9436050C94360504
:100090000C9436050C9436050C9436050C943605F4
:1000A0000C9436050C9436050C94360500000000BF
:1000B000165C1E001F00200021002200230000000B
:1000C00000002B0014001A000800150017000000A3
:1000D00000000000390004001600070009000A00B3
:1000E000000000000000E10000001D001B000600F1
:1000F0001900050000000000E000E200E3000151EB
:1001000000002C00000024002500260027002D0000
:100110002E004C002A0000001C0018000C001200E9
:1001200013002F003000310000000B000D000E0006
:100130000F00330034000000280000001100100000
:100140003600370038000000E50052000000015181
:100150002A00E600E4005000000051004F000000BB
:1001600000000000165C3A003B003C003D003E00F1
:100170003F0000000000C35CC45C010052000100AD
:1001800001000000000000000100010050005100CB
:100190004F0001000000000000000100000001000D
:1001A0000100010001000100000000003502010013
:1001B0000100010000000100000040004100420079
:1001C0004300440045004C002A00000001000100EB
:1001D0000100010001000100010001000000010018
:1001E0000100010001000100010000000100000009
:1001F00001000100010001000100000001000100F8
:1002000000000100010001000100010000000100E8
:100210000100000044454255473A20646973616219
:100220006C65642E0A0044454255473A20656E616C
:10023000626C65642E0A000A002530313662003A8D
:10024000200025303258000A722F632030313233BB
:100250003435363738394142434445460A007267DF
:10026000626C6967687420616E696D6174696F6E34
:10027000207469636B207265706F727420746F20D4
:10028000736C6176650A007267626C6967687420D6
:1002900074696D65722064697361626C652E0A0011
:1002A0007267626C696768742074696D6572206535
:1002B0006E61626C65642E0A007267626C696768C1
:1002C000742073657420687376205B4E4F454550EB
:1002D000524F4D5D3A2025752C25752C25750A0049
:1002E0007267626C696768742073657420687376DE
:1002F000205B454550524F4D5D3A2025752C2575A4
:100300002C25750A007267626C69676874207261D7
:10031000696E626F7720736574206873763A202562
:10032000642C25642C25642C25750A007267626C88
:10033000696768742064697361626C65205B4E4F05
:10034000454550524F4D5D3A207267626C6967684F
:10035000745F636F6E6669672E656E61626C65209F
:100360003D2025750A007267626C696768742064B5
:10037000697361626C65205B454550524F4D5D3A33
:10038000207267626C696768745F636F6E66696725
:100390002E656E61626C65203D2025750A007267CE
:1003A000626C6967687420656E61626C65205B458C
:1003B0004550524F4D5D3A207267626C69676874B0
:1003C0005F636F6E6669672E656E61626C65203D66
:1003D0002025750A007267626C6967687420746F03
:1003E00067676C65205B454550524F4D5D3A207202
:1003F00067626C696768745F636F6E6669672E65B4
:100400006E61626C65203D2025750A007267626C22
:1004100069676874206D6F6465205B4E4F45455079
:10042000524F4D5D3A2025750A007267626C69670C
:100430006874206D6F6465205B454550524F4D5D7B
:100440003A2025750A007267626C696768745F6993
:100450006E6974207267626C696768745F636F6E3F
:100460006669672E6D6F6465203D20302E205772BF
:100470006974652064656661756C742076616C755D
:10048000657320746F20454550524F4D2E0A0072FF
:1004900067626C696768745F696E6974206565631B
:1004A0006F6E666967206973206E6F7420656E6178
:1004B000626C65642E0A007267626C696768745FBB
:1004C000696E6974207374617274210A00726762C4
:1004D0006C696768745F696E69742063616C6C65D0
:1004E000642E0A007267626C696768745F636F6E7E
:1004F0006669672E7370656564203D2025640A0077
:100500007267626C696768745F636F6E6669672E95
:1005100076616C203D2025640A007267626C696711
:1005200068745F636F6E6669672E736174203D2027
:1005300025640A007267626C696768745F636F6E36
:100540006669672E687565203D2025640A0072671C
:10055000686C696768745F636F6E6669672E6D6F3C
:100560006465203D2025640A007267626C696768D3
:10057000745F636F6E6669672E656E61626C65207D
:100580003D2025640A007267626C696768745F6366
:100590006F6E66696720454550524F4D3A0A0032EA
:1005A000190A00047F3F1F643214643214783C1E21
:1005B0001E140A052223252628292A2C2D2F303205
:1005C000333536383A3B3D3E4042434547494A4C35
:1005D0004E5051535557595A5C5E60626466686963
:1005E0006B6D6F71737577797B7D7F81838587896B
:1005F0008A8C8E90929496989A9C9E9FA1A3A5A770
:10060000A8AAACAEAFB1B3B4B6B8B9BBBCBEBFC19B
:10061000C2C3C5C6C7C9CACBCCCDCED0D1D2D2D326
:10062000D4D5D6D7D7D8D9D9DADADBDBDBDCDCDC3A
:10063000DCDCDDDDDDDDDCDCDCDCDCDBDBDBDADAFD
:10064000D9D9D8D7D7D6D5D4D3D2D2D1D0CECDCC74
:10065000CBCAC9C7C6C5C3C2C1BFBEBCBBB9B8B689
:10066000B4B3B1AFAEACAAA8A7A5A3A19F9E9C9A14
:1006700098969492908E8C8A89878583817F7D7BE2
:1006800079777573716F6D6B6968666462605E5CC3
:100690005A5957555351504E4C4A49474543424089
:1006A0003E3D3B3A3836353332302F2D2C2A29281F
:1006B00026252322FFAA7F55400102030C0D0E0FB1
:1006C00000070605040B0A09086261636B6C696721
:1006D000687420737465703A2025750A006261633E
:1006E0006B6C696768742064697361626C650A0089
:1006F0006261636B6C6967687420656E61626C65CA
:100700000A006261636B6C6967687420746F676765
:100710006C653A2025750A006261636B6C696768D5
:10072000742064656372656173653A2025750A00FB
:100730006261636B6C6967687420696E637265617E
:1007400073653A2025750A000001010101010101CC
:100750000101020202020202020202030303030376
:100760000303030404040404040405050505050645
:100770000606060607070707070808080809090903
:10078000090A0A0A0B0B0B0C0C0C0D0D0D0E0E0EAC
:100790000F0F0F101011111112121313141415153D
:1007A00016161717181819191A1A1B1B1C1D1D1EAF
:1007B0001E1F202021222223242425262627282903
:1007C000292A2B2C2D2D2E2F303132323334353631
:1007D0003738393A3B3C3D3E3F4041424344454631
:1007E0004748494A4C4D4E4F50515354555658590D
:1007F0005A5B5D5E5F616264656668696B6C6D6FB4
:100800007072737577787A7B7D7E80828385878826
:100810008A8C8E8F91939596989A9C9EA0A2A3A560
:10082000A7A9ABADAFB1B3B5B7BABCBEC0C2C4C661
:10083000C9CBCDCFD1D4D6D8DBDDDFE2E4E7E9EB1D
:10084000EEF0F3F5F8FAFDFF0A00253032582000EB
:100850006B6579626F6172645F7265706F72743A12
:1008600020000A0025303258006B6579626F617292
:10087000645F7365745F6C65643A20005B735D0050
:100880004B6579626F6172642073746172742E0AB1
:10089000005B575D005B535D005B525D005B445D38
:1008A000005B435D00220351007500650066007225
:1008B0000065006E0063007900200052006500763C
:1008C000002E002000320000000E034B0065006582
:1008D00000620069006F0000000403090409025B64
:1008E00000030100A0FA090400000103010100094E
:1008F00021110100012240000705810308000A09B7
:10090000040100010300000009211101000122324D
:10091000000705820320000A090402000203000008
:100920000009211101000122220007058303200094
:100930000107050303200001120110010000000857
:1009400010CB57220002010200010631FF0974A1F9
:10095000010975150026FF009520750881020976AA
:10096000150026FF00952075089102C00501098039
:10097000A101850319012AB700150126B7009501C9
:1009800075108100C0050C0901A101850419012A17
:10099000A002150126A002950175108100C0050175
:1009A0000906A101050719E029E7150025019508A9
:1009B000750181029501750881010507190029FF5C
:1009C000150026FF00950675088100050819012904
:1009D00005950575019102950175039101C01124DA
:1009E0001FBECFEFDAE0DEBFCDBF04B603FE27C0E7
:1009F0008091B1039091B203A091B303B091B4037D
:100A00008730904BA740B04BD1F41092B1031092B5
:100A1000B2031092B3031092B40314BE84B7877F5D
:100A200084BF0FB6F894A895809160008861809388
:100A30006000109260000FBEE0E0F8E3099512E05C
:100A4000A0E0B1E0E0E7F6E602C005900D92A0302C
:100A5000B107D9F723E0A0E0B2E001C01D92A13BAD
:100A6000B207E1F70E943F2C0C94FA320C9400007C
:100A7000FF93EF93E0910002F0910102309709F0AB
:100A80000995EF91FF910895FC018591803011F057
:100A9000EFDFFBCF0895FF27E0E230E247FF0CC015
:100AA000419597FF09C0EDE260957095809590950E
:100AB000611D711D811D911D27FF02C0219530E32D
:100AC00050E2AA27660F771F881F991FAA1FA41735
:100AD00010F0A41B63955A95A9F7AA3008F0A95FF6
:100AE000A05DAF93F395611571058105910541F7FF
:100AF000ED3211F4EF93F395F21718F43F93F39559
:100B0000FBCF8F91B5DFFA95E1F70895E991F9915F
:100B10008591803021F0853219F0AADFF9CF089550
:100B200020E0E89455915532C1F3503311F46894A4
:100B300055915A3348F4505390F3220F022E220F4E
:100B4000220F200D250FF4CF0EF421958991999154
:100B5000533619F3533729F1533559F1BC0188271E
:100B60009927E8945C3621F489919991689455917C
:100B7000543639F446EF7EF077FF0DC08FEF9FEFCC
:100B80000AC055374AE039F0583540E121F0523675
:100B900042E009F00895FF93EF937DDFEF91FF911D
:100BA000B7CFFF93EF93FC0181918030B9F360DF01
:100BB000FBCFFF93EF9368DFF1CFDF93CF93CDB7F8
:100BC000DEB72596A3DFCF91DF910895269A0C9486
:100BD0001409CF93C82F80911701882341F08C2FDF
:100BE0000E940407882319F0C1FD04C02E9A81E0F9
:100BF000CF9108952E98FBCF0E94981683E00E9413
:100C000048170E9472134FEF6FEF80E00E94B30FFE
:100C10008BE00E946F1360E070E0CB010E946D28B2
:100C20000C94792881E0089581E008950C941406CD
:100C300008950C9418061F93CF93DF9300D000D033
:100C40000F92CDB7DEB749835A836B833091A502EB
:100C500089819A8131111DC06623B9F02223A9F040
:100C60000E94ED26182F682F89819A810E9499266B
:100C700069817A81812F0F900F900F900F900F90C4
:100C8000DF91CF911F910C9412070E94C526182F57
:100C9000EFCF0E94ED2669817A81EDCFFC01262FEE
:100CA000408151816281738184810C941B06CF93B2
:100CB000DF93EC0160E00E944E06BE01DF91CF9110
:100CC0000C9419060E943628811102C00E94DC286B
:100CD0000E94E2170C94E6050C94160908950E94F0
:100CE00003220E946E062FEF84E39CE02150804097
:100CF0009040E1F700C000000C94FD290F931F9372
:100D0000CF93DF93EC0161E00E944E068C01BE019F
:100D10000E941606882371F1BE01C8010E944E1779
:100D2000882341F1BE01C8010E948F19882311F167
:100D3000BE01C8010E94E1198823E1F0BE01C8018B
:100D40000E94041B8823B1F0BE01C8010E94A015B7
:100D5000882381F08A81882341F101308CE51807CE
:100D600079F00F3D8CE51807E9F001151C45E9F411
:100D70000E946F0680E0DF91CF911F910F9108953F
:100D800090912F03892F8E7F90FF816080932F0396
:100D900080FF05C086E292E00E944405EBCF84E12B
:100DA00092E0FACF0E94DC28E5CFCE01DF91CF910F
:100DB0001F910F910C941206829590E09C01220FD6
:100DC000331F220F331F2C7C95958795959587951A
:100DD0008373282B30E0C901880F991F8A7A3595D3
:100DE00027952575822B0895CF93DF93D92F0E94E5
:100DF000DC06C82F8D2F0E94DC069C2FDF91CF913F
:100E0000089508950C94010781E00895CF93C82FA9
:100E10000E9402078C2FCF910C94E90590E080E0AE
:100E200008950895972F70E029E0929F600D711D3D
:100E30001124FB019AE5899FE00DF11D1124EE0FAD
:100E4000FF1FE455FF4F859194910895FC01EE0F2B
:100E5000FF1FE95CFD4F859194910895CF93DF9337
:100E60000E9412070E943A08EC01811520E59207C2
:100E700008F041C0811530E4930708F0B4C0803E0B
:100E8000910518F5803C910508F09DC0883A9105C0
:100E900070F4853A910508F08EC081309105F9F023
:100EA0000097E9F00497D8F4D0E0C0E018C08F3B79
:100EB0009105D0F7C85AD0E0CC0FDD1FCD5ADE4FD8
:100EC0000990D881C02DD4640AC08115904258F48D
:100ED000C11581E0D80718F4C83ED10528F7CE0126
:100EE000DF91CF910895C11590E3D90708F071C043
:100EF000CE019F706AC0811525E5920758F58115CE
:100F000034E5930708F09EC0811542E5940750F43C
:100F1000C11581E5D80708F469C0DC2FCC27C16F63
:100F2000D06ADDCF982F969596959E012370332732
:100F3000C115D34508F077C0C1E0D0E002C0CC0FA6
:100F4000DD1F2A95E2F720E2929FC0011124C82BF1
:100F5000D92B67C0C11589E5D807A8F4C11598E554
:100F6000D90708F074C0C11526E5D20708F09CCF58
:100F70008C2F0E94D108C82FD0E0DC2FCC27CC27A3
:100F8000DF71D062ACCFC1153AE5D30708F464C075
:100F9000CE0190568115904208F086CF8D2F8F712B
:100FA0000E94D10890E0982F882788279F719C0184
:100FB0002C2BE901E6CFC55AD0E0CF57DE4FC881D0
:100FC000D0E0D0648CCF805C91090E942607EC01B0
:100FD00086CFCE019927D3FF03C0EC01D86C7FCF19
:100FE000EC01D06C7CCFDF70D06A79CFCE01E4E029
:100FF00096958795EA95E1F783702C2F269526958F
:10100000237090E2299F90011124382B8C2F83703C
:10101000C1E0D0E002C0CC0FDD1F8A95E2F7C22B01
:10102000D32BDC685CCFC1E0D0E002C0CC0FDD1F69
:101030002A95E2F730E2939FC0011124C82BD92BE7
:10104000DA684DCFD82FCC27C46FD06A48CFDC2FB9
:10105000CC27C06FD06A43CF8C2F8F700E94D108ED
:1010600034E0D695C7953A95E1F7CF709C2FEC0107
:10107000D06935CF82389105B1F1B0F48133910553
:1010800009F475C048F48932910509F469C08A32BF
:10109000910509F473C008958533910509F459C089
:1010A0008933910501F10895833E9105A9F138F442
:1010B000803E9105F9F0823E910549F10895863E02
:1010C0009105A9F1873E9105C9F1843E910519F575
:1010D0002091A30321FF1FC08091A20384FD14C0AF
:1010E00087EE90E008952091A2032370A1F080EE96
:1010F00090E008952091A20320FD47C03091A30302
:1011000030FF09C024FF44C090E080E004C020917B
:10111000A20322FDF7CF08952091A20322FD3BC038
:101120003091A30330FDE3CF24FFF5CFEDCF209125
:10113000A20323FFF0CF24FDE7CFD2CF2091A2035B
:1011400023FD2CC03091A30331FFEECF84EE90E05D
:1011500008952091A20325FFDECF89E290E0089553
:101160002091A20325FFD7CF85E390E00895209139
:10117000A20326FFD0CF8AE290E008952091A20337
:1011800026FFC9CF81E390E0089589E390E00895B8
:1011900083EE90E0089582EE90E0089586EE90E070
:1011A00008959091A20392FF06C0282F287128303D
:1011B000F9F4877F846093FF06C0282F28712831B7
:1011C000F1F4877E84612091A30320FF06C0382FAD
:1011D00038713830D9F4877F816021FF06C0282F0D
:1011E00028712831D1F4877E816194FD877E08952E
:1011F000282F24712430F9F68B7F8860DCCF282FCC
:101200002471243101F78B7E8861DDCF382F317155
:10121000313019F78E7F8860E0CF282F217121317E
:1012200021F78E7E8861E1CF089508950C94150909
:10123000E82FF0E0EE0FFF1FEE5AFC4F8081918106
:101240000895CF92DF92EF92FF920F931F93CF9367
:10125000DF9387E492E00E94440582E5E82E83E074
:10126000F82ED0E0C0E092E4C92E92E0D92E09E336
:1012700012E0DF93CF93DF92CF920E94DD058FE3E0
:1012800092E00E944405F701819191917F010E94B3
:10129000F4069F938F931F930F930E94DD0587E3BE
:1012A00092E00E94440521968DB79EB708960FB62E
:1012B000F8949EBF0FBE8DBFCA30D105D1F6DF9125
:1012C000CF911F910F91FF90EF90DF90CF900895F5
:1012D00080EA8A95F1F70895F894E82FE295EF7087
:1012E000F0E031A1282F2F7081E090E001C0880F3D
:1012F0002A95EAF7982F9095932391A392A1892B91
:1013000082A37894089508950F931F93CF93DF934A
:10131000CDB7DEB763970FB6F894DEBF0FBECDBF73
:101320000E943E0B80911701811132C0FE0135965B
:1013300086E0DF011D928A95E9F783E3898382E3E2
:101340008A8386E38B8384E38C8387E98D83CE0154
:101350000196EDE0F1E09E01255F3F4FDC014D91EC
:10136000CD014193A217B307C9F729E0EAE4F1E000
:10137000DE011B9601900D922A95E1F7FC01A4E095
:10138000B1E0CE01449621912D93E817F907D9F7E2
:101390008091170195E0811190E09093670385E0BB
:1013A000891B809366030DE011E0F80181918F01A4
:1013B0000E946C09F1E002311F07B9F704E011E067
:1013C000D8018D918D010E946C09B1E00D301B0791
:1013D000B9F7EEE3F3E0A2E5B3E0119211921D92AA
:1013E0001D9283E0E235F807C1F785E00E94E10A2B
:1013F0000E94620663960FB6F894DEBF0FBECDBFA3
:10140000DF91CF911F910F910C94530B0E94220BEF
:101410008823E9F18091660390E0880F991F8E5A26
:101420009C4F0E94830B81112FC0809102028F5F1D
:1014300080930202863030F18091660390E0FC01D7
:10144000EE0FFF1FEE5AFC4F11821082FC01EE0FCF
:10145000FF1FEC5AFC4F11821082FC01EE0FFF1FA0
:10146000EA5AFC4F11821082FC01EE0FFF1FE85A6E
:10147000FC4F11821082880F991FFC01E65AFC4F25
:10148000118210820C946C0610920202FBCF8091A4
:10149000670390E0880F991F8E5A9C4F0E94B20BF1
:1014A0000C9483098F929F92AF92BF92CF92DF925A
:1014B000EF92FF920F931F93CF930DE011E09EE305
:1014C000E92E93E0F92E22E1A22E21E0B22EC0E017
:1014D000CC24C394D12CF80181918F01F894E82F8A
:1014E000E295EF70F0E021A18F70A60102C0440FD9
:1014F000551F8A95E2F7CA01922F982B91A392A1CA
:101500008095892382A378940E946809E4E0F1E041
:1015100030E020E0912C812C4191A42FA295AF7056
:10152000B0E090968C9190E04F7002C095958795B1
:101530004A95E2F780FD40C0C601022E02C0880F26
:10154000991F0A94E2F7882A992A2F5F3F4F293082
:10155000310511F7F801319780810E946C09F7017C
:10156000808191818816990651F19182808281E073
:10157000C82BF2E0EF0EF11CA016B10609F0ABCFBC
:101580006091670370E0660F771F6E5A7C4F2C2FB7
:1015900045E08EE393E00E94E20A0E94060A8C2F47
:1015A000CF911F910F91FF90EF90DF90CF90BF9060
:1015B000AF909F908F90089590E080E0C4CF80E03E
:1015C000D7CF0895FF920F931F93CF93DF93F82EF9
:1015D000092F162FD72FC42F222349F081E08093A3
:1015E00005020E94BE299093040280930302809119
:1015F00005028823A1F080910302909104020E94C9
:10160000CA29069760F0EF2DF02FA12FBD2F90E093
:1016100080E0D0E08C179D0744F010920502DF9126
:10162000CF911F910F91FF900895219131912D93AA
:101630003D930196EFCF87988F988FB1881F8827A9
:10164000881F089580910602811111C08091D800F1
:1016500080618093D8008AE18A95F1F700C090916B
:10166000D900892F817090FF82E08093060281E08B
:1016700090910602913009F080E008950E941B0BC2
:10168000809317018091170168E0882349F080E07A
:101690000E946D0C0E94220B882321F00C945A0B9F
:1016A00088E0F6CF08950E94220B811102C00C94AD
:1016B000600B089562E070E088E191E00C948F1B6C
:1016C00062E070E088E191E00C94981B0E949B120C
:1016D000882361F085E192E00E94A11281E090E010
:1016E0000E94711C892B11F40C949E120895809114
:1016F0001402883039F460E085E192E00E947014B1
:10170000109214020895CF93DF93D82FC92F0E940F
:10171000660B90E080E00E94711C009709F5ED2FA8
:10172000FC2FDC01AA0FBB1FA75FBD4F2D913C9181
:101730002193319301968530910599F70E940F16F8
:10174000882361F00E9413168093080283E192E0DF
:101750000E94F01881E0DF91CF91089580E0F4CFEE
:1017600080E0F9CFCF93DF93D82FC92F0E94770B5A
:10177000ED2FFC2F90E080E021913191DC01AA0F48
:10178000BB1FA75FBD4F11963C932E9301968530EA
:10179000910591F7809108020E94831783E192E0FE
:1017A000DF91CF910C94E718EF92FF920F931F9364
:1017B000CF93DF93EB01E82FD11110C0442321F028
:1017C000F0E0E85BF84FE4916E2F7E2F8E2FDF91D3
:1017D000CF911F910F91FF90EF9008950D2F10E082
:1017E000282F30E0442329F0285B384FF901249159
:1017F00030E0F6E0CF9FC0011124EFEFF0E0BF0131
:101800000E94A931AB018C2F90E0880F991FA5E5AC
:10181000A49FB001A59F700D1124861B970B982FD4
:10182000990F980FBF01601B710B629FD001639FDE
:10183000B00D729FB00D11248B2F9D9FB00111240C
:10184000672F7727EF01C61BD70BBE01629FE00110
:10185000639FD00D729FD00D11247F01E91AF1080A
:10186000E09EB001E19E700DF09E700D1124672F77
:101870007727E61BF70BE29F8001E39F100DF29F95
:10188000100D1124E12F722F4230510599F048F4C8
:101890004115510569F04130510581F0EB2F8D2F35
:1018A00007C04430510569F080F046305105B1F76A
:1018B0006E2F8DCFE22F7B2F812FFACFE22F7D2F3E
:1018C000F7CFEB2F822F712FF3CF7B2F822FED2FAE
:1018D000EFCF41E00C94D40B0895EBE2F1E080836C
:1018E000618308950C94690CCF93DF93762FE901FF
:1018F000682F842F0E94720C798368838A83DF911A
:10190000CF91089580916803982F9E7F29F481706C
:1019100082608093680308958635E8F3817084655A
:10192000F8CF88E090E00C949B32CF92DF92EF9258
:10193000FF926B017C010E94820CB701A60188E036
:1019400090E0FF90EF90DF90CF900C94B932E8E6F2
:10195000F3E083E0808311828FEF8283838314829C
:10196000AAE7B2E012968C911297836012968C933C
:1019700060817181828193810C94950C80912F03F9
:1019800080FF76C086E895E09F938F930E94DD05E7
:1019900080912F030F900F9080FF6AC080916803A1
:1019A00081701F928F9389E695E09F938F930E9499
:1019B000DD0580912F030F900F900F900F9080FF07
:1019C00057C08091680386951F928F938EE495E0AF
:1019D0009F938F930E94DD0580912F030F900F90AE
:1019E0000F900F9080FF44C0809169031F928F93E6
:1019F00084E395E09F938F930E94DD0580912F03F0
:101A00000F900F900F900F9080FF32C080916A036B
:101A10001F928F938AE195E09F938F930E94DD053B
:101A200080912F030F900F900F900F9080FF20C098
:101A300080916B031F928F9380E095E09F938F932B
:101A40000E94DD0580912F030F900F900F900F9053
:101A500080FF0EC080916C031F928F9384EE94E000
:101A60009F938F930E94DD050F900F900F900F9022
:101A700008958091680380FF02C08695089580E0F4
:101A8000089590916C03933018F49F5F90936C03CA
:101A9000882351F0609168037091690380916A0313
:101AA00090916B030C94950C089581E00C94410D7A
:101AB00090916C03992319F0915090936C038823B3
:101AC00051F0609168037091690380916A0390916D
:101AD0006B030C94950C089581E00C94580D70E004
:101AE0000C94F217CF92DF92EF920F931F93CF9344
:101AF000DF93CDB7DEB7E0970FB6F894DEBF0FBE29
:101B0000CDBF60912C018091680380FF36C0E9EB66
:101B1000F6E09E012F5F3F4F8E010F5C1F4FC90102
:101B2000A4914A2F50E0DA01AA0FBB1FA40FB51FE2
:101B3000A359BC4FCD90DD90EC90D901CD92DD92B0
:101B4000ED929D013196A017B10751F720912B011D
:101B5000B3E02B9F800D911D11240E946F0DE09624
:101B60000FB6F894DEBF0FBECDBFDF91CF911F91AE
:101B70000F91EF90DF90CF90089580912D0190917B
:101B80002E0123E0829FF0011124E359FC4F8917B5
:101B900008F0BDCF1182108212828F5F3396F7CF8B
:101BA0009091680390FF14C090912D0120912E0117
:101BB00033E0939FF0011124E359FC4F921710F08A
:101BC0000C94720D8183608342839F5F3396F6CFBE
:101BD0000895CF93DF9300D00F92CDB7DEB79091E9
:101BE000680390FF0AC09E012F5F3F4F0E94740C54
:101BF0004B8169818A810E94D00D0F900F900F90C8
:101C0000DF91CF910895CF93DF93EC01EC81F0E069
:101C1000EC54FA4F4491E8E6F3E0628181810E943E
:101C2000E90D8C818F5F8C83DF91CF910895CF93E5
:101C3000DF93EC01E8E6F3E0438162818C810E944E
:101C4000E90D8C818F5F8C83DF91CF9108950F9385
:101C50001F93CF93DF9300D00F92CDB7DEB78C01E7
:101C600080911D0281110AC09E012F5F3F4F4FEFEF
:101C70006FEF0E94740C8A8180931D02F8016481C9
:101C8000613069F080911D0240E0662361F040E020
:101C9000623011F440911D0280E060E004C0609168
:101CA0001D0240E080E00E94D00DF801848190E0A8
:101CB000019663E070E00E94BD3184830F900F9025
:101CC0000F90DF91CF911F910F9108954F925F92E6
:101CD0006F927F928F929F92AF92BF92CF92DF923C
:101CE000EF92FF920F931F93CF93DF9300D00F9249
:101CF000CDB7DEB7182FF62E042F722E9091680301
:101D000090FF57C0E92FE695AE2FB0E0AC57BE4F1D
:101D10008C9180937A029E7F923009F05EC09E0182
:101D20002F5F3F4F812F0E94740C4B8169818A8104
:101D30000E94D00D80916903811308C080916A03CD
:101D40008F1104C080916B03801729F080917C0271
:101D5000826080937C0210936903F0926A0300937F
:101D60006B03772009F49CC060916803709169034C
:101D700080916A0390916B030E94950C80912F03D0
:101D800080FF17C080916B031F928F9380916A032D
:101D90001F928F93809169031F928F9380EE92E040
:101DA0009F938F930E94DD050FB6F894DEBF0FBEA0
:101DB000CDBF0F900F900F90DF91CF911F910F919A
:101DC000FF90EF90DF90CF90BF90AF909F908F905B
:101DD0007F906F905F904F900895823019F400913A
:101DE0006B03A8CF863019F410916903A3CF893013
:101DF000D9F3893109F09ECFE9518E2F8170682E79
:101E00008E2F80958170E82EE695F0E0EC54F94F26
:101E1000C590D490412CDD2495E0A92E93E0B92EF5
:101E200060912F01461618F00E94720D83CF842C0A
:101E3000912C8C9CC0018D9C900D9C9C900D11242C
:101E400070E00E94A931512E611028C0560E809179
:101E50002F0380FF11C0DF92CF921F92EF921F924B
:101E60005F921F924F92BF92AF920E94DD050FB614
:101E7000F894DEBF0FBECDBF20912D01820E911CC4
:101E80009401220F331F280D391D23593C4F402F39
:101E90006F2D852D0E94740C4394C2CF561AD7CF54
:101EA00080912F0380FF85CF1F920F931F92FF9287
:101EB0001F921F9389EB92E073CFE8E6F3E09181E4
:101EC000282F4381628188E0890F0C94660E81E09F
:101ED0000C945D0FE8E6F3E09181282F4381628145
:101EE00088EF890F0C94660E81E00C946A0FE8E687
:101EF000F3E0628121E1620F08F46FEF282F438144
:101F000081810C94660E81E00C94770FE8E6F3E093
:101F1000628121E1621B08F460E0282F4381818106
:101F20000C94660E81E00C94860FE8E6F3E04381A2
:101F300021E1420F08F44FEF282F628181810C9438
:101F4000660E81E00C94950FE8E6F3E0438121E111
:101F5000421B08F440E0282F628181810C94660EB8
:101F600081E00C94A40F21E00C94660E20E00C9408
:101F7000660EEF92FF921F93CF93DF93EC0110E078
:101F8000EE24EA94F12C60912F01161770F00E9454
:101F9000720D9A818C8190FF27C08F5F8C83DF91B7
:101FA000CF911F91FF90EF90089520912D01422F26
:101FB000410F5527551FCA019A01220F331F280FC1
:101FC000391F23593C4F70E0C7010E94BD31962F45
:101FD0008C8140916B0360916A03199F800D1124DD
:101FE0000E94740C1F5FCFCF8150D8CF9F92AF92C9
:101FF000BF92CF92DF92EF92FF920F931F93CF93F6
:10200000DF93EC018A81BB24BA9480FD02C0BB241B
:10201000B3948C8181110AC081E0B81227C08091ED
:102020002F01815080931F0281E08C83A12C80912D
:102030002F01A816F0F00E94720D80911F0291E00E
:10204000B9125DC0811156C080912F0181508093DB
:102050001F021C82DF91CF911F910F91FF90EF9093
:10206000DF90CF90BF90AF909F90089510921F0285
:10207000DBCF00912D01CA2CD12C0C0D1D2D111D73
:10208000C801880F991F080F191F03591C4FF80129
:1020900011821082128234E0E32EF12C912C809177
:1020A0001F02890D813104F18F70082E000C990BED
:1020B000C816D90691F480916B038E9DA0018F9D67
:1020C000500D112455954795559547959801609168
:1020D0006A03809169030E94740C9B0CF1E0EF1A73
:1020E000F108E9F6A394A3CF87FFDFCF90912F01EA
:1020F000890FDBCF815080931F02BC82ABCF90E071
:10210000019660912F0170E00E94BD3180931F0203
:102110008C83A0CFEF92FF920F931F93CF93DF9307
:10212000EC018C81811109C081E08C8310921E0228
:1021300092E090932A018093290180912D01909142
:102140002E0123E0829FF0011124E359FC4F8917EF
:1021500068F110E003E060912F01161768F10E940A
:10216000720D8091290120911E02280F20931E02DA
:1021700090912A01980F90932A01191654F4022E77
:10218000000C330B40912F014150550B241735079C
:1021900034F0819580932901813009F41C82DF910C
:1021A000CF911F910F91FF90EF90089511821082AF
:1021B00012828F5F3396CBCFE12EF12C70E0C701F6
:1021C0000E94BD3120912D01820F482F50E02091B7
:1021D0001E02022E000C330BE216F306BCF0209117
:1021E0002A01022E000C330B2E153F057CF0809F38
:1021F0009001112423593C4F40916B0360916A0375
:10220000809169030E94740C1F5FA5CFFA01EE0F45
:10221000FF1FE40FF51FE359FC4F11821082128259
:10222000F3CF8F929F92AF92BF92CF92DF92EF92B5
:10223000FF920F931F93CF93DF93EC014C81042FF8
:1022400010E09801D8010E9401329B01AC010E946C
:1022500017324B015C01E0E2F0E0E01BF10BA5E579
:10226000B0E0AC019B010E9417326B017C019F0121
:10227000DF010E94F9319B01AC010E9422329B01D7
:10228000AC01280D391D4A1D5B1DC701B6010E9416
:10229000D131F22E822F90E039E23F1560F143E018
:1022A000249F9001112435952795122F109500E059
:1022B00085E5E82EEF1880912F01081758F10E944C
:1022C000720D9C8181E0992319F0903219F48FEFFF
:1022D0008093280180912801890F8C83DF91CF9111
:1022E0001F910F91FF90EF90DF90CF90BF90AF9034
:1022F0009F908F90089525E530E0B901681B790B18
:102300009B01220F331F260F371F37FFCCCF2F5FC4
:102310003F4FC9CF8E2D01FD8F2D20912D01622FB2
:10232000600F7727771F9B01220F331F260F371F60
:1023300023593C4F412F60916A030E94740C0F5F38
:10234000BACF0F931F93CF93DF93EC0110E000E01F
:1023500090912F019017110609F06CF40E94720DF4
:102360008C8190E00196817099278C83DF91CF91C9
:102370001F910F91089520912D01A801420F511D29
:102380009A01220F331F240F351F23593C4F4C81D4
:1023900060916A038091690396959017110651F038
:1023A0004CF0442349F040916B030E94740C0F5F82
:1023B0001F4FCECF4423B9F340E0F7CF8F929F92C7
:1023C000AF92BF92CF92DF92EF92FF920F931F9343
:1023D000CF93DF93FC01B280948081E0848300E09E
:1023E00015E05BE4A52E88248394EE24EA94F12C76
:1023F0007BE4C72ED12C80912F01081770F0DF915C
:10240000CF911F910F91FF90EF90DF90CF90BF90F1
:10241000AF909F908F900C94720DC02FD0E01C9FB6
:10242000F0011D9FF00D1124ED5DFD4F91101CC0BA
:102430001382128220912D01CE01820F911D9C01E9
:10244000220F331F280F391F23593C4F1C9FF001C7
:102450001D9FF00D1124ED5DFD4F42816181808152
:102460000E94740C0F5FC7CF2381222379F1215082
:10247000238334818A2D821B311101C0822F1C9F3E
:10248000F0011D9FF00D1124ED5DFD4F90916B0348
:10249000899FC0011124B6010E94A93162832111D4
:1024A00004C0332311F01482A38222E02B1510F212
:1024B0001C9FF0011D9FF00D1124ED5DFD4F8091DB
:1024C0006903808380916A038183B4CF0E9476324E
:1024D000823091400CF0AECF82E08B1530F50E9437
:1024E0007632B7010E94BD311C9FF0011D9FF00D97
:1024F0001124ED5DFD4F808322E02B15C8F40E946E
:10250000763220916A032695622F70E00E94BD31D9
:10251000280F1C9FF0011D9FF00D1124ED5DFD4F54
:1025200021831282A382848285CF80916903DCCFCC
:1025300020916A03EECF80917C02089510927C0274
:10254000089525E0E8E6F3E0DC0101900D922A957C
:10255000E1F720917A0230917B0240917C02FC01EC
:102560002583368347830895EAE7F2E0118282816A
:1025700084608283089560916803669570E04BE003
:1025800050E080E391E00E948632892B19F481E0CB
:1025900080937B020E94BE29909374028093730201
:1025A00080917C02846080937C0280912F0380FF65
:1025B00008C080EA92E09F938F930E94DD050F9000
:1025C0000F90089510927B0280917C02846080932A
:1025D0007C0280912F0380FF08C087E892E09F93E0
:1025E0008F930E94DD050F900F90089590916803DE
:1025F00090FF59C09170811140C092609093680320
:1026000080917C02816080937C026623E9F1609175
:1026100068037091690380916A0390916B030E9433
:10262000950C80912F0380FF0FC0809168038695E1
:102630001F928F938AE294E09F938F930E94DD050F
:102640000F900F900F900F9060916803669570E067
:102650004BE050E080E391E00E948632892B01F14B
:102660000E94E21281E08093760240916B036091B8
:102670006A03809169030C94B60F8B3210F0946555
:10268000BDCF880F982BBACF80912F0380FFDCCF6E
:102690008091680386951F928F938CE094E0CCCF55
:1026A0000E94BB12DFCF0895682F90916803969522
:1026B00081E0890F8B3208F081E00C94F61281E002
:1026C0000C945413682F9091680396958FEF890F9F
:1026D00009F48AE20C94F61281E00C94621361E032
:1026E0000C94F61280916803816080936803809156
:1026F0002F0380FF0DC01F9281E08F938EE993E03E
:102700009F938F930E94DD050F900F900F900F9075
:102710008091680386950C946F1360E00C94F61218
:1027200080917902811165C080912F0380FF14C0D0
:102730008DEC94E09F938F930E94DD0580912F0391
:102740000F900F9080FF08C087EB94E09F938F93CA
:102750000E94DD050F900F900E943628811110C055
:1027600080912F0380FF08C08FE894E09F938F93A0
:102770000E94DD050F900F900E94DC280E94A70C9C
:102780000E94910C609368037093690380936A03BD
:1027900090936B0380917C02836080937C026E7FB8
:1027A000C1F480912F0380FF08C086E494E09F93DA
:1027B0008F930E94DD050F900F900E94A70C0E943E
:1027C000910C609368037093690380936A039093FC
:1027D0006B030E94820C0E94BE0C0E94B412809176
:1027E000680380FF03C086950E948D1381E080936B
:1027F00079020895809168038E7F809368036091C9
:1028000068037091690380916A0390916B030E9441
:10281000950C80912F0380FF0FC080916803817019
:102820001F928F9386E693E09F938F930E94DD051E
:102830000F900F900F900F900E94E21280917C02F7
:10284000816080937C022FEF80E792E021508040EE
:102850009040E1F700C000000C94720D80912F03AE
:1028600080FF10C080916803809581701F928F93C4
:1028700085ED93E09F938F930E94DD050F900F905D
:102880000F900F908091680380FD0C94FA130C94C4
:102890007213809168038E7F8093680380912F0369
:1028A00080FF0CC01F921F928CE293E09F938F9346
:1028B0000E94DD050F900F900F900F900E94E21282
:1028C00080917C02816080937C022FEF80E792E010
:1028D000215080409040E1F700C000000C94720D40
:1028E0001F93CF93DF93EC01162F8F8180FF0CC0D5
:1028F000888180FF24C08091680381608093680391
:10290000888186950E94F6128F8181FF06C0212F53
:102910004B816A8189810E94660E8F8182FF05C08A
:102920008E81882379F00E94BB128F8183FF03C0C0
:1029300081E080937602DF91CF911F9108950E94EC
:102940004914E2CF0E94E212F0CFEF92FF920F9370
:102950001F93CF93DF9380917B02882309F475C086
:1029600080917A02E0916803E695E81BE093750296
:10297000823009F071C0F0E0E055FA4FE491CE2FBB
:10298000D0E003E01EE080917602882389F0109267
:1029900076020E94BE299E0120953095820F931FDA
:1029A00090937402809373021092780210927702CF
:1029B00080917302909174020E94CA298C179D071E
:1029C00008F443C080912202882311F11092220260
:1029D00080912002909121020E94CA29803395475C
:1029E000B8F00E94BE29909321028093200280912A
:1029F0002F0380FF08C08EE592E09F938F930E9483
:102A0000DD050F900F9080917C02886080937C029E
:102A1000E0907702F0907802E0917302F0917402F6
:102A2000CE0FDF1FD0937402C093730283E792E04E
:102A3000F80109958091770290917802892B29F409
:102A4000EF2819F081E080932202DF91CF911F914E
:102A50000F91FF90EF900895863049F4F0E0E35530
:102A6000FA4FE491CE2FD0E007E11EE08CCF893001
:102A700051F4E695F0E0E655FA4FE491CE2FD0E020
:102A800009EB1FE080CF8F3051F4E695F0E0E95577
:102A9000FA4FE491CE2FD0E006EF1FE074CF8531DE
:102AA00049F4F0E0EC55FA4FE491CE2FD0E00AE87B
:102AB00010E169CFC8E2D0E001E111E1883109F409
:102AC00062CF833239F4E2EAF5E0C591D49107E2AE
:102AD0001EE059CFC4EFD1E001EA11E1843209F4DC
:102AE00052CFC0EDD7E00CE61CE0853209F04BCFA9
:102AF0008E2F63E00E949D31E92FF0E0E156FA4FFE
:102B0000E491CE2FD0E00EED11E13DCFFA0181111D
:102B100001C0FB010994CF93DF93C82FD62F0E94E9
:102B2000390D8C1740F00E94390D8D1720F4DF917C
:102B3000CF910C945F138C2FDF91CF910C946F1376
:102B40001F93CF93DF93EC01FB011281111110C091
:102B50000E9482278272FE01E35CFC45E431F105AC
:102B600008F05BC0E450FD4C0C94F3310E942E142D
:102B7000812FDF91CF911F9108954CE653E16FE5CE
:102B800073E10E948615F4CF4FE553E16CE673E1E3
:102B9000F8CF44E75FE067E67FE0F3CF47E65FE02A
:102BA00064E77FE0EECF42E95FE063E87FE0E9CFF2
:102BB00043E85FE062E97FE0E4CF40EB5FE061EA99
:102BC0007FE0DFCF41EA5FE060EB7FE0DACF4CE609
:102BD0005DE065E57DE0D5CF45E55DE06CE67DE057
:102BE000D0CF81E00E946F13C3CF65E082E00E94E6
:102BF0008B15BECF68E086E0FACF6EE089E0F7CFB4
:102C000064E18FE0F4CF67E185E1F1CF88E1EACFBD
:102C100062E289E1ECCF83E2E5CF11E0A9CF8091B8
:102C20009D038170089580919D0386958695869574
:102C300008950E943628811102C00E94DC280E945B
:102C4000642880939D03803220F087708861809390
:102C50009D0390919D03892F817090FF04C0892F5F
:102C60008695869586950C94831780919D03982F61
:102C7000969596959695933040F49F5F990F990F8E
:102C8000990F8770892B80939D0380919D038160AC
:102C900080939D030E94682880912F0380FF11C0BC
:102CA00080919D038695869586951F928F9380E3EC
:102CB00097E09F938F930E94DD050F900F900F90E8
:102CC0000F9080919D038695869586950C94831729
:102CD00080919D03982F987F79F0885080939D0371
:102CE000887F91E009F490E080919D0390FB80F94A
:102CF00080939D030E94682880912F0380FF11C05C
:102D000080919D038695869586951F928F9388E185
:102D100097E09F938F930E94DD050F900F900F9087
:102D20000F9080919D038695869586950C948317C8
:102D300080919D0380FD1FC0816080939D03813041
:102D400019F489E080939D0380919D030E94682877
:102D500080912F0380FF08C080EF96E09F938F93B0
:102D60000E94DD050F900F9080919D0386958695BA
:102D700086950C948317089580919D0380FF14C05D
:102D80008E7F80939D030E94682880912F0380FF8F
:102D900008C08DED96E09F938F930E94DD050F9004
:102DA0000F9080E00C9483170895CF93C0919D03FA
:102DB000C17080912F0380FF0CC01F92CF9382E0DF
:102DC00097E09F938F930E94DD050F900F900F90D7
:102DD0000F90CC2319F0CF910C94BC16CF910C948A
:102DE000981690919D03892F8695869586958F5F7D
:102DF0008F719770843080F5880F880F880F892B2A
:102E000080939D0380919D03887F91E009F490E079
:102E100080919D0390FB80F980939D030E94682818
:102E200080912F0380FF11C080919D038695869528
:102E300086951F928F9389EC96E09F938F930E94C3
:102E4000DD050F900F900F900F9080919D03869558
:102E5000869586950C94831790939D03D3CF8430E9
:102E600008F083E090919D039770282F220F220F86
:102E7000220F922B90939D03987F21E009F420E08C
:102E800090919D0320FB90F990939D030C948317E0
:102E90000E942F1780919D030C9468289C01FB01D0
:102EA0008281882349F12E3BFCE53F07C9F040F4BD
:102EB0002C3BECE53E0769F02D3B3C4579F008954D
:102EC000203C9CE5390791F070F0213C3C4589F0AD
:102ED000089583E00E94481780E0089580E0FACFCB
:102EE0000E946816F9CF0E943516F6CF0E94D516BB
:102EF000F3CF0E94F116F0CF81E00895259A2D9826
:102F000008952D980895CF92DF92EF92FF92CF937C
:102F1000C82F843040F5811127C0809180008F77C1
:102F2000809380000E9481172C2F30E0AFEFBFEF1D
:102F30000E94013223E030E040E050E00E94D131B5
:102F4000C9012C3764E13607A8F469E070E00E94FB
:102F5000A9317093890060938800CF91FF90EF9022
:102F6000DF90CF900895C3E08091800080688093C7
:102F70008000DACF2A50374D4F4F5F4F942F832F69
:102F8000722F662725EF38E241E050E00E94D131F0
:102F900069017A01CA01B9010E948D319B01AC011E
:102FA000C701B6010E948D31672F782F892F99278D
:102FB0006115710521E08207910559F66FEF7FEFEA
:102FC000C8CF08950E947E1782E88093800089E12F
:102FD000809381008FEF9FEF90938700809386000E
:102FE0000C9419166E9A4EB14F7B5EB15064EFB7D8
:102FF000F8949B01220F331F260F371F280F391F0C
:103000002817390741F4EFBF8FE594E00197F1F7F6
:1030100000C000000895DC016D91CD0178E05EB93B
:10302000000000C067FF4EB9660F000000C000C07E
:1030300000C04EB900C07A9591F7E2CF08950C9484
:103040001E1880911701811106C086E980933C010A
:1030500084E980933B0120913C01A22FA295AF709F
:10306000B0E091963C9191972F7081E090E0BC0187
:10307000022E01C0660F0A94EAF7462F40954323BB
:1030800091964C93919792963C919297362B92966B
:103090003C93929740913B01E42FE295EF70F0E072
:1030A00031A14F70042E01C0880F0A94EAF7982FBF
:1030B0009095932391A392A1892B82A390968C91B2
:1030C00090E002C0959587952A95E2F7817020A13E
:1030D00030E002C0359527954A95E2F792E020FF4F
:1030E00090E0892B809382029091170181E09827CC
:1030F00090937E02891B80937D020895CF93E09187
:103100008202EE0FEE0F20913C01A22FA295AF702C
:10311000B0E090968C9190E02F7002C095958795C5
:103120002A95E2F78170992740913B01A42FA2953F
:10313000AF70B0E090962C9130E04F7002C03595A2
:1031400027954A95E2F7A9014170552720FF02C053
:1031500042E050E0842BE82BE0938202C0917E0293
:10316000EF70F0E0E155FE4F808190918102890F70
:103170008093810284306CF0EC2F0C2E000CFF0B3E
:10318000E158FD4F80818F5F808360E08C2F0E942B
:103190001F18809181028D3F6CF4EC2F0C2E000CD7
:1031A000FF0BE158FD4F80818150808361E08C2FBF
:1031B0000E941F1880918102082E000C990B64E078
:1031C00070E00E94BD3180938102CF910895E0911B
:1031D0007E02F0E0E158FD4F2081FC01208308953C
:1031E000FF920F931F93CF93DF93D0917D020D2F0A
:1031F00010E001581D4FFC01C081F8018081C81BFF
:10320000FC2E1F1464F08C2FC7FD80E0C81BC11179
:1032100010C0DF91CF911F910F91FF900895FA9404
:10322000F80180818F5F808360E08D2F0E941F18DE
:10323000E8CFCF5FF80180818150808361E08D2FDE
:103240000E941F18E4CF0F931F93CF93DF93C42FD7
:10325000D22FFC0182818823C9F0409385020E940D
:10326000BE29909384028093830280E28C0F883081
:1032700008F050C0C77081E001C0880FCA95EAF716
:10328000DF91CF911F910F910C94961F10918502A1
:10329000141335C080918302909184020E94CA2940
:1032A000883C910560F5C0E2CD0F1D17B9F080E2B2
:1032B000810F883040F4177081E001C0880F1A95A3
:1032C000EAF70E949D1FC83048F481E09D2F977057
:1032D00001C0880F9A95EAF70E94961F802F0E94DE
:1032E000831FC830B8F4D77081E001C0880FDA9529
:1032F000EAF7DF91CF911F910F910C949D1F80E20F
:103300008C0F883038F4C77081E001C0880FCA95EF
:10331000EAF7EFCFDF91CF911F910F9108950F93AF
:103320009C01CB01243F4CE5340759F1A8F4293D19
:10333000FCE53F0701F12A3D4CE53407D1F1283D7A
:103340003C4591F406E221EE41EE68ED7CE50E94F9
:10335000231980E00F910895263FFCE53F07E9F02F
:10336000B0F0273F3C45F9F0FC018281882339F118
:1033700010928502EFCF07E225EE45EE69ED7CE580
:10338000E6CF06E221EE40EE64EF7CE5E0CF07E217
:1033900025EE44EE65EF7CE5DACF06E221EE42EE63
:1033A00066EF7CE5D4CF07E225EE46EE67EF7CE5DD
:1033B000CECF08E221E045EE6AED7CE5C8CF81E0A2
:1033C000C9CFCF93DF93EC01FB018281882309F4FD
:1033D00019C1C230FCE5DF07C0F1C6319CE5D90751
:1033E00030F09E012B5F3C452930310570F50E947D
:1033F00049289093A3038093A203C031ECE5DE0734
:1034000009F4CFC008F05BC0C8308CE5D80709F4D8
:10341000B6C088F5C430ECE5DE0709F4A8C0C0F4F6
:10342000C2308CE5D80709F49CC08091A203826069
:10343000C330DC4509F498C08091A2039091A303A6
:103440000E9457280E94032280E0DF91CF910895C7
:103450008091A2038061C630ECE5DE0709F484C0E8
:103460008091A2038860C730DC4508F47DC080915C
:10347000A203806279C0CC308CE5D80709F489C0FA
:1034800070F48091A2038C60CA30ECE5DE0709F489
:103490006BC008F478C08091A2038E7F65C0CE30E7
:1034A0008CE5D80709F479C08091A2038B7FCF30D7
:1034B000DC4508F459C08091A2038F7E55C0CC3FF3
:1034C000ECE5DE0709F457C030F5C3318CE5D807C9
:1034D00009F46FC078F4C131ECE5DE0709F465C08A
:1034E000C231DC4509F0A8CF0E9403228091A203DB
:1034F0008F773AC0C5318CE5D80709F462C008F46B
:1035000076C08091A3038160CB3FDC4509F094CF66
:103510008093A30391CFC115FDE5DF0709F44DC0EA
:1035200088F48091A3038D7FCE3F9CE5D90781F37A
:103530008091A3038E7FCF3FDC4550F38091A3039E
:103540008360E6CFC230FDE5DF0709F459C008F417
:1035500044C080E0C330DD4509F06ECF0E94DE2814
:103560006BCF8091A20381608093A20365CF80918D
:10357000A2038460F9CF8091A3038260C9CF8091B8
:10358000A2038064F1CF0E9403228091A20380688D
:10359000EBCF8091A2038D7FE7CF8091A203877F3D
:1035A000E3CF8091A2038F7DDFCF8091A2038F7B39
:1035B000DBCF8091A203837FD7CF8091A3038C7F41
:1035C000A7CF8091A20382FB992790F921E092274F
:1035D00090FB82F990FB83F9C7CF8091A303982FCA
:1035E000909591708E7F892B90FB81F991CF0E94ED
:1035F00003229091A203892F97FB87F98058B4CFBB
:1036000081E0ACCF81E021CFCF93DF93EB01863116
:103610009C4511F50E9482279A81992399F08A7A14
:1036200091E009F490E090938602811109C089E24B
:103630000E945D270E94CE2780E0DF91CF91089500
:1036400085E3F6CF80918602811104C089E20E9451
:103650006427F0CF85E3FBCF81E0EFCF8EE1489B7D
:1036600002C08150E1F7489BFECF0895589880E250
:103670008A95F1F7589A0895FC013BE03A95F1F7E5
:1036800020E090E080E031E040E14A95F1F7880FDA
:10369000489B02C08160232742E04A95F1F7000071
:1036A00040E14A95F1F79F5F6913EECF90E19A955B
:1036B000F1F799B132E03A95F1F7000040E14A950F
:1036C000F1F7917092272081920F90830895EF92E5
:1036D000FF920F931F93CF93DF930F92CDB7DEB777
:1036E00019828C017C01E60EF11C0E151F0561F498
:1036F00081E09981911180E00F90DF91CF911F912E
:103700000F91FF90EF9008950E942E1B68E0CE016C
:1037100001960E943C1BF80181938F01E6CF9093A4
:1037200089028093880260938702509A589A08957C
:103730009093890280938802609387025098589AE8
:10374000E89AE9E6F0E080818C7F808308956150FB
:10375000770B91E001C0990F6A95EAF720E031E01C
:10376000911108C0222391F0589A80E28A95F1F7CE
:1037700058980895492F482339F0589A232740E252
:103780004A95F1F79695ECCF5898F9CF5898EDCF28
:10379000FF920F931F93CF93DF93EC018C01060FE1
:1037A000111DC017D10731F4DF91CF911F910F91F7
:1037B000FF900895F9900E94361B68E08F2D0E94BB
:1037C000A71BEFCF1F920F920FB60F9211240F93EA
:1037D0001F932F933F934F935F936F937F938F9399
:1037E0009F93AF93BF93EF93FF93CF93DF930F928A
:1037F000CDB7DEB719820E942E1B67E0CE0101967D
:103800000E943C1B082F069506950695982F9295C9
:103810009570202F2570920F292F237096959695DD
:103820008770920F891344C08981811141C08091B2
:1038300087028017E8F120E12A95F1F7589A509A0B
:1038400082E08A95F1F700C0A8E00A9FC001112428
:103850000091880210918902080F191F5898F801E9
:103860006581662321F0868197810E94C81B0E9492
:10387000361BF0E1FA95F1F758985098589A20E1E4
:103880002A95F1F7D80112966C911297662331F1BF
:1038900013968D919C910E94671BD801ED91FC912C
:1038A000882311F088E001C082E080830E942E1BF3
:1038B0000F90DF91CF91FF91EF91BF91AF919F91C9
:1038C0008F917F916F915F914F913F912F911F91B8
:1038D0000F910F900FBE0F901F901895ED91FC91D6
:1038E000E1CF0F931F93CF93DF9320918702281787
:1038F00019060CF471C08C0193E0000F111F9A950A
:10390000E1F7C0918802D0918902C00FD11FF894CD
:10391000509A589825E02A95F1F70000982F96952F
:1039200095708570980F892F837096959695980F4E
:10393000092B0E94361B00C067E0802F0E94A71B46
:1039400080E18A95F1F75098589A489B17C087E014
:1039500090E0489915C06D81662321F18E819F8189
:103960000E94671B81111EC0509A589AE881F98104
:1039700082E08083789482E090E00DC000C0E5CFC3
:10398000019771F4509A589AE881F98181E0808317
:10399000789481E090E0DF91CF911F910F9108958D
:1039A00000C0D7CF0E942E1B20E22A95F1F758982D
:1039B000509A80E18A95F1F76A81662321F08B8124
:1039C0009C810E94C81B0E94361BE881F9811082ED
:1039D000789490E080E0DFCF84E090E0DCCF9093BB
:1039E0008F0280938E020895E0918E02F0918F02F3
:1039F000309721F00190F081E02D099480E0089546
:103A0000EF92FF920F931F93CF93DF938C01E0917E
:103A10008E02F0918F023097C1F10280F381E02D88
:103A2000099580912F0382FF30C080FF04C080E59C
:103A300098E00E944405D0E0C0E08AE4E82E88E0E7
:103A4000F82E80912F0380FF0EC0F801EC0FFD1FB0
:103A500080811F928F93FF92EF920E94DD050F905D
:103A60000F900F900F902196C830D10551F780919B
:103A70002F0380FF0AC088E498E0DF91CF911F9167
:103A80000F91FF90EF900C944405DF91CF911F911F
:103A90000F91FF90EF90089520918C0230918D024C
:103AA0002817390771F090938D0280938C02E09172
:103AB0008E02F0918F02309721F00680F781E02D81
:103AC0000994089520918A0230918B0228173907B2
:103AD00071F090938B0280938A02E0918E02F091B4
:103AE0008F02309721F00084F185E02D099408952C
:103AF00085B7806885BF85B7806885BF08950895BC
:103B000008950C947F1D08950C94831D0E94781DC8
:103B10000E94801D0C94811D0C94220B0895089521
:103B20000E94B5290E9484090E94212A0E94191628
:103B30000E9490130E9421180C94841DCF93C82FCB
:103B400080912F0382FF1EC080FF1CC089E698E091
:103B50000E94440580912F0380FF14C01F92CF93D1
:103B600084E698E09F938F930E94DD0580912F0358
:103B70000F900F900F900F9080FF04C082E698E0A6
:103B80000E9444058C2FCF910C9406079F92AF9210
:103B9000BF92CF92DF92EF92FF920F931F93CF933A
:103BA000DF93CDB7DEB72A970FB6F894DEBF0FBE0E
:103BB000CDBF0E948E1D0E948F1D0E94520A0E943E
:103BC0008C1D882309F474C051E9A52E52E0B52E4E
:103BD00010E000E0902E802F0E9418096C01F50182
:103BE000E190F1905F01E816F90609F45BC080915D
:103BF0002F0381FD0E94210997012C253D2580E09E
:103C0000EE24E394F12CA9014E215F21452B09F408
:103C100043C08E839F82CE20DF2081E0CD2809F42F
:103C200080E088870E94BE298160782F9A878987E3
:103C30004E815F8168858A850E947B1E000F111F5F
:103C4000F801EF56FD4F80819181E826F926F18237
:103C5000E0820E94A5140E94E1170E947E180E9433
:103C6000F41C909190028917A1F10E94F41C80939A
:103C700090022A960FB6F894DEBF0FBECDBFDF913B
:103C8000CF911F910F91FF90EF90DF90CF90BF9059
:103C9000AF909F900C949E1D8F5FEE0CFF1C89309F
:103CA00009F0B1CF0F5F1F4F0A30110509F092CF15
:103CB0008FEF89838A831B820E94BE298160782FBF
:103CC0009D838C8349815A816B818D810E947B1EEB
:103CD000C0CF2A960FB6F894DEBF0FBECDBFDF91DE
:103CE000CF911F910F91FF90EF90DF90CF90BF90F9
:103CF000AF909F900895CF93DF93CDB7DEB72B970A
:103D00000FB6F894DEBF0FBECDBF4F8358876987CB
:103D10007A878B871E821D8285E0FE013796DE0141
:103D2000119601900D928A95E1F749815A816B8134
:103D30007C818D819E812B960FB6F894DEBF0FBEDD
:103D4000CDBFDF91CF910C947924FC0180819181CA
:103D50000C942F27CF93C82F882309F483C082386F
:103D6000C1F40E94F41C81FD7DC089E30E945D279F
:103D70000E94CE272FEF81EE94E0215080409040AA
:103D8000E1F700C0000089E30E946427CF910C9402
:103D9000CE278338A1F40E94F41C80FD63C083E524
:103DA0000E945D270E94CE272FEF81EE94E02150E4
:103DB00080409040E1F700C0000083E5E5CF843803
:103DC000A1F40E94F41C82FD4DC087E40E945D278F
:103DD0000E94CE272FEF81EE94E02150804090404A
:103DE000E1F700C0000087E4CFCF8CEF8C0F813A61
:103DF00090F46C2F80913D0190913E010E94F52836
:103E0000882329F08C2F0E9464270E94CE278C2FB4
:103E10000E945D27BBCF80E28C0F883048F4C770CA
:103E200081E001C0880FCA95EAF70E948527AECFCE
:103E3000EBE5EC0FE33040F4F0E0E351FE4F80811E
:103E400090E0CF910C944C1DC85AC73158F4EC2F18
:103E5000F0E0EE0FFF1FE154FE4F80819181CF9182
:103E60000C94621DCF910895882309F44BC08238C9
:103E700071F40E94F41C81FF45C089E30E945D2714
:103E80000E94CE2789E30E9464270C94CE278338B2
:103E900059F40E94F41C80FF35C083E50E945D2721
:103EA0000E94CE2783E5EFCF843859F40E94F41C9A
:103EB00082FF28C087E40E945D270E94CE2787E406
:103EC000E2CF9CEF980F913AF0F290E2980F983081
:103ED00050F4877091E001C0990F8A95EAF7892F15
:103EE0000E948B27D2CF9BE5980F933020F490E06F
:103EF00080E00C944C1D885A873120F490E080E0DB
:103F00000C94621D0895CF93C82F0E94AA1EC93336
:103F100049F42FEF87EE93E0215080409040E1F785
:103F200000C000008C2FCF910C94341F882321F007
:103F30000E9485270C94CE270895882321F00E94A3
:103F40008B270C94CE270895BF92CF92DF92EF92E9
:103F5000FF920F931F93CF93DF936C01D62FC72F40
:103F6000FC01058102950F70128111110E94A22798
:103F70000E947B27E82E882391F01123D1F08C2F0B
:103F8000807F803421F080E28D0F883090F082E0D5
:103F90000E9419280E947B2791E0E82EE926BC2E7A
:103FA000B2949FE0B922EB2DF0E0E05FFC4C0C9462
:103FB000F331E12CF4CF0C2F0F70C07F11F002957C
:103FC000007F1123A9F0002359F080E28D0F883083
:103FD00010F0D11109C0802F0E9485270E94CE27A2
:103FE0008D2F0E94AA1E14C0802F0E949527F6CF05
:103FF0008D2F0E94341F002359F080E28D0F8830EE
:1040000010F0D1112CC0802F0E948B270E94CE2748
:104010002B2D2850330B2430310520F40E94F41C42
:104020000E940607EE2009F493C10E94772780FDC5
:104030008FC1F60112820E9471270E94FD25C601E0
:104040000E94C9210E947127DF91CF911F910F918A
:10405000FF90EF90DF90CF90BF900C941E26802FA2
:104060000E949B27D3CFFC2FFF70FF2EC07FC03252
:1040700019F0F29480EFF822DD2369F0D13049F194
:10408000112391F1002351F1F601858180FFA8CF22
:104090008F70858323C0112381F0011106C00E9417
:1040A000B5278F290E94961FB3CF0130C1F70E9418
:1040B000B5278F290E94BB27ABCF011106C00E94F4
:1040C000C4278F2D0E949D1FA3CF013009F4A0CFDC
:1040D000F6CF112329F0063008F09ACF8F2DE2CFCA
:1040E000053008F095CFEDCF002359F3D93349F4CB
:1040F000FFEF27EE33E0F15020403040E1F700C001
:1041000000008D2F0E94341F83CF8C2F86958695BB
:10411000837069F0813009F07BCF8D2F9C2F9370D5
:10412000111102C090E080E00E94621D71CF8D2FBE
:104130009C2F9370111102C090E080E00E944C1DF2
:1041400067CF8C2F837009F041C0111161CF4D2FC3
:10415000429546954770440F440F0D2F0F7010E0A5
:1041600030E020E0042E04C0000F111F221F331F77
:104170000A94D2F760E070E0CB01D4FF0FC06FE08B
:1041800070E080E090E004C0660F771F881F991FE1
:104190004A95D2F76095709580959095C695C6958D
:1041A000C370602B712B822B932BC23049F058F4D3
:1041B000C13019F00E94AF252BCF0E949D2528CF3A
:1041C0000E94C12525CF0E949B2522CF86951123D1
:1041D00011F08C2F8170882309F41ACF4D2F42954E
:1041E00046954770440F440F0D2F0F7010E030E0DC
:1041F00020E0042E04C0000F111F221F331F0A9459
:10420000D2F760E070E0CB01D4FF0FC06FE070E048
:1042100080E090E004C0660F771F881F991F4A95C1
:10422000D2F76095709580959095C695C695C370A8
:10423000602B712B822B932BC23049F058F4C13084
:1042400019F00E947426E4CE0E946226E1CE0E94FC
:104250008626DECE0E94D725DBCECF70112329F033
:104260008C2F0E94FD258D2F1DCF8D2F0E949D1F0D
:104270008C2F0E941E26CCCED23F89F160F4D03F15
:10428000C9F0D13F29F1112309F442C00111A8CE90
:104290008C2F8F7121C0D33F39F1D43FA1F7112367
:1042A00069F1CF718C2F0E94FD2563E08C2F0E9455
:1042B0000428AECE112341F0053008F0A9CE8C2F92
:1042C0008F710E944126A4CE063008F0A1CEF7CF10
:1042D0008C2F8F71112369F20E94FD2599CE8C2FAE
:1042E0008F711123C9F3C5CF112329F08C2F8F7142
:1042F0000E94E8258DCE0E94E3258ACE81E00E94AF
:104300001928023008F484CE82E00E94192880CE59
:10431000002359F0D93309F0F4CE8FEF97EEE3E0A4
:1043200081509040E040E1F7EACE8C2F8F71A1CF11
:104330004C2F4F706D2FC6010E940E070E9413254F
:1043400067CE4C2F4F706D2FC6010E94110760CEB3
:10435000DF91CF911F910F91FF90EF90DF90CF9061
:10436000BF9008950F931F93CF93DF93EC01688163
:1043700079818A810E9439278C010E9498260E94A7
:104380009A25B801CE01DF91CF911F910F910C9426
:10439000A41FCF93DF93EC018B819C81892B29F0A3
:1043A0008881998189238F3F59F4DF91CF910895B6
:1043B000CE010E94B221CE01DF91CF910C9457061D
:1043C000CE010E947E068111F3CF0E947B278823B5
:1043D00061F38A81882349F382E0DF91CF910C94C5
:1043E00019280E94A2270E94B2270E94CE2790E09F
:1043F00080E00E944C1D90E080E00C94621D0E94C1
:104400006B270C94F1210E9492270C94FF21E92F35
:10441000E295EF70E250EE3070F4F0E0E05EFC4CBC
:104420000C94F331803F19F020F4883E20F481E0B1
:104430000895843FE1F380E00895883EC0F3813F12
:10444000D1F7F5CF93FB882780F908950E942F2795
:104450000C940722CF93DF9300D000D00F92CDB7FA
:10446000DEB70F900F900F900F900F90DF91CF91CC
:104470000895CF93DF9300D000D000D0CDB7DEB742
:1044800026960FB6F894DEBF0FBECDBFDF91CF9159
:1044900008951F93CF93DF93C091A60216E08091F9
:1044A000A7028C1304C0DF91CF911F910895D0E033
:1044B0001C9FF0011D9FF00D1124E855FD4F408118
:1044C000518162817381848195810E943922219674
:1044D000C770E5CF4091D8025091D9026091DA02BD
:1044E0007091DB028091DC029091DD020C94392204
:1044F0001F93CF93DF938091DD02807FA9F4809199
:10450000DA02882389F08091A602C091A702609107
:10451000D8027091D902A091DB02B091DC02D62FB3
:10452000D72316E0C81304C0DF91CF911F910895DF
:1045300090E0109711F0DF3F19F401968770F2CFE9
:10454000189F9001199F300D1124F901E855FD4F76
:1045500041814713F2CF40814613EFCF4281411191
:10456000ECCF438154814A1B5B0B483C510528F733
:104570008091DD028F7080618093DD02F901E35547
:10458000FD4F80818F708061808388ED92E00E9472
:10459000C921DF91CF911F910C944922AF92BF9214
:1045A000CF92DF92EF92FF920F931F93CF93DF93FF
:1045B000CDB7DEB761970FB6F894DEBF0FBECDBFA3
:1045C0008C0185E0F801DE011D9601900D928A951F
:1045D000E1F7F80140815181E28088EDC82E82E048
:1045E000D82E6091DB027091DC026115710509F42F
:1045F00061C19091D8022091D902892F82238F3FE7
:1046000009F458C1A380B480F090DA02F501E61BEA
:10461000F70BFF2009F4FCC08091DD02382F307FBA
:10462000E83CF10508F0B2C0311179C0FE2C251329
:1046300023C0941321C0E1101FC08F70806180934C
:10464000DD020E946A22C6010E94C9218091DD021A
:10465000F80185838F2D61960FB6F894DEBF0FBEEB
:10466000CDBFDF91CF911F910F91FF90EF90DF9021
:10467000CF90BF90AF900895AB2829F0842F852369
:104680008F3F09F033C180E0F82FF170DF2E80FFFB
:104690003CC08091A6022091A70236E0821315C08B
:1046A0004D875E878D859E850E942F27292F229515
:1046B0002F702230F0F0243018F59F70F1F0F801DF
:1046C0009581907FD1F4D12C1EC090E0389FF001ED
:1046D000399FF00D1124E855FD4F6181651306C027
:1046E0006081641303C062816E110FC001968770F0
:1046F000D5CF9F7011F0882331F3805E883018F396
:10470000C8010E94C921FD2CA5CFEE2009F4A2CF3B
:104710008091DD0281608093DD02F12C9BCF251317
:1047200006C0941304C0F801EE2009F48DC04D8733
:104730005E878D859E850E942622882319F1EE20B2
:1047400009F18091DD02803270F02091D802309121
:10475000D90238872F831986BB86AA868C87CE011B
:1047600007960E94C92186E0F801A8EDB2E0019009
:104770000D928A95E1F70E9478220E946A22FF2416
:10478000F39468CFC8010E94C921F9CF311113C039
:104790007A2DB98AA88A6E2D89890E942A2288EDED
:1047A00092E00E94C92186E0F60111928A95E9F70C
:1047B0000E946A22B2CF25130FC094130DC0E110DE
:1047C0000BC0F8018583C8010E94C92186E0F6016B
:1047D00011928A95E9F73ECF4D875E878D859E853C
:1047E0000E942622882371F2EE2061F28091DD0280
:1047F000803208F4B8CF2091D8023091D9023A83A0
:1048000029831B82BD82AC828E83CE010196A9CF03
:10481000E83CF10508F041C0FE2CEE2009F4B2CFCF
:1048200025132AC0941328C08091DD0280FD1BC08F
:10483000982F907FC1F0F8018583903F31F0982F39
:10484000907F905F8F70892B8583C8010E94C9215A
:1048500086E0F801A8EDB2E001900D928A95E1F7AB
:104860000E946A22F7CE86E0F801A8EDB2E001903E
:104870000D928A95E1F7EECE4D875E878D859E85F8
:104880000E94262281116FCF8091DD02816080938A
:10489000DD02C8010E94C921DDCE7A2DB98AA88A1D
:1048A0006E2D89890E942A2286E0F60111928A954E
:1048B000E9F7D6CFEE2009F465CF4D875E878D8569
:1048C0009E850E942622F82E882309F45BCF86E07D
:1048D000F801A8EDB2E001900D928A95E1F788ED1C
:1048E00092E00E94A51E0E947822BACF81E08E2518
:1048F000CBCE1F93CF93DF93CDB7DEB72C970FB6F8
:10490000F894DEBF0FBECDBF4F83588769877A8783
:104910008B879C87CE0107960E94CE22882369F060
:104920008A859B85892B39F04F815885842F852373
:104930008F3F09F071C016E05FC086E0FE01379638
:10494000DE01119601900D928A95E1F78A859B858B
:10495000892B89F38F81988589238F3F61F320917B
:10496000A70230E0C9010196877099274091A602FD
:104970004817190671F40E9403221092A7021092A0
:10498000A60286E0E8EDF2E0DF011D928A95E9F7E4
:10499000D2CF96E0929FD001939FB00D1124A855DD
:1049A000BD4FFE01319601900D929A95E1F78093EB
:1049B000A7020E944922BFCF819FC00111248855C0
:1049C0009D4F0E94CE228823E9F0E091A6021E9F0F
:1049D000F0011124E855FD4F4081518162817381BE
:1049E000848195810E9439228091A60290E00196EF
:1049F000877099278093A6028091A6029091A702C2
:104A00008913DACF2C960FB6F894DEBF0FBECDBF58
:104A1000DF91CF911F91089569857A858B859C855B
:104A20000E94392288CFEF92FF920F931F93CF936A
:104A3000DF938C01892B81F0F12CEE24E394E801C3
:104A40002196F8018491843770F4843008F05FC0B7
:104A50008130B1F08230A1F1DF91CF911F910F91A0
:104A6000FF90EF900895853709F44CC008F43DC0DD
:104A70009CE7980F903780F78F770E94341F49C0CA
:104A80000E5F1F4FFE01849190E2980F983060F402
:104A90008770FE2D01C0FF0F8A95EAF78F2F0E94C5
:104AA000A5270E94CE2702C00E94AA1E8F2D8150EA
:104AB00030F2EFE9FFE03197F1F700C00000F7CFE7
:104AC0000E5F1F4FFE01849190E2980F983050F4D2
:104AD0008770FE2D01C0FF0F8A95EAF78F2F0E9485
:104AE000AB27DFCF0E94341FE1CF0E5F1F4FFE01C7
:104AF000C491C150D8F28FE99FE00197F1F700C04F
:104B00000000F7CF0E5F1F4FFE01F490CFCF0E9441
:104B1000AA1E8E01CBCF08950C948B250E948C2564
:104B200060931E0370931F038093200390932103CF
:104B30000C94F12108950C948E250F931F930091EE
:104B40001E0310911F032091200330912103602B3D
:104B5000712B822B932B1F910F910C948E250F9309
:104B60001F9300911E0310911F0320912003309189
:104B7000210360237123822393231F910F910C94AF
:104B80008E250F931F9300911E0310911F032091F8
:104B900020033091210360277127822793271F91DB
:104BA0000F910C948E250C948B250C94D3250E9488
:104BB000D52560931A0370931B0380931C03909375
:104BC0001D030C94F12160E070E0CB010C94D7251B
:104BD0000F931F9341E050E060E070E08A019B0179
:104BE00004C0000F111F221F331F8A95D2F7C9017D
:104BF000B8011F910F910C94D7250F931F9341E09B
:104C000050E060E070E004C0440F551F661F771F3E
:104C10008A95D2F780911A0390911B03A0911C03EF
:104C2000B0911D038A019B01082B192B2A2B3B2BCA
:104C3000C901B8011F910F910C94D7250F931F93B1
:104C400041E050E060E070E004C0440F551F661F73
:104C5000771F8A95D2F7CB01BA0160957095809540
:104C6000909500911A0310911B0320911C03309121
:104C70001D0360237123822393231F910F910C94B2
:104C8000D7250F931F9341E050E060E070E004C02F
:104C9000440F551F661F771F8A95D2F780911A031C
:104CA00090911B03A0911C03B0911D038A019B01ED
:104CB000082719272A273B27C901B8011F910F91FF
:104CC0000C94D7250F931F9300911A0310911B0387
:104CD00020911C0330911D03602B712B822B932B91
:104CE0001F910F910C94D7250F931F9300911A03D6
:104CF00010911B0320911C0330911D03602371232D
:104D0000822393231F910F910C94D7250F931F9308
:104D100000911A0310911B0320911C0330911D0375
:104D200060277127822793271F910F910C94D72515
:104D3000089529E0929F800D1124982F977041E0EB
:104D400001C0440F9A95EAF786958695869595E079
:104D5000899FF0011124E252FD4F90E080E070E065
:104D60005191DF0111979B01082E02C036952795BE
:104D70000A94E2F7217021952527242325272C93D7
:104D800001968530910561F7089529E0929F800D85
:104D90001124982F977086958695869525E0829F99
:104DA000F0011124E252FD4F50E040E080E02191FB
:104DB00030E0092E02C0369527950A94E2F721705B
:104DC0003327042E01C0220F0A94EAF7822B4F5F8B
:104DD0005F4F4530510559F70895BF92CF92DF924A
:104DE000EF92FF920F931F93CF93DF938C01C090AC
:104DF0001A03D0901B03E0901C03F0901D038091D8
:104E00001E0390911F03A0912003B0912103C82A93
:104E1000D92AEA2AFB2ACFE1D0E0BC2ED701C6016D
:104E20000C2E04C0B695A795979587950A94D2F74E
:104E300080FD0EC0219788F7B12C8B2DDF91CF918B
:104E40001F910F91FF90EF90DF90CF90BF9008954A
:104E5000B8018C2F0E942E07019761F3EECFCF93FC
:104E6000DF93EC010E94ED26BE01DF91CF910C94FF
:104E70002E071F93CF93DF93EB019091A502992307
:104E800031F0CB01DF91CF911F910C942F27882314
:104E900079F0CB010E94ED26182F682FCE010E94D9
:104EA0009926BE01812FDF91CF911F910C942E077F
:104EB000CB010E94C526182FF4CF682F80913D01A9
:104EC00090913E010C942B29682F80913D01909187
:104ED0003E010C942D2980913D0190913E010C944E
:104EE0002F29809122038595859585950895809138
:104EF00022038770089590912203977081E009F44E
:104F000080E0089580912E03089590912E03892BBF
:104F100080932E030895809590912E03982390936B
:104F20002E03089510922E03089590912D03892B3E
:104F300080932D030895809590912D03982390934D
:104F40002D03089510922D03089590912C03892B21
:104F500080932C030895809590912C03982390932F
:104F60002C03089510922C03089580912303089533
:104F700008950C94B82790912303981721F08093FB
:104F800023030C94B927089580912303882329F0E3
:104F90001092230380E00C94B9270895E0913D011D
:104FA000F0913E0180912E038083E0913D01F091CC
:104FB0003E01808190912D03892B8083E0913D01FA
:104FC000F0913E01808190912C03892B80839091F8
:104FD0002303992381F0E0913D01F0913E0180810E
:104FE000892B808380913D0190913E010E94E328AE
:104FF00081110E94C42780913D0190913E010C9443
:10500000001D08950C94012898E0899F90011124B7
:10501000622B609322030E94FD25809122038595D7
:10502000859585950C9402281092220380E00C94BB
:105030000228909122038095892380932203282FB0
:10504000277071F4282F082E000C330B92171306CB
:1050500039F08595859585950E941E260C94142817
:1050600008959093010280930002089590E080E0FB
:105070000E94A13221E08C3E9E4F09F020E0822F59
:10508000089582E090E00C94933283E090E00C94D9
:105090009332CF9384E090E00E949332C82F81E254
:1050A00090E00E949332982F8C2FCF910895CF9348
:1050B000C92F682F84E090E00E94A7326C2F81E214
:1050C00090E0CF910C94A73286E090E00C9493325C
:1050D000682F86E090E00C94A732AB01BC018FE012
:1050E00090E00C94B932AB01BC0183E190E00C94E8
:1050F000B93260E070E0CB010C9473286CEE7EEF67
:1051000090E080E00E94C53260E082E090E00E9482
:10511000A73260E083E090E00E94A73210921E0365
:1051200010921F03109220031092210360E084E08C
:1051300090E00E94A73260E081E290E00E94A732F6
:1051400060E085E090E00E94A73260E086E090E0B9
:105150000E94A7326FEF87E090E00E94A73240E004
:1051600050E0BA0188E090E00E94B93260E08DE042
:1051700090E00E94A73240E050E0BA0188E190E060
:105180000E94B93260E087E190E00E94A73240E0DF
:1051900050E0BA018CE190E00E94B93260E080E218
:1051A00090E00E94A73240E050E0BA0188E190E030
:1051B0000E94B9320C94FC050C947E28682F8EE076
:1051C00090E00C94A7329C012E5F3F4FAC01485FEA
:1051D0005F4F80E02417350709F40895F901919194
:1051E0009F019923B9F38F5FF5CF662349F0FC0146
:1051F000329608962191261729F0E817F907D1F77A
:1052000080E0089581E008959C01FC0132969FEFB3
:1052100080E04191461751F09F3F19F4411101C0C0
:10522000982F8F5F8630A9F79F3F09F40895290FC3
:10523000311D97FD3A95F90162830895FC0132967C
:1052400008962191261303C0DF0111971C92E817DD
:10525000F907B9F708950C9404290C941E290296B5
:1052600026E0FC0111922A95E9F708950895089522
:105270000C9437298091A803843061F10E94382969
:1052800080E00E94831780E00E940607109230039E
:1052900088E190E020E40FB6F894A8958093600030
:1052A0000FBE2093600083B7817F846083BF83B784
:1052B000816083BF7894889583B78E7F83BF0FB654
:1052C000F894A895809160008861809360001092A6
:1052D00060000FBE08950895CF930E9436290E9462
:1052E000520A0E946B29C0E08C2F0E941809892B5A
:1052F00031F4CF5FCA30C1F780E0CF91089581E0EB
:10530000FCCF08950C9481290E9403220E94191653
:105310000E94F41C0E9406070C9482291F921FB65B
:105320001F9211248F939F93AF93BF93809130036B
:10533000811113C080919E0390919F03A091A003BF
:10534000B091A1034196A11DB11D80939E0390933E
:105350009F03A093A003B093A103BF91AF919F912E
:105360008F911F901FBE1F90189582E084BD93E01F
:1053700095BD9AEF97BD80936E0008952FB7F8946E
:1053800080919E0390919F03A091A003B091A103EF
:105390002FBF08959C014FB7F89480919E03909180
:1053A0009F03A091A003B091A1034FBF821B930B59
:1053B000089578941F921FB61F9211248F939F9384
:1053C000AF93BF9380919E0390919F03A091A00300
:1053D000B091A1030196A11DB11D80939E039093EE
:1053E0009F03A093A003B093A103BF91AF919F919E
:1053F0008F911F901FBE1F90189581E08093E00051
:1054000080E28093D8001092C9008FE19EE401975A
:10541000F1F700C0000087E090EBDC018093B1035E
:105420009093B203A093B303B093B40388E19CE0DC
:105430000FB6F894A895809360000FBE909360001B
:10544000FFCF0E943628811102C00E94DC280E94F2
:10545000412880932F030E9449289093A3038093AF
:10546000A2030E944528682F70E090E080E00E942F
:105470009B2560911A0370911B0380911C039091EE
:105480001D030C94D52580913C03089508959FB782
:10549000F894109233039FBF9091A803943009F0C1
:1054A00048C02091E9002F703091EC00932F91704B
:1054B00030FD90E8922B23E02093E9002091EB004F
:1054C00020FF34C02091EE0027FF30C0209131032F
:1054D000222321F02091E80025FF28C010923103FB
:1054E00026E03091E80035FF14C08093F1008091F0
:1054F000E80085FD27C08091E80080FFFCCF809107
:10550000E8008E778093E8009F709093E90080E038
:1055100008953091A803343049F43091EB0035FD03
:1055200005C0215041F481E0809331039F70909336
:10553000E9008FEF0895EFE9FFE03197F1F700C040
:105540000000CFCF8FB7F89421E0209333038FBFB3
:10555000DBCFCF93DF9300D00F92CDB7DEB7909122
:10556000A803943019F589837B836A8382E0809352
:10557000E9008FEF9091E800815095FD06C095ED10
:105580009A95F1F700008111F5CF8091E80085FF31
:105590000DC050E040E063E070E0CE0101960E9453
:1055A000FD2C8091E8008E778093E8000F900F909B
:1055B0000F90DF91CF910895BC0184E00C94A92A4B
:1055C000BC0183E00C94A92ACF93DF93EC0181E026
:1055D0008093E9008FEF9091E800815095FD06C01F
:1055E00095ED9A95F1F700008111F5CF8091E800D3
:1055F00085FF14C050E040E068E070E0CE010E94FA
:10560000FD2C8091E8008E778093E80088E0FE0111
:10561000A4E3B3E001900D928A95E1F7DF91CF9179
:10562000089581EA98E00E9444058091A7038111C2
:1056300009C00E948D2E0E94EA2E8091E2008460B3
:105640008093E20008958DE998E00E94440510924D
:10565000A703089589E998E00C94440585E998E04A
:105660000C94440581E998E00E9444050C94842937
:10567000209132032F5F822F62E30E949D31992394
:1056800019F020933203089510923203809133036E
:105690008823F1F08091A8038430C1F49091E9004F
:1056A0009F702091EC00822F817020FD80E8892B73
:1056B00093E09093E9009091EB0090FF04C09091EB
:1056C000EE0097FD08C08F708093E90010923303BD
:1056D00008951092F1009091E80095FDFACF909115
:1056E000E80090FFF0CF9091E8009E779093E8005B
:1056F000EACF42E061EC81E00E94092E42E261ECD7
:1057000082E00E94092E42E261EC83E00C94092EB3
:105710008091AA03833009F45FC030F48130C1F175
:10572000823009F49BC008958A3009F487C08B3019
:1057300009F46DC0893009F04EC08091A90381320F
:1057400009F049C08091AD039091AE03029708F033
:1057500042C08091E800877F8093E8008091E80054
:1057600082FF35C09091F3008091F200029729F4F6
:105770008091F1008B7F813021F48091F100809342
:105780003C038091E8008B778093E8000C943D2ED9
:105790008091A903813AF9F48091E800877F809392
:1057A000E8008091AD039091AE03892B61F468E02D
:1057B00084E393E070E00E944C2D8091E8008B77A9
:1057C0008093E800089560E090E080E0F3CF80915E
:1057D000A8038111C3CF08958091A903813AD9F715
:1057E0008091AD039091AE03892BA9F78091E800D9
:1057F000877F8093E8008091E80080FFFCCF809154
:1058000049018093F1008091E8008E77BDCF8091AF
:10581000A903813201F78091AD039091AE03892BEA
:10582000D1F68091E800877F8093E8000E943D2EAA
:105830008091AB03809349010C9403228091A903CA
:10584000813249F68091E800877F8093E8000E94CA
:105850003D2E8091AC0380933D0308958091A90370
:10586000813A09F0B8CF8091E800877F8093E80003
:105870008091E80080FFFCCF80913D03C2CF84B7C8
:10588000877F84BF0FB6F894A895809160008861E7
:1058900080936000109260000FBE80E890E00FB629
:1058A000F89480936100909361000FBE0E94861D62
:1058B0000E948D2E0E94EA2E8091E20084608093E7
:1058C000E20087E49AE20E94312878940E947231C3
:1058D0000E94901D8FE391E00E94EF1C80E898E009
:1058E0000E9444058091A803853039F00E94C61DAE
:1058F0000E948E1D0E948F1DF5CF8CE798E00E94BC
:1059000044050E943A298091A603882359F30E94F6
:105910006C29882339F30E94E72CE4CF0C94902C57
:10592000292F33272330310521F168F42130310547
:1059300009F443C02230310509F444C090E080E00E
:1059400030E020E026C02132310551F1223231050C
:10595000A9F76330710590F7FB01EE0FFF1FED50C3
:10596000FE4F2081318160517E4FFB01808190E0AC
:1059700010C099278130910581F0009729F0029796
:10598000E9F6E5EAF8E002C0E9EDF8E0849190E09C
:105990009F01FA01318320830895E9ECF8E0F6CF06
:1059A0006330710558F6660F771FFB01E750FE4F15
:1059B0002081318189E090E0ECCF82E190E028E322
:1059C00039E0E7CF8BE590E02DED38E0E2CF80E1E4
:1059D00089BD82E189BD09B400FEFDCF8091D80068
:1059E0008F7D8093D8008091E00082608093E000FA
:1059F0008091E00081FDFCCF0895AF92BF92CF92DD
:105A0000DF92FF920F931F93CF93DF936C01EB0113
:105A10008A010E945C2EF82E811123C00115110508
:105A200039F0F80180819181C81BD90BC80ED91EAD
:105A3000B12CA12C2097A9F08091E80085FD22C00F
:105A40008091E8008E778093E80001151105A1F0A0
:105A5000F80180819181A80EB91EB182A08285E0F3
:105A6000F82E8F2DDF91CF911F910F91FF90DF9036
:105A7000CF90BF90AF9008950E945C2E8823D1F202
:105A8000F82EEFCFF60181916F018093F1002197FD
:105A9000FFEFAF1ABF0ACECFFC018091AF03909108
:105AA000B00386179707A0F06115710529F490914E
:105AB000E8009E779093E80090E06115710551F43D
:105AC000911108C08091E80082FF34C080E0089501
:105AD000BC01F2CF8091A8038823C1F18530C1F1C8
